S01B00006275696C642F72656C656173652F7A69676265652E73333714
S21400400008100020618F0000F5D6000091630300C1
S21400401091630300FDD6000005D7000091630300FE
S21400402091630300916303009163030091630300AF
S21400403009D7000090AB040091630300916303006E
S214004040916303009163030091630300798A000083
S214004050916303009163030091630300916303007F
S214004060916303009163030009DC00009163030081
S214004070916303009163030091630300916303005F
S214004080916303009163030091630300916303004F
S214004090916303009163030091630300916303003F
S2140040A091630300299300000D93000091630300C1
S2140040B0916303009163030091630300592B020090
S2140040C083BF03007FBF0300BD22020099BF030029
S2140040D087BF0300192B02008BBF03004D0F0200A1
S2140040E0992B020091630300916303009163030020
S2140040F091630300916303009163030091630300DF
S21400410091630300916303009163030091630300CE
S21400411091630300916303009163030091630300BE
S21400412091630300916303009163030091630300AE
S208004130916303008F
S214004134F0B5114A114C124E00F00105E3695F0711
S21400414413D40DB9334213D103EA00078F4207D1C3
S2140041540B4A1A40002A14BF6FF001000020F0BD7D
S214004164013AEBD16FF00200F9E74FF0FF30F6E7C3
S2140041746FF00100F3E700BF80969800000003503C
S214004184020001000B4B70B5D96911F480310DD1D2
S21400419401244FF48072084E084DF46020462C64C7
S2140041A41A61FFF7C5FF3464EC6070BD6FF0010060
S2140041B4FBE700BF0000035000100350002003502C
S2140041C438B541F6713301220C4C0021E569E363EE
S2140041D40B4B05F48035DA600223606121202361ED
S2140041E4FFF7A6FF10B92120FFF7A2FF0122054B17
S2140041F4DA600DB10023E36338BD00BF000003504E
S214004204001003500020035070B5134C6061E3693E
S2140042145B071ED40E4656F8043B8D18A361AE42C7
S2140042240BD10423002121202361FFF781FF58B915
S214004234BDE870402120FFF77BBF08210846FFF742
S21400424477FF10B10423236170BD56F8043BA361C5
S214004254E5E74FF0FF30F7E7000003502DE9F84399
S214004264154641F67132164B8946DF69DA63012238
S214004274064603F58053DFF8508007F48037DA608B
S21400428455B9284601220F4BDA601FB10022A3F568
S2140042940053DA63BDE8F88306F5005404EA08041C
S2140042A4A41BAC4228BF2C46494622463046FFF79C
S2140042B4ABFF0028E6D12644A1442D1BE0E700BF4F
S2100042C4000003500020035000E0FFFF45
S2140042D02DE9F04F4FF0FD0BC9B09A460DF11B09C2
S2140042E09DF8503108AFCDF80C90CDF808B0019786
S2140042F0059303890446009383790E4690464188C9
S2140043008288407813F046F9054650B10090A3889D
S214004310002062883A4913F081FC284649B0BDE87F
S214004320F08F99F8000035F04AF938B12846A3888E
S2140043306288344913F072FC8D25EEE75A463946FA
S21400434099F8000035F0E3F88346002851D0529BD8
S2140043501BB1BDF84C3198424BD8002399F8009019
S2140043600793A9F14102012A5FFA8BF123D8384658
S2140043700139254ADFF898C05FFA81FE734513DBE2
S214004380059B04210792C3B907AF18221F489FED6B
S2140043901A7B02FB060420460A460830394684ED9E
S2140043A0027B18F091F911E010F8011F013351401B
S2140043B00CFB01F2E2E7059B33B123464A4638463A
S2140043C0009611F00FF8A8E70829DED9B8F1000F1B
S2140043D001D088F80090BAF1000F01D0AAF800B01A
S2140043E0529B002B99D05A46184608A918F06CF92B
S2140043F093E7012591E700BF0000000000000000E1
S2140044002255040057550400C59D1C8180100020CD
S21400441093010001000000002DE9F04F93B0CDE9B4
S2140044200A32DDE91C530E9353EC102BCDE908013C
S214004430104619468DED060B1E9E17F0CFFB80B179
S214004440DDE906014FF0FF32C54B17F0EFFB40B930
S214004450DDE906014FF0FF326FF4801317F0C8FB5A
S21400446070B1DDE908019DED060B0E9B1E96CDE9A9
S2140044701C53DDE90A3213B0BDE8F04F00F088B9EE
S2140044800022DDE90601002317F0B2FB002800F049
S2140044903381DDE906A303F1004BCBF30A5016F493
S2140044A08063A0F2FF3008BF06250F9317F0C4F80C
S2140044B09BA3D3E9002317F029F99BA3D3E9002394
S2140044C016F06EFFCBF31304894644F07F51804606
S2140044D00022A44B504641F4401116F05FFF94A30F
S2140044E0D3E9002317F012F902460B464046494628
S2140044F016F056FF17F0A4FB044617F09DF88EA39F
S214004500D3E900238046894617F000F90022964B2F
S21400451016F046FF17F094FB89A3D3E9002307465D
S2140045204946404617F0F2F880463846894617F066
S21400453083F885A3D3E9002317F0E8F802460B4674
S2140045404046494616F02AFF02460B46CDE90C23A4
S21400455017F0DCF8DDE90C2380468946104619463C
S21400456016F01EFF0022CDE91001804B404649465A
S21400457017F0F6F900227E4B16F012FF02460B46A5
S2140045804046494617F0ECF900227A4B16F008FF31
S21400459002460B464046494617F0E2F9DDE90C2391
S2140045A08046894600204FF0804116F0F7FE02460E
S2140045B00B464046494616F0F3FE02460B46DDE93A
S2140045C0100117F0CDF907F2FF3700226A4B16F0FC
S2140045D0E7FE00223B0517F099F852465B468046F8
S2140045E0894617F023FB002840F08980CDE90C8926
S2140045F004F16303C62B8CBF0527042731051BD5A2
S21400460053A3D3E900235046594617F005FB00286C
S2140046107FD051A3D3E900235046594617F0E8FA55
S214004620002876D00027A542C6BF2C1B04F1FF3514
S21400463000253C4646F480660E9B9F422CBF4FF0FA
S2140046400008A3EB070816F0020903D0002F18BFD6
S2140046504FF000083CB1DDE90C235046594617F0F0
S2140046607FF982468B46DDE906010022002317F01B
S214004670BFFA10B10BF100439B46DDE9080126F4B2
S2140046800063CDE90183DDE90A324BEC10AB0095FF
S21400469000F07EF802465FB3DDE9091316F0200F3E
S2140046A000F10105089E0CBF65204520B047DDE9F6
S2140046B008010523002205930A23002CCDE90232C7
S2140046C007F1FF374FEAD473B8BF64422A46019316
S2140046D004970A9B009436F0CCFD0246B9F1000F11
S2140046E006D00B9BC41A0B9B1A190E9BA34245D8E7
S2140046F0104613B0BDE8F08FDDE906ABCDE600222C
S214004700404649461A4B17F02BF9013CCDE90C01FF
S2140047106EE7002D90D00F9B002B8DD0013D8BE7D0
S214004720FB799F501344D33FB3C8608B288AC63F9B
S21400473061436F63A787D23F71A379094F930A40FD
S2140047401655B5BBB16B0240EF39FAFE422EE63F76
S2140047502D431CEBE2361A3F0000000080842E41F9
S214004760FFFFEF7F0000F83F0000E03F00002C4016
S21400477000002440000018400000F03F2020DDE943
S2140047800913089DA8470134ADE700BF00000000EC
S2140047902DE9F04F5BEC10AB97B0CDE90501DDE9F4
S2140047A02058CDE90723504652465B465946229F7D
S2140047B017F014FA70B90323CDE902870193AA4BC8
S2140047C00093DDE90501DDE9072336F084FC17B028
S2140047D0BDE8F08F4FF0FF326FF480135046594615
S2140047E017F006FA28B10423CDE9028701939F4B00
S2140047F0E6E74FF0FF32504659469D4B17F016FA43
S21400480068B19C4A07F00403002B08BF03229A4BAA
S2140048101CBF13460422CDE902870192D0E750461A
S2140048208DA3D3E90023594617F000FA38B98CA3B4
S214004830D3E900235046594617F0DAF968B1DDE9A6
S2140048400723DDE905014BEC10ABCDE92187209568
S21400485017B0BDE8F04FFFF7DFBD0022002350463B
S214004860594617F0C5F9002800F091805B4652467D
S2140048700020002116F092FD012382468B46099304
S21400488017F4806400F08580092D40F285800024AE
S21400489030210EABA5F109020134202C03F8011BD0
S2140048A0A5EB040901D09442F6D15946504617F0BC
S2140048B0C7F9724B054603EBC90393ED007B8DEDFC
S2140048C00A7B16F0B9FE02460B465046594616F0CD
S2140048D065FDDDE90A2316F019FF02460B46CDE911
S2140048E00C2317F0D5F9064616F096FE02460B4640
S2140048F0DDE90C0116F052FD02460B46CDE90C230D
S21400490000225F4B17F092F9002848D00136304657
S21400491016F082FE02460B46DDE90A0117F072F930
S21400492008B100260135B9F1000F45D1284616F02A
S21400493083FE02460B465046594616F02FFD0022CF
S2140049404F4B17F055F910B9E90700D501350A2184
S2140049500EAB1A19202C0AD095FBF1F001FB10556E
S214004960303502F8015B013405460028F2D107F025
S2140049700302012A55D1B8F1000F52D0099A12B994
S21400498017F00C0F01D008F1FF38302240E00990F4
S21400499076E74FF0060988E7A946002485E7002257
S2140049A0DDE90C01364B17F023F90028BBD10EB118
S2140049B0F007B8D50136B6E70A210EAB1A19202C37
S2140049C00DD0B6FBF1F001FB1063092E03F13003A6
S2140049D009F1FF3904F1010402F8013B11D8302136
S2140049E0A1440EAA202CB2D04C4504F101030AD1F2
S2140049F004F158020DEB02042E2204F8202C1C466B
S214004A00A5E70646DBE7A1541C46EBE71A5501343A
S214004A10444506D2202CF9D1CDE9028701940EAB8D
S214004A20CEE6202CF8D0099B3BB12D2204F158038A
S214004A306B4403F8202C0134EEE77A0704D504F122
S214004A4058032B226B44F4E73B07E5D504F15803E3
S214004A5020226B44EDE700BF0000000065CDCD418D
S214004A600000000065CDCDC111730400157304006D
S214004A70FFFFEF7F087304000D730400C8BA04003C
S214004A800000E03F0000000070B58EB02C22002130
S214004A9003A817F089FC64234FF002320893CDE98F
S214004AA005230B2301218DF834305B4B8DF8101055
S214004AB01D880D4040F0A98008463AF099FE0A226B
S214004AC0564B574C1A704FF42873ADF812304FF00F
S214004AD0FF332360534B54491B8820460B82534BAD
S214004AE0534A1B68CD828B61524B0D621B884B82EA
S214004AF0514B1B68CB611EF0C5F820B14FF41B71FB
S214004B004E483BF0B6FF0521206836F09BFD20B1ED
S214004B1040F27D2149483BF0ACFF206816F0FAFBD6
S214004B20474B2068196836F050FE0C253BF0C8FA53
S214004B30684309903BF0C4FA68430DEB0501079003
S214004B40206818F0F3FA20B140F295213B483BF07C
S214004B5090FF256820F040FC00220146284636F0EB
S214004B60ACFE20B140F2972134483BF082FF40F281
S214004B700353344D344E2B80052396F90000AB705A
S214004B807F2801D11EF074F93378EB703BF098FA69
S214004B9000EB80008000A8803BF092FA0023C00063
S214004BA04FF0FF31E880AB604FF0FF3018A3D3E939
S214004BB000233AF06FFF2549206836F037FE20685C
S214004BC002A937F053FA20B14FF434711B483BF07A
S214004BD050FF042220680DEB020136F0CBFD0428BE
S214004BE004D040F2D72115483BF043FF01A901202D
S214004BF036F0D6F908F0C2FD01201EF0CBFD32F0EB
S214004C00BFF91EF0F1FD1EF0CBF80EB070BD00BF70
S214004C100A0020FF4203000086630020806B00200D
S214004C20385A0020FAD304001473002000D404007D
S214004C3019F80300F8D30400FCD3040040AA0400CB
S214004C40647000202C5A0020327600208DF8030075
S214004C500348044B834202D0034B03B11847704706
S214004C60647600206476002000000000064B0749AA
S214004C70C91A891048BF0131491003D0044B0BB143
S214004C8001481847704700BF64760020647600200D
S214004C900000000010B5064C237843B9FFF7D8FF94
S214004CA0044B13B10448AFF300800123237010BDFA
S214004CB06816002000000000A0F7040008B5044BAA
S214004CC01BB104490448AFF30080BDE80840CDE7B7
S214004CD0000000006C160020A0F70400A3F5803A40
S214004CE0704700BF154B002B08BF114B9D46FFF7C2
S214004CF0F5FF00218B460F461148124A121A17F08C
S214004D0053FB0C4B002B00D098470B4B002B00D0CE
S214004D1098470020002104000D000B4817F08AFE7B
S214004D2017F01AFB2000290030F0D4FE17F070FEB2
S214004D30000008000000000000000000081000202E
S214004D4008100020E46B00209DCA0100032837B538
S214004D5004460D461FD1012B35D11378012B32D1D5
S214004D6001F0BCFD012804460DD18DF80000264850
S214004D7016F008FA03F0BCFB234601466A460220FA
S214004D8003F012FC1FE0214816F0FCF903B0BDE862
S214004D90304001F0C9BD202817D101F09FFD421E0A
S214004DA05042504101236A468DF8000029462046AD
S214004DB003F0FAFB164B1A782AB901221A7003F090
S214004DC045FB02F02FFD03B030BD25280BD101F0C6
S214004DD085FD431E584258418DF8000001236A465F
S214004DE029462046CCE72428EDD10023CDE9003320
S214004DF003F0F6F910B100BACDE9000008236A46C0
S214004E0029462420BCE700BFA80E0400D50E0400E7
S214004E107364002007B5012120200DF1070201F080
S214004E20C5FB50B1012120200DF107028DF80710B7
S214004E3001F0CCFB03B05DF804FB9DF807100129D8
S214004E40F8D00122084816F09DF901210DF107025D
S214004E5020208DF8071001F0B9FB30F0B0FD4FF4BC
S214004E60FA6001F0EDF9E5E70D0F040008B501F072
S214004E70C3F900F01DFB0F4B1B788BB10E4803F0F7
S214004E807FFB03F0FDFA02F0B9FC0C4803F010FCBF
S214004E9030F01FFE02F02CFDBDE80840FFF7BABF59
S214004EA003F0A4FA064B1B781843C0B20028E5D1DD
S214004EB0EEE700BF77640020C42600204D4D0000BA
S214004EC0EB64002038B5124B1B78BBB103F0F6FB41
S214004ED001F004FD012805D001F000FD022801D0F4
S214004EE001F022FD0B4D2B783BB901F0F7FC0128B1
S214004EF0044602D130F0E5FD2C7038BD03F076FA9A
S214004F00054B1B781843C0B20028DFD1E0E700BF8E
S214004F107764002072640020EB64002070B590F87F
S214004F2060300446114E00F11C0533B1C0E907603D
S214004F302846BDE8704001F08FBB008830F013FDB6
S214004F40A37884F84400834208BF01232846C4E9B6
S214004F50076404BFE370237101F07EFB22462088BD
S214004F600349BDE8704001F0BBBA00BF835603009A
S214004F704756030070B5C37804460D461646002B08
S214004F8034D1D1B1214816F0FDF80123E370E36C6B
S214004F90A6600BB1E06D9847E368F61A63699E4217
S214004FA021D2217E1A480131C9B2217616F0EAF8DC
S214004FB0A36D13B1217EE06D9847E57030F012FDC9
S214004FC015B3237903BBA268238A801A83421BD8B1
S214004FD001231048237116F0D5F8236DA3B1E06DB8
S214004FE0BDE87040184701232376E6E70029E4D1A0
S214004FF0094816F0C7F8636DE660E5702571002B6A
S214005000DBD0E06D9847D8E770BD00BF350F0400D1
S214005010460F0400740F0400610F040070B51E46AE
S214005020838804460D46C18002810BB1868070BD20
S2140050308178008830F046FB0123E370064BA6809B
S214005040C4E903340C34204601F006FB294620460A
S214005050BDE8704030F0BDBCCF56030010B50179F6
S2140050600446B1FA81F10088490930F0A2FB2179A3
S2140050706088B1FA81F1490930F09BFB034B1A684E
S214005080A24204BF00221A6010BD00BF881600208E
S21400509070B543790446A3B100880E4E04F10805A6
S2140050A0336813B10C4B1B786BB1217930F081FB60
S2140050B064210A4B3460A3602846BDE8704030F097
S2140050C088BC4088E9E7064816F05CF8054B3221B4
S2140050D0A360F1E788160020746400205D5000008D
S2140050E08A0F04009150000010B5044620B3134800
S2140050F016F048F8012194F83800617150B1104B51
S2140051001B6803B19847236BB3B1606B0121BDE800
S21400511010401847A37923B92179208830F049FB3D
S214005120F1E72046FFF79AFF04F1080030F056FC3E
S2140051302046FFF7ADFFE6E710BD00BFC00F040036
S2140051408416002010B5044638B3144816F01AF832
S214005150002194F83800617150B1114B1B6803B1FF
S2140051609847236BCBB1606B0021BDE81040184711
S214005170A3793BB921792088B1FA81F1490930F049
S21400518018FBEEE72046FFF769FF04F1080030F051
S21400519025FC2046FFF77CFFE3E710BDCB0F04009D
S2140051A08416002010B5044668B1074815F0EAFFDB
S2140051B0637920461BB1BDE81040FFF7C3BFBDE8CA
S2140051C01040FFF791BF10BDD70F040010B50E4C6E
S2140051D00E48214615F0D6FF82210D4815F0D2FF65
S2140051E082210220A21E01F0F1F9014630B134F806
S2140051F0022C0848BDE8104015F0C4BF0648BDE8BC
S214005200104015F0BFBF00BF8E5C0020E60F040004
S214005210011004000C1004005010040038B5104CA7
S21400522082212246022001F0C1F9A51C014678B170
S21400523022880C4815F0A6FF2A460B4B03F13401D2
S21400524053F8040B8B4242F8040BF9D13323238026
S21400525035F8021C054A0648BDE8384015F092BFEE
S2140052608C5C00205B100400DB1004008E5C0020C9
S214005270B910040010B50C4C0C48214615F082FFFE
S21400528082212320A21E01F0A1F9014630B134F894
S214005290022C0748BDE8104015F074BF0548BDE86D
S2140052A0104015F06FBF00BF0C5C00200F1104000B
S2140052B02D1104005010040010B5094C822122461E
S2140052C0232001F073F910B10023A3702380054A50
S2140052D0054832F8021CBDE8104015F053BF00BF69
S2140052E00A5C00200C5C00206811040010B50C4C11
S2140052F00C48214615F046FF82212420A21E01F00C
S21400530065F9014630B134F8022C0748BDE8104074
S21400531015F038BF0548BDE8104015F033BF00BF94
S2140053208A5B00208D110400B311040050100400A5
S21400533010B5094C82212246242001F037F910B11D
S2140053400023A3702380054A054832F8021CBDE8F6
S214005350104015F017BF00BF885B00208A5B002056
S214005360F6110400114B70B51C88E4B1104E358858
S2140053707E2D19D8C5F17F05ADB2AC4205D92246BF
S214005380611B0C4815F0FEFE2C4633880A48224660
S21400539018440A4917F098F933881C440023A4B22D
S2140053A034802644B37070BD0025E8E7885B002093
S2140053B08C5C0020231204008E5C00208A5B002098
S2140053C0034B1B781BB18B4201D830F0F8BA7047FC
S2140053D0D275002010B5044601460E4815F0D2FEE0
S2140053E0012C11D10C4B0D481A884FF6FF739A42C8
S2140053F01EBF0022094B5A7430F0C1F902F024FC9B
S214005400BDE8104002F094BA0448BDE8104030F001
S214005410B8B900BF5D12040084750020F06F00204C
S21400542070B500241A4D1B4E3378A3421BDC0024B3
S214005430194D1A4E3378A3421BDC0024184D194E22
S2140054403378A3421BDC01F049FA012816481CD128
S21400545030F095F902F0F8FB02F06AFABDE8704009
S214005460124801F05BBA2846FFF758FD0134643550
S214005470DAE7284630F069F901343435DAE72846A9
S21400548030F09CF901343C35DAE730F07AF9E5E79C
S214005490D4260020D1640020202B0020D2640020D7
S2140054A06C2400207A640020F06F0020D5530000A2
S2140054B02DE9F04F9FB0FFF7B1FEFFF7FDFEB648AF
S2140054C0B64C30F8021B02F0AFF8FFF731FFFFF7DB
S2140054D049FFB34B09A8099330F0A4F9054616F026
S2140054E05FFEC2B21F2A627004D9AE4815F04AFEAB
S2140054F000F09AFE2946A01C17F0E6F809A830F03E
S21400550091F9054616F04CFEC2B21F2A84F82120F7
S21400551001D9A548EAE7294604F1220017F0D4F895
S214005520102200210AA816F03FFF102200210EA824
S21400553016F03AFF1022002112A816F035FF1022AE
S214005540002116A816F030FF102200211AA816F027
S2140055502BFF09A830F066F94FF000090446322503
S214005560DFF88C82CDF80C902378002B40F0BD80BD
S214005570DFF880B28D4A9BF800700AAD0EAC12A818
S21400558016AE1AA99F4202F1880200F33985884CAC
S214005590FFF746FF2378874F01933B78DFF858A242
S2140055A0854E00939BF800309AF8002031788348A7
S2140055B015F0E8FD002033789AF800209BF80010DC
S2140055C09D180D443978DFF834820D44217804465E
S2140055D00D444146EDB2834200F32B85DFF8E4919B
S2140055E0012D38BF01254A4600234F464FF48271ED
S2140055F04FF6FF7403950398013398421370518059
S214005600948002F10C02F6DC6D4B6E496348BB6079
S21400561001F05CFAF879BB6800EB400003EB800011
S21400562001F00EF8FB79674901336748FB7102F019
S214005630EFFD664B1B88A34203D06249644801F025
S2140056406FFB00255E4C3278AA4200F3FB844FF0D5
S21400565000080C255F4ADFF86C919AF80000317854
S214005660404500F3038500EB01080C21002701FBF1
S21400567008919BF800208823BA4200F318850C2175
S21400568000274FF0940B96F800809AF80030494DAA
S214005690984401FB089128784F4AB84200F31E85CB
S2140056A037780C269AF800304FF000084FF0700A52
S2140056B01F44074406FB0796DFF844B1DFF8F09076
S2140056C099F80030434500F31E8503993D4801F0E4
S2140056D045F8099B32491A468B4240F02A853F48D6
S2140056E01FB0BDE8F04F15F04DBD532B0AD16378BF
S2140056F04C2B40F01181A378502B17D10122384B48
S2140057001A7013E0442B1AD16378A3F13002092AE9
S21400571000F2E282601C30F092F8324B324A19787E
S214005720002385B2994202F1640204DC09A830F035
S21400573079F8044618E722F84A5C0133F2E7422B70
S21400574060D16378542B08D1A01C00F017FF1F4BC4
S214005750188018462FF054FFE8E7601C00F00EFF94
S2140057600646E01C30F010F901210246304630F0C3
S214005770C7F864211B481C4C0378594362186652CC
S2140057804FF4FA6111824FF44871516117490133A1
S214005790558311650370C9E70A5C00202C6E002053
S2140057A08E5C00207C12040093120400901D0020E2
S2140057B0756400207664002079640020C21204001C
S2140057C0841700200C170020DC16002084750020AB
S2140057D08C160020B01F0020D41B00201E130400CF
S2140057E074640020D1640020D42600200F580300E3
S2140057F0202B00207764002078640020C021002041
S214005800841A00204C2B26D1601C00F0B7FE002224
S21400581034260746114630F073F8C349087806FB6D
S21400582000F328F8037008EB0302E3781046693BA0
S21400583018BF012393702FF088FF0023BB48BA4996
S214005840436001230A78037402FB06861A44066046
S2140058500A7003936AE7492B40F07C816378A3F1D2
S2140058604102032A00F2DF80601C00F087FE00225F
S2140058701146074630F044F83423AB4EDFF8CCA28E
S214005880307803FB00F22AF802700AEB0201E27895
S2140058900846693A18BF01228A702FF056FFA449BD
S2140058A0002308460A6D3ABB582202FB0300342345
S2140058B0327802FB03A303659E4900230846D1F80D
S2140058C0A420FAB9A82202FB03003423327802FB94
S2140058D003A3C0F8A430039B53B9944A114652F868
S2140058E0040BA8B93422307800FB02A241F823202A
S2140058F033780133337019E70133042B01F1580173
S214005900D0D1D9E70133042B01F1A801D7D1E2E7C2
S2140059100133042BE3D1EBE7A3F14102032A3CD881
S214005920601C00F02BFE0646E01C30F02DF801212E
S214005930024630462FF0E4FF64227F4F7F483978D6
S214005940DFF8F0C14A43831886524FF448721A8231
S2140059505A617B4A5D839A65E278A824642A08BF68
S2140059600122784E08BF9A7033785C430CEB040231
S2140059700CF804304FF400745480032414719471AE
S214005980642401FB0400906032200133DBB2013155
S214005990537182F8A0003970ACE7542B7FF4C6AE82
S2140059A000260DF12301A01C8DF823602FF06AFF5E
S2140059B000283FF4BBAE9DF82320002A3FF4B6AE85
S2140059C04FF0640E4FF6FF77DFF86CC15B489CF82B
S2140059D00010DFF860A10EFB01F4031983F86020C5
S2140059E04FF448720753A8241A825A61554F544AF6
S2140059F001FB0E009A653B7801315C430AEB04021A
S214005A000AF8043040F201249060548032200324C7
S214005A100133DBB216719471537182F8A0008CF8D2
S214005A2000103B7082E6542B7FF480AE00230DF10D
S214005A301F01A01C8DF81F302FF024FF00283FF414
S214005A4075AE9DF81F0000283FF470AEDFF800B179
S214005A509BF800600B2E3FF669AE23793A4FC6EBF3
S214005A60C601312B4FEAC60207EB010A785401D073
S214005A70342B1ED10021601D8DF823100DF123015B
S214005A80CDE904322FF0FEFE00283FF44FAE049B13
S214005A90059A312B14BF04230123921B17447B70F5
S214005AA00123BB709DF82330FB7001368BF8006035
S214005AB03CE6322B7FF43AAE08A9601D2FF0E2FEDA
S214005AC000283FF433AE0DF12101E01D2FF0DAFE81
S214005AD000283FF42BAE0DF1220104F109002FF04F
S214005AE0D1FE00283FF422AE0DF1230104F10B0095
S214005AF02FF0C8FE00283FF419AE02238AF80130C2
S214005B0004238AF802309DF820308AF803309DF886
S214005B1021308AF804309DF822308AF805309DF846
S214005B2023308AF80630C0E7D2640020F06F0020E9
S214005B30B01F0020C0210020D1640020D426002001
S214005B40C1530000796400207C640020202B0020D4
S214005B507B640020522B50D16378542B76D10023DF
S214005B600DF12201A01C8DF822302FF08BFE0028AC
S214005B703FF4DCAD9DF8220000283FF4D7ADB54BCE
S214005B801F78052F03D8B44A1678052E04D9214667
S214005B90B24815F0F7FAC9E53C214FF0FF3C7143D7
S214005BA0DFF8C8A24AF801C001EB0A0B01218BF806
S214005BB0041000218BF838008BF806108DF823109F
S214005BC0217959B10DF12301201D2FF05BFEA14B69
S214005BD0A14A18B19DF823108BF839105821794343
S214005BE09F4844184754C6EB06110AEB810101365C
S214005BF00137E16416701F7098E5502B12D1637858
S214005C00542B40F0438100230DF12301A01C8DF896
S214005C1023302FF037FE00283FF488AD9DF8232070
S214005C20904B6DE5572B09D1601C00F0A7FC8E4EFB
S214005C30B060E01C00F0A2FCF06077E5592B78D14C
S214005C40601C2FF0FCFD884B18606FE5413B032B72
S214005C503FF66CADDFF8FCA19AF80030052B96D81D
S214005C607D4E3378052B92D8601C00F087FC00220E
S214005C70114683462FF044FE3C2332787B4F5A432E
S214005C8027F802B04FF0010BB91881F804B0E2789B
S214005C9072B1E01C00F072FC0022114604462FF0A0
S214005CA02FFE3C23327803FB02777C8087F806B011
S214005CB058229AF800306A485A438118835430783C
S214005CC06A4CC0EB001204EB8202CA640133421C29
S214005CD032708AF8003029E54D2B7FF427ADA01CE2
S214005CE02FF0ADFD0021C0B2042828BF04200B46CB
S214005CF04FF0880A8C465E4C5E4F2678DFF888B1F7
S214005D00F2189842D2B205DC00293FF40FAD3044B9
S214005D1020700BE50AFB02FE07EB0E0107F80E20CB
S214005D2081F802C0C1F854B081F858C0013301218F
S214005D30E6E7582B6AD84C2B48D8432B7FF4F6ACB2
S214005D40601C00F01BFC0646E01C00F017FC00225E
S214005D500446114630462FF0D3FD00222046114659
S214005D602FF0CEFD3C203C4F404A3B7800FB03FC26
S214005D7002EB0C0122F80C604FF0010C002681F8B3
S214005D8004C08E7103EB0C01C9B248431452702450
S214005D9002EB000E8EF80660374E981C387030788E
S214005DA0364F4443C3EB0313C1EB011102EB8303ED
S214005DB08EF804C002EB810207EB040C3855013064
S214005DC0CCF80430CCF808203070AFE44D3B0B2BF9
S214005DD03FF6ACAC01A252F823F000BF215E0000F3
S214005DE02D5700002D5700008D5E00002D57000037
S214005DF02D5700002D5700002D5700003D5E000077
S214005E002D5700002D570000635F0000692B7FF4BC
S214005E108DAC601C2FF013FD80B22FF0CCFD85E416
S214005E20174B012019780023164A994202F1A8025E
S214005E307FF77CAC02F8A60C0133F6E70DF12301E0
S214005E40601C2FF01FFD00283FF470AC9DF82390D7
S214005E506CE400BF786400207A640020A31204007B
S214005E60B01F0020D0640020C42600206C24002030
S214005E7077640020901D002075640020841A00209E
S214005E8079640020C0210020000164000DF1220189
S214005E90601C2FF0F7FC00283FF448AC9DF8226009
S214005EA00F2E3FF643AC03342378002B3FF43EAC72
S214005EB04C3B671C0C2B16D8DFE803F0173515078C
S214005EC01515152615151515440038460DF1230130
S214005ED02FF0D8FC38B19DF8232006F178036B44E8
S214005EE003F8502CE71C3C46DEE738460DF123014C
S214005EF02FF0C8FC0028F6D09DF8232006F1780382
S214005F006B4403F8402CEDE738460DF123012FF0E3
S214005F10B9FC0028E7D09DF8232006F178036B44EF
S214005F2003F8302CDEE738460DF123012FF0AAFCEB
S214005F300028D8D09DF8232006F178036B4403F898
S214005F40202CCFE738460DF123012FF09BFC0028CC
S214005F50C9D09DF8232006F178036B4403F8102C73
S214005F60C0E7601C00F00AFB0746E01C00F006FBDA
S214005F700646601D2FF008FD0446024601213846FD
S214005F802FF0BEFC2246304601212FF0B9FC6421DA
S214005F90DFF8C4C16C4B9CF80020DFF8C0E101FBC1
S214005FA002F41F534FF44877181907824761C0F868
S214005FB058E04583501CC0B201FB00FA23F80A6083
S214005FC0942603EB0A0427826761604FC4F858E002
S214005FD06583941C8CF800403C7802FB01326643D3
S214005FE000FB0133DFF878C10CEB060E0CF8064018
S214005FF00134CEF80420CEF808303C70FFF796BB8C
S21400600015F801CB02F8809C02F885CC14F801CB79
S214006010013302F884CC10F801CB02F883CC16F8D2
S21400602001CB02F882CC11F801CB02F881CCFFF745
S214006030A9BA4F790130974284BF0C714C71A831D0
S214006040FFF7C9BA3DB119F8052C02EB420204EB82
S2140060508204C9F808404946404601F0DFFF013592
S21400606008F1A80809F10C09FFF7EDBA18EB0101D1
S2140060700AD0481E05FB0090C07900EB400004EBF8
S214006080800405FB01908460104605FB01710492B4
S21400609001F056FD31782E48414405FB017101F0B0
S2140060A02DFC049A08F101085832FFF7D6BA17EB10
S2140060B0080F18BF11F8052C04911CBF02EB420212
S2140060C004EB8204234A18BF8C6003FB072001F010
S2140060D07FF9049901370C31FFF7CBBA17EB080F9D
S2140060E018BF11F8050C04911EBF00EB400004EB2E
S2140060F080048C600BFB072000F0D6FF0499013764
S2140061000C31FFF7C8BA18EB070F18BF16F8053C96
S21400611031461CBF03EB430304EB83040AFB08B0C1
S21400612018BFB46000F096FE08F101080C36FFF7C1
S214006130C7BA13F8011D00297FF4CCAA3B2102F848
S214006140011CFFF7C7BA00BFD426002076640020E3
S21400615060240020901D0020D1640020C153000060
S214006160D41B002007B5012121200DF1070200F005
S2140061701DFA18B99DF80720024B1A7003B05DF897
S21400618004FB00BFD275002007B5064B8DF807004C
S214006190187001210DF10702212000F017FA03B054
S2140061A05DF804FBD275002007B5022101200DF131
S2140061B0060200F0FBF938B9044814F0E3FFBDF816
S2140061C0060003B05DF804FB0020FAE73B1304006A
S2140061D007B50221ADF806000DF10602012000F019
S2140061E0F5F9014610B1034814F0CCFF03B05DF892
S2140061F004FB00BF5C13040010B5FFF7D5FF044690
S2140062000146074814F0BEFF0121064814F0BAFF05
S21400621024B9BDE810400120FFF7DABF10BD00BF6B
S2140062208C1304009E13040008B5044814F0AAFF5B
S21400623000F0DCF92FF0C3FB2FF0BEFBB413040014
S21400624038B50446084D094B28462B6000F004FA82
S214006250002C18BF21462846BDE8384008BF4FF43A
S21400626096712FF0B6BB00BF242C0020B758030051
S2140062702DE9F043384D91B008AC07468946904664
S2140062800FCD0FC495E80F00002684E80F00012507
S2140062900323324C3248CDE90366CDE905668DF816
S2140062A00E30079602953AF08DFB2E483AF08AFBA0
S2140062B032462D4920468DF8176005F0FBFA334626
S2140062C032462A498DF81900009020468DF8239012
S2140062D0CDF82C808DF8216005F006FB0A9020464C
S2140062E08DF8097005F068FA204608AA05A905F099
S2140062F021FB02AA204603A930F09EFD4FF400724F
S2140063001B4B5A62194BE560626A920510D46BB952
S2140063104FF40072164B11485A6205F04DFA1148B8
S2140063203AF053FB002011B0BDE8F083013BEBE7E9
S214006330002BEDD0094908A830F0B1FD4FF40072EB
S2140063400B4B06485A6205F037FA06483AF03DFB12
S214006350BDF82000E7E700BF48AB04000040005A45
S214006360F0AD0400ECAD040080841E0040420F0037
S2140063700060005A0122034B1870034B1980034B30
S2140063801A707047D46400208C750020D3640020F7
S214006390F8B5454B1B780BB90020F8BD434B1B786E
S2140063A0012B03D1BDE8F8402FF088BA404B1C887B
S2140063B04FF6FF739C42EFD03E483AF003FB0023B3
S2140063C0260AE4B21A462146304605F0B5F9012EF3
S2140063D0354604F0010335D015D9B51E012DDBD89E
S2140063E0002B0BBF4FF480754FF080754FF4706133
S2140063F04FF070610BBF01274FF480370F204FF42A
S21400640070202D4B11E0002B0BBF4FF480754FF022
S21400641080754FF470614FF070610BBF01274FF429
S21400642080370F204FF47020244B1A6802401CD08F
S214006430BA421AD01A680A4032D11A6822EA010211
S2140064402A4316E0002B0BBF4FF480754FF0807583
S2140064504FF470614FF070610BBF01274FF4803727
S2140064600F204FF47020164BDFE71A6822EA00026E
S2140064703A431A602FF022FA054600288CD00836D8
S21400648044EA06102A460321C0B2FFF7F1FE40F6A2
S214006490FF73684300F2FF70B0FBF3F080B27CE756
S2140064A095427FF479AFC8E7D3640020D464002017
S2140064B08C750020F0AD040028C3035020C30350A1
S2140064C024C3035010B5044C237823B903483AF08C
S2140064D079FA0123237010BDD6640020F0AD0400C5
S2140064E02DE9F0431F4C85B0074688469146FFF7D6
S2140064F0E9FF23781BB902F0CFFD012323707BBA96
S214006500ADF80C3030220023174E02FB03F4315D49
S214006510A51901BB012333554FF0FF3304F11000DA
S21400652012493044AB606F80C5F80480C5F80C9003
S2140065300AF044F804F10801042231440C4B00959B
S21400654003A802F07FFEA96802460A4814F01AFE65
S21400655005B0BDE8F0830133102BD6D1064814F001
S21400656011FEF5E7D56400204C2C0020E15803000E
S214006570F3580300C1130400EF13040080B102783F
S214006580A2F14103032B0BD840783038C0B208285C
S21400659006D8054B134413F8413C40EA03207047E5
S2140065A04FF6FF70704700BF68AB040008B50B4697
S2140065B042B101460448006803F088FFBDE8084081
S2140065C02FF0F3B9022008BD5C70002008B50B461A
S2140065D042B101460448006804F000F9BDE80840EE
S2140065E02FF0E3B9022008BD5C700020F0B500264D
S2140065F0124F8DB0FF2300930A223346386802A953
S21400660030F0D7F9C0B102AB1D4603EB800404E0BE
S21400661055F8043BB34228BF5E1CAC423868E9D943
S214006620296804F061FA0028F2D02D28F0D00DB0C9
S214006630BDE8F0402FF0B9B90DB0F0BD5C70002099
S21400664028B1034B0360034B43600023836070470D
S2140066501900000304700020FF2307B50021044A38
S2140066600093083009F02EFF03B05DF804FB00BF6E
S214006670CD5903000B4604490246086803490978C9
S21400668008B12FF0C3B97047582F0020D8640020F7
S214006690F7B50C4618B1292119483AF0EAF92468EA
S2140066A023685E795F8830463946FFF7E3FFF0B12E
S2140066B08568E5B1A089227D3946904291BF0020C9
S2140066C0801AA36880B294BF03469B18E27C0090B1
S2140066D03046A8470138032803D8DFE800F0080F43
S2140066E00B0D0024204633F0D4FC204600E0812029
S2140066F003B0F0BD8024F5E79324F3E78724F1E7A1
S21400670017140400F8B515460D4A044610680D4ADD
S2140067100B46117850B122462FF078F9034628B17F
S21400672000210C27C678B14201DB0020F8BD07FB2C
S21400673001F45A681019125BAA42F7D00131F2E749
S214006740582F0020D864002008B5034B1B6803B1FF
S2140067509847002008BD00BF542F00202DE9F74FB2
S21400676004460D460026454B454F1860454B1970AC
S21400677033010021F85C013610F0FAFC0C2EF7D13C
S2140067800C2D28BF0C254FF0000901953C4EDFF874
S21400679000A13D4DDFF8FC80019B4B4502DC03B0B9
S2140067A0BDE8F08F23784FF0000B3370638873805A
S2140067B0A388B380A379C6F80880B371E379C8F8D4
S2140067C0005088F804304FF00003A768A8F8063099
S2140067D0E3795B450ADC012116F8100B10F0C8FCC3
S2140067E008F1080809F101090C34D5E74FF0000359
S2140067F038886B812880FB784FF0000C2B81BA78A4
S214006800C5F804A0002A00920CBF802240222A73FA
S21400681079680AF10C02634513DC03EB43030AEBC9
S214006820830ABB6843B1009A4FF6FF71B2FA82F250
S214006830164B520933F0BDFB14350BF1010B0C3728
S214006840C6E7B1F800E00CF1010C22F80CEC91F868
S21400685002E00C3202F816EC91F804E00C3102F873
S21400686015EC11F809ECBEF1010F14BF4FF0100E35
S2140068704FF0110E02F814ECCDE700BF582F0020A1
S2140068808C460020D86400205C350020916600000D
S2140068905C2F0020DC370020014B1860704700BFDB
S2140068A0502F002070B5128805460E46FFF72AFFC7
S2140068B0044670B102790499806815F0C7FD064B4E
S2140068C01B680BB9002070BD3146284622889847C1
S2140068D0F8E78620F7E700BF502F002008B50FF036
S2140068E0E3FC022806D0012806D0044B18784000A6
S2140068F0C0B208BD0120FCE70220FAE7D7640020FA
S214006900054B10B51C682CB1FFF7E8FF2346BDE821
S2140069101040184710BD00BF4C2F0020014B1860D8
S214006920704700BF4C2F0020034B1A781AB901227B
S2140069301A700BF0BFBC7047D76400200022024BD1
S2140069401A70FFF7DDBF00BFD764002037B50446D6
S214006950002836D00FF0A8FC022834D1608933F026
S21400696015FFE079237A003818BF0120012B637ADF
S21400697008BF40F008000BB140F0100063890BB16F
S21400698040F00400257CA188A2790DB1E36893B994
S2140069900F4B10F0C9FF2178084611F041F833F08C
S2140069A001FA044610F0FAFF7CB100280CBF002064
S2140069B0032003B030BDCDE90035064B10F0B4FF20
S2140069C0E9E70220F5E70120F3E72046F1E700BFFC
S2140069D03B6204003E31040008B50DF0C9FD0146D7
S2140069E030B1044814F0CEFBBDE808400EF064B9A0
S2140069F008BD00BF89140400034B044A5B7C0121D8
S214006A0003201370FFF7E2BDF06F0020D96400206A
S214006A1038B50446FFF7F0FFB4F57F4F0AD10025DE
S214006A201B4B1A8813449D70FEF7D0FB2846FFF7D1
S214006A3007FC06E04FF601739C4207D115482EF07E
S214006A4086FE2046BDE8384000F0A0BE4FF6027332
S214006A509C4204D1104B1878FFF796FBF1E74FF6EF
S214006A6011739C4207D100250C4B1A8813449D7065
S214006A70FEF700FCDAE74FF616739C42E1D10025DC
S214006A80074B1A8813449D70FEF730FCCEE700BF14
S214006A908C5C0020F06F0020D27500200A5C00207D
S214006AA0885B002010B5074C012122460320FFF723
S214006AB07DFD28B92378044A003B18BF0123537490
S214006AC010BD00BFD9640020F06F0020F8B5664BFB
S214006AD032251A884FF6FF739A4218BF03234FF0E9
S214006AE008020C46614918BF0B70614B1A703022C1
S214006AF05D70DD7036259A705A71DA7134221D7118
S214006B0039251A724FF400129D715A4D4264C564BD
S214006B10594D01220565594D86188565584DC6673D
S214006B20C565584D584E4566584D80F848208566D0
S214006B30574D80F854200567564D80F8602045670D
S214006B40202580F8785080F8845000F12105C0F8A0
S214006B508850514D80F86C20C0F88C50C0F880608A
S214006B6080F89020C0F89410C0F8B8304B4B4C49D1
S214006B70C0F8BC300223C0F898104A4980F8C030EC
S214006B80C0F8A4100F21484B80F8A810C0F8C430F5
S214006B90464B4749C0F8C8308223C0F8AC10454978
S214006BA080F8CC30C0F8B0100921434B434DC0F8F4
S214006BB0D030434B80F89C20C0F8D430414BC0F80E
S214006BC0A000C0F8DC302B7C80F8B41080F8D82009
S214006BD0002B45D00E213C4B80F8E420C0F8E03076
S214006BE005F11103C0F8E8300C2303FB0102374E11
S214006BF001FB033356648226354F82F84860D7641B
S214006C00344A03445A64344A83F8486000F144071F
S214006C108E1CDA643146384600F08CFD4FF0000ECC
S214006C20E279A16802EB42034FEA830C21F80CE0FC
S214006C3001EB8303012130440A44D8705F609970E9
S214006C40E271FFF78FFAFFF72DFFFFF747FE0128E7
S214006C5008D12B7C33B1BDE8F84018482EF077BD3C
S214006C600D21C1E7F8BD00BF84750020D375002054
S214006C70DA64002081AB04000100200080AB040031
S214006C80020020007FAB0400050042000300200045
S214006C907EAB04000400420007003000FDFF210028
S214006CA012001001004042007CAB040000FF4401CB
S214006CB06CAB0400060042008C5C0020F06F0020E5
S214006CC002FF2001D275002001FF100111FF4401D0
S214006CD00A5C002016FF4401885B002013B50446BA
S214006CE00D482EF098FC6422C0F30F43637083B205
S214006CF0B3FBF2F3A0782370202201212EF0A8FE29
S214006D00A078212201212EF0A3FE0449201D02B006
S214006D10BDE810402EF05DBE84750020E0930400B0
S214006D200B7870B583704CF61E0303804FF020136B
S214006D30C362012380F8303080F83C30C318036407
S214006D40124B044643640223114A80F84830114B24
S214006D508263C3644063CA798D6802EB420305EB25
S214006D60830004F12C0646600B4E45F82360002392
S214006D708360531CCB71094B201DC4E90134FFF717
S214006D806BFC2046BDE87040FFF7A8BFFDFF210062
S214006D902100200082AB040001000103DD6C00002E
S214006DA0437B044A0121137000781230C0B2FFF70B
S214006DB00DBC00BFE464002038B504460078054DDD
S214006DC012302A460121C0B2FFF7F0FB08B92B7833
S214006DD0637338BDE4640020024B53F820002EF0A5
S214006DE0FEBE00BF3C380020012908B506D00229A7
S214006DF007D049B92EF0EAFE002008BD2EF0E9FEC5
S214006E00FAE72EF0E9FEF7E7024814F0BBF9012096
S214006E10F3E700BFB614040010B4054C114654F84E
S214006E2020001A46BDF804305DF8044BFFF7DCBFBF
S214006E303C380020002310B5044683810364A0F884
S214006E4044304830FFF708FC014BC4E9123410BD4B
S214006E50C55B030038B504460B781A4A43700D46E6
S214006E6042F82300FFF7E6FF2046FFF7A5FF4FF4A2
S214006E70401323610123144A2375A261134A84F840
S214006E802030E261124A84F82C306262114A84F89B
S214006E903830A26204F10C0222630F4A04F10D039B
S214006EA06263E363EA79A86802EB420300EB8301BE
S214006EB010344C60094C40F82340094B8B60531C3F
S214006EC0EB7138BD3C380020E36400200800200049
S214006ED0D475002000FF300001FF100102010104FC
S214006EE0196E000010B47024427B0D48013A012947
S214006EF004FB020006D0022908D059B95DF8044BFD
S214006F002EF064BE5DF8044B2EF063BE5DF8044BB5
S214006F102EF062BE03485DF8044B14F033B900BF90
S214006F20841A0020D2140400B0F85C302DE9F04139
S214006F308B4204460E4638D0437B077C8BB31C4AF4
S214006F4012789A422DD370251A4A013B05FB03237B
S214006F5090F80F801B7B42462EF04FFEB845054644
S214006F6001D1FF281FD13A463146204694F890308A
S214006F702EF043FE2F460546552212216078A4F8CF
S214006F805C602EF065FDFF2F03D039462046FFF7E4
S214006F90A9FFFF2D09D029462046BDE8F0412EF076
S214006FA06CBEFF25DFE70746E6E7BDE8F08100BFD9
S214006FB075640020841A002041688268C978D278F7
S214006FC049B112B10321FFF7AFBF837B002B0CBF83
S214006FD001210221F7E72AB1837B002B0CBF022197
S214006FE00121F0E7014814F0CDB800BFE314040017
S214006FF0037BD3B14368DA7812B18268D278A2B93B
S2140070001B7933B1837B002B0CBF04210521FFF7CE
S2140070108BBF83681B792BB1837B002B0CBF0521AC
S2140070200421F4E7014814F0ADB8704715150400C4
S214007030084A437B05211370837B5370C37B937090
S214007040037CD370037B137100780F30C0B2FFF758
S214007050BDBA00BFE564002038B5044600780C4D84
S2140070600F302A460521C0B2FFF7A0FA20B1BDE8CE
S2140070703840084814F086B82B7863736B78A3738F
S214007080AB78E373EB7823742B79237338BD00BF9A
S214007090E564002051150400024B53F820002EF042
S2140070A036BE00BF64380020F8B504460B78424A66
S2140070B043700D4642F82300404E2EF046FEFFF782
S2140070C0CBFF6268A3683E483E49D6641165D46526
S2140070D05065C3E91410DE64DC654FF09873022631
S2140070E06361012304F10C01E1613749103221622A
S2140070F004F10D01A16235492376E16204F10E0127
S2140071006163334984F82430A16304F10F012164DC
S214007110304984F83030616404F11001E1642E498E
S21400712084F83C3084F84830216584F85460A265C1
S214007130E879A96800EB400201EB820704F1140C21
S214007140C7F804C04FF4817C244F41F82270C2185F
S214007150D2B202EB420241F822C001EB82070022C3
S2140071607A601F4A84F8703022661E4A84F8883097
S214007170A2661D4A1D4BE2661D4AC4F88C30626743
S2140071801C4A8319A26704F15C02C4F88020DBB2B3
S214007190194A03EB4303C4F8842084F8646084F837
S2140071A07C6001EB830260345460144A033041F87B
S2140071B02320E871F8BD00BF64380020B96F0000D6
S2140071C0D15C0300F16F00000100200102001001F5
S2140071D003003001040030010500210101FC010616
S2140071E04A00210084AB04005100100086AB040066
S2140071F087AB0400550021006F0018001200010440
S2140072002DE9F84F06460F4690469946244D05F15F
S214007210280A55F804BBBBF1000F16D0012F18D171
S21400722058462EF00BFEB0420FD1B9F1000F0CD02D
S21400723098F800300022003B18BF012306218BF887
S21400724058309BF801002EF003FC5545E1D1BDE80F
S214007250F88F022FF9D158462EF08EFDB042F4D1A9
S21400726000231C4606E0042B07D018F80320013341
S21400727042EA04249AB29145F5D8B4F57A7F4FF0E5
S214007280FE0328BF4FF47A745C434FF47A7304F518
S214007290FA74B4FBF3F4002208218BF85440D0E7CC
S2140072A08C38002073B516463349052EBDF81820D5
S2140072B051F8204030D0072E51D0042E57D1002B45
S2140072C057D0002A55D01D7820462A1E18BF012206
S2140072D084F8545084F858202EF0B0FD01238DF821
S2140072E00420194601AA01F0ADF920462EF044FD0F
S2140072F04FF47A730446FE205D437F3501A9B5FB43
S214007300F0F02EF032FD0A4633460221204601F008
S21400731099F9002002B070BD5BB3012A29D91B7809
S2140073200125B3FA83F2520984F8842094F8582091
S21400733084F8855013430BD120462EF07FFD294656
S2140073402B4601AA8DF8045001F07CF984F85850B9
S2140073504FF4967104F15C002EF03BFBD9E7002356
S21400736004F15C0084F885302EF038FBD1E701206C
S214007370D0E70320CEE700BF8C380020134B022A4C
S21400738007B553F8200018D002D82AB9002204E026
S214007390402AFBD0412A16D1012280F858202EF030
S2140073A04DFD01238DF8072019460DF1070201F067
S2140073B049F9002003B05DF804FB90F85820B2FAB3
S2140073C082F25209E9E70120F4E700BF8C3800207A
S2140073D0F7B504460B78544A437042F82300534BE3
S2140073E00D46C0E917305C30FFF736F904F1580255
S2140073F062614F4A4FF48013A261A21C22624FF4CE
S2140074000012626204F15402E2624A4AE3602263B6
S21400741004F15502A263484A0123E26304F15602CE
S214007420626400204FF098722374237784F8283023
S21400743084F8343084F8403084F84C3004F1570334
S21400744084F88500A2642365E979AB6801EB410204
S21400745003EB820604F10C077760384F43F822707E
S214007460374A04F12407B2604A1CD2B202EB420249
S21400747003EB82067760334F43F82270324A04F1FA
S2140074803007B2608A1CD2B202EB420203EB8206DD
S21400749077602E4F43F82270CA1CD2B202EB42022B
S2140074A0B06004F1480703EB82067760284F04318A
S2140074B043F82270B060E971264801F0EDF8A5792E
S2140074C08DB14FF47A72FE2094F8553001A95343DB
S2140074D07F33B3FBF0F02EF048FC0A46042302216B
S2140074E0284601F0AFF8E5798DB14FF47A72FE20A8
S2140074F094F8563001A953437F33B3FBF0F02EF0D7
S21400750034FC0A4604230221284601F09BF86079E1
S21400751040B194F8573004218DF8043001AA0123B5
S21400752001F090F803B0F0BD8C380020915D0300A8
S2140075300340300110002001110020010600010266
S2140075407D73000008000101A5720000010301021E
S2140075500700010101720000024B53F820002EF0D4
S21400756076BC00BF8C380020F0B51E4C002527786E
S2140075700A24DFF880C0EEB2B74207D905FB044EF6
S2140075801CF80EE06E1C864507D142B9164C2468DE
S21400759034B3A446BDE8F04060473546EBE71348F1
S2140075A004FB05014C79012C0DD1CBB113788B71FE
S2140075B00A2303FB0500BDE8F0400D4B428800217E
S2140075C018782EF045BA042C0AD1032B08D9D378A4
S2140075D08B719378CB7153780B7213784B72E7E705
S2140075E0F0BD00BFEB640020B83800200E5D002020
S2140075F00C170020045D002010B5094C237853B109
S2140076002EF0F0F9074B1B68C01A40F6B7339842C5
S21400761003D900232370002010BD0120FCE700BF23
S214007620EA640020B43800202DE9F04F0024DFF88B
S21400763000818946064685B088F8004000286ED04E
S214007640A346A7B2B94502D0F35D3B2B4DD15F45AB
S21400765048D998F800500B2D44D800238DF80E30EA
S2140076608DF80F30A4EB0B03DBB2052B52D106EBE3
S2140076700B0A50460DF10E012EF042FC002849D0B0
S2140076809DF80E200192002A44D00DF10F010AF158
S21400769003002EF035FC00283CD00A216943214B1C
S2140076A0019A58185A549DF80F2062F0FF02428043
S2140076B09AF80220452A24D0562A26D0422A29D1D2
S2140076C001224FF0100C01204FF00A0E0EFB053180
S2140076D04A700022013581F804C04871C1F80620BE
S2140076E088F8005001371FFA87FB0134A3B299458A
S2140076F0A7D298F800100C4805B0BDE8F04F13F07C
S21400770041BD04224FF0300CDDE702224FF0230C7F
S2140077100420D9E75946054813F034FDE2E705B0E2
S214007720BDE8F08F0E5D00209B1504008015040058
S214007730EB64002070B500240126124B01EB4101DA
S2140077401D78114B00EB8101E0B2854203F10A027D
S21400775001F10C0101D8284670BD32F8080C06333A
S21400776021F80C0C12F8060C01F8096C01F80A0C4A
S21400777012F8050C013441F8043C01F8080C1346D5
S214007780E2E700BFEB6400200E5D002073B5194BE6
S21400779000221D78184B1C46D1B28D4202D800201C
S2140077A002B070BD5E88511CB04203F10A0313D1CB
S2140077B00A2101FB02414B798879012B0ED18DF805
S2140077C004000A2101FB02F021184978205C01AA76
S2140077D000F038FF0120E3E70A46DDE74D7A8DF832
S2140077E007008DF804500D7AC9798DF805508DF88C
S2140077F00610E6E7EB6400200E5D002008B5064B99
S2140078001B7843B100F04EFF044B18600448BDE8F7
S214007810084000F041BF08BDEB640020B8380020E7
S2140078206975000010B50A4B1B7883B10122094B1D
S2140078301A702EF0D7F8084B186000F059FEBDE815
S2140078401040002301461A46282000F0ADBE10BDA9
S214007850EB640020EA640020B438002070B50E46C1
S2140078601346054614460A460146204813F08AFC8D
S2140078700A2E09D80A2E12D8DFE806F012111111C6
S2140078801111271711112C0040F201339E4210D01F
S2140078904FF601439E4212D0B6F5817F1FD070BDD1
S2140078A02046BDE87040FFF7B3B82146284600F0F2
S2140078B079FB21462846BDE87040FFF74DBE2146BD
S2140078C02846BDE87040FFF7E7BB2146284600F093
S2140078D0F1F8EEE72046BDE8704000F05FBC2146B8
S2140078E02846BDE87040FFF777BA00BFBD15040014
S2140078F00148FEF7D1BF00BF5D7800004FF4C0130B
S21400790030B5036001230371074B8C688360CA7926
S21400791002EB420304EB83056860044844F8230046
S214007920531CCB7130BD00BF88AB040004000101BE
S21400793038B50024044D55F8040B08B12EF0F3FAC0
S21400794001340A2CF7D138BDBC380020042908B50C
S2140079500AD172B16BB113781BB92EF00FFB002061
S21400796008BD2EF001FBFAE7034813F00BFC0120DC
S214007970F6E70320F4E700BFF015040010B4054C4A
S214007980114654F820001A46BDF804305DF8044B42
S214007990FFF7DCBFBC3800200229024608B50ED02F
S2140079A004D839B910462EF0E9FA06E04029F9D095
S2140079B0412907D110462EF0D7FA002008BD2EF038
S2140079C0E7FAFAE7024813F0DDFB0120F6E700BF0E
S2140079D01016040010B4054C114654F820001A4640
S2140079E0BDF804305DF8044BFFF7D6BFBC38002066
S2140079F0C26C094B52791A7082785A70C2789A70A3
S214007A00026D12B190F85420DA7000780421093023
S214007A10014AC0B2FEF7DABDEC64002037B50D4669
S214007A200446002841D04FF60273994201D12EF049
S214007A307AFAE36CABB193F8382092B144F20302C1
S214007A4095421AD11A4B187858B1A37813B1012B66
S214007A5018BF02238DF804300421012301AA00F088
S214007A60F1FDE378022B02D020462EF05CFA204689
S214007A7003B0BDE83040FFF7BBBF44F201029542B9
S214007A80EFD193F839000028EBD00A22B4F856302C
S214007A900221B3FBF2F35BBA0022ADF806300423F2
S214007AA0ADF804200DEB0302D9E703B030BD00BFEC
S214007AB0D0640020024B53F82000FFF7AFBF00BF92
S214007AC0BC38002038B504460078084D09302A46F0
S214007AD00421C0B2FEF76AFD30B96B78A370AB78AC
S214007AE0E370EB7884F8543038BD00BFEC640020B7
S214007AF038B504460078114D09302A460421C0B234
S214007B00FEF754FDC8B9A3782A78022B0CD004D807
S214007B1063B920462EF032FA01E0FF2B0AD0204649
S214007B20BDE838402EF0FFB9002AF2D120462EF0EC
S214007B301BFAF4E7002AF9D1EBE738BDEC64002025
S214007B40F8B504460B78324A0D4642F823004370D7
S214007B50FFF7B8FFE36C2F4A5C631A632046FFF713
S214007B60C7FF20462EF0DFF94FF480136360012331
S214007B70E26C2372511DE160274923752161A11C27
S214007B80A161216D002941D084F8203084F82C3082
S214007B9004F15403236304232049E161E11C61627C
S214007BA01F49A16292B192F839207AB11D4903EBC0
S214007BB0430204EB82025160022111720C2202FB86
S214007BC0034204F156010133D160DBB20627E9799E
S214007BD0A86801EB410200EB820620F82270F370E1
S214007BE00123B370104B0434B3604B1C7460DBB2DB
S214007BF00E4C03EB430340F8234000EB83020023C4
S214007C0053600B4B02319360E971F8BD0223C9E75C
S214007C10BC380020A55F03000340300101FF30019F
S214007C2002FF100101402101D57900000800010083
S214007C307D79000028B1034B1B78834234BF0020B7
S214007C40012070477864002070B500250A4C0B4E62
S214007C503378AB4200DC70BDD4F8A42042B123795F
S214007C601BB16079FFF7E6FF10B910462DF060FDF6
S214007C700135A834ECE700BFC0210020796400205D
S214007C8008B5427901461046FFF7D4FFB0B1CB786D
S214007C9058210B48013A042B01FB02000ED8012B99
S214007CA008D81BB9BDE808402EF05EB9BDE808400C
S214007CB02EF064B9BDE808402EF06AB908BD00BFD2
S214007CC0B01F002008B5427901461046FFF7B2FF04
S214007CD0B0B1CB7858210B48013A042B01FB0200C7
S214007CE00ED8012B08D81BB9BDE808402EF046B9BF
S214007CF0BDE808402EF038B9BDE808402EF048B977
S214007D0008BD00BFB01F002010B586B00446FEF7C1
S214007D10E5FD012831D1E17804292ED8DFE801F00D
S214007D2014333503030062791046FFF783FF60B310
S214007D305820174B013A00FB0233DB6C03295879B5
S214007D401DD1003818BF012063784FF480728DF87B
S214007D5004304FF48273ADF806300623ADF80830D1
S214007D6001238DF80B3000238DF80A0001A8CDE919
S214007D7003238DF81430FEF7E9FD06B010BDB0FA07
S214007D8080F04009E0E70020DEE70220DCE700BFE5
S214007D90B01F002010B586B00446FEF79FFD0128F0
S214007DA031D1E278042A2ED8DFE802F01414330327
S214007DB0030061790846FFF73DFF50B35820164B85
S214007DC0013900FB0133DB6C032A5B791DD11A1ED7
S214007DD018BF012263788DF80A208DF804304FF41E
S214007DE08273ADF806300623ADF8083001234FF451
S214007DF080728DF80B30002301A8CDE903238DF89F
S214007E001430FEF7A3FD06B010BDB3FA83F2520994
S214007E10E0E70222DEE700BFB01F002010B586B004
S214007E200446FEF75BFD012812D16378094A8DF8F7
S214007E3004304FF48273ADF806304FF48073CDE90A
S214007E400223002301A804938DF81430FEF77EFD6C
S214007E5006B010BD0800070110B586B00446FEF750
S214007E603DFD012820D16278104B8DF804204FF498
S214007E70827294F8A01094F8A10059701870ADF8AA
S214007E80062004934FF480720223094901A88DF856
S214007E901430CDE90212FEF759FD94F8A130013BEB
S214007EA018BF012384F8A13006B010BDF06400208E
S214007EB00800050110B5837804460BB30379022B3E
S214007EC00BD142791046FFF7B5FE30B158200D4B66
S214007ED0013A00FB02302EF05BF8A379022B02D1A8
S214007EE02046FFF711FF2046FFF7B6FF0223607813
S214007EF0A4F86C305522BDE8104012212DF0A8BD24
S214007F0010BD00BFB01F00204388094A0821138017
S214007F108388538083681B8A938090F8A03093717F
S214007F208379D37100780430C0B2FEF74FBB00BF30
S214007F30865D002038B50D46044650B1836843B1CF
S214007F4093F860302BB14FF60173994204BF0023BB
S214007F5003712178114813F015F94FF602739D420C
S214007F600ED10F4B1B782BB963712046BDE8384005
S214007F70FFF7CABF62790AB19342F6D20123F3E74C
S214007F80B5F57F4FF1D120462EF088F8A378022B66
S214007F900CBF01220022A3689A70E6E72C160400A4
S214007FA078640020024B53F82000FFF7C3BF00BFE1
S214007FB0E438002038B504460078144D04302A46CC
S214007FC00821C0B2FEF7F2FA20B1BDE838401048EA
S214007FD013F0D8B82B8863806B88E978A380AA88CA
S214007FE0A3681A82AB7984F8A030EB79A371094BA9
S214007FF01B780BB9637138BD09B19942FBD90648A5
S21400800013F0C0F823780133F4E700BF865D002044
S21400801046160400786400206F160400F8B504467F
S2140080200B784A4A0D4642F823004370FFF7C2FF1A
S214008030A26822B192F860300BB100232371444B42
S214008040D465D364434B02265365434BA11C13658A
S2140080504FF44013E36001236161E1623F4910324F
S21400806021632265211D3E4AA1633E483E49626562
S21400807004F1A002A061E163E265E01C611D3B4AD9
S214008080206261643A483B492266A21D2374237726
S21400809084F8283084F8343084F84030A16484F8BA
S2140080A04C6084F8583084F864306062A266E879E0
S2140080B0AA6800EB400102EB810704F10C0CC7F83C
S2140080C004C04FF0060C2C4F42F82170C118C9B2FC
S2140080D001EB410142F821C002EB810700217960E3
S2140080E0264F84F880302767254F84F89830A76796
S2140080F0244F254BE767254F84F8746084F88C601E
S214008100C4F89C3004F16C06831CC4F88470C4F870
S21400811090601F4F1F4EDBB203EB4303C4F894601E
S214008120C4F8887002EB83067034746008261A4C14
S21400813042F82340C31CDBB203EB430302EB830489
S214008140043042F823606160E871F8BDE43800202E
S214008150F35F03003D600300B57E000001FF3001C1
S21400816004FF20011000300102FF200105FF30014E
S21400817000FF300103FF2101070001084A0021002B
S2140081808AAB0400510010008CAB04008DAB0400D9
S214008190550021006F0018001200010410B508B148
S2140081A0072811D1094C236873B1094A13602DF0D2
S2140081B019FC0222074B21681860074B07481A7003
S2140081C0BDE8104012F0DEBF10BD00BF1839002019
S2140081D0103900200C390020F2640020A416040098
S2140081E010B5084C206860B12DF0FCFB064B2268E9
S2140081F01B68C01A4FF47A73B0FBF3F0034B1344BA
S214008200184410BD103900200C39002080436D380A
S2140082104FF0F17330B503600423114A03710377FE
S2140082208260104B104A0362C260104B0122436208
S214008230022302740E4A80F8283042610D4B0E4A23
S214008240C3628261CA798C6802EB420304EB830541
S21400825068600A4844F82300531CCB7130BD00BF49
S214008260183900201439002001001800FDFF2100F5
S214008270F26400208EAB0400070023010A0001040C
S21400828001292DE9F0470546894616461F460AD1BC
S2140082904AB1002B3ED0324B324A1C78104600239F
S2140082A0D9B28C4202D84FF000080CE092F8381091
S2140082B069B3A9422BD13C22317802FB03002DF092
S2140082C099FA4FF0010800F021F990B9FFF794F9F8
S2140082D0044670B92DF086FB234A244912F8013B68
S2140082E09D4219D151F82430984215D2002341F806
S2140082F02430B8F1000F31D11D4B1C6874B33B46D7
S214008300324649462846A446BDE8F0476047013352
S2140083103C32C5E79846D6E70134042CDED1154B2F
S21400832000241978144B9A46E2B29142E1D993F8A8
S214008330602082B1AA420ED1642505FB04A2D36C4C
S2140083400BB1D06D984705FB04A56B6D33B1E86D96
S214008350BDE8F047184701346433E5E7BDE8F08729
S2140083607A6400206C240020F36400201C3900206E
S2140083702C390020D1640020D42600202DE9F341BA
S214008380003918BF012104468DF807102DF02AFB8E
S2140083900022144D144980461346AE460E4615F884
S2140083A0017B5FFA82FCBC4219D051F8047B56F878
S2140083B023000132874238BF6346042AEFD108F50E
S2140083C02F7046F823000EF8034001232046194676
S2140083D00DF1070200F036F902B0BDE8F081634601
S2140083E0EDE700BFF36400201C39002010B5124BE7
S2140083F0124A1C7800231846D9B28C420BD8104B70
S214008400104A1C780023D9B28C420CD80E4B1B782D
S2140084101844C0B210BD92F8381009B10130C0B28D
S21400842001333C32E8E792F8601009B10130C0B27F
S21400843001336432E7E700BF7A6400206C24002032
S214008440D1640020D42600207B64002070B5002470
S214008450094E0A4D3378E0B2834200D870BDC0EBB7
S214008460C0002918C21C8B78285C49782A4400F082
S214008470E9F80134EEE700BF7B6400207C6400204E
S21400848008B5FFF7B3FF58B1064B074A1A6000F06D
S21400849009F9064B18600648BDE8084000F0FCB82D
S2140084A008BD00BF841600207D8300002C39002004
S2140084B08182000038B505460A4C10B100232370AF
S2140084C038BD23780133DBB2022B2370F8D9064877
S2140084D012F058FE25702DF08DFABDE8384003489E
S2140084E02DF087BA38650020C516040038390020FC
S2140084F04FF6EF73044A108898428EBF0023431C41
S2140085009BB21380704700BF905D0020014B187827
S214008510704700BF376500202DE9F04188B08046DF
S2140085200F461646002115220DF109001D4613F0D0
S2140085303BFF4FF6EF72114B31461C8803A894425E
S214008540ADF804408EBF00240134A4B21C8004237E
S2140085502A468DF806308DF807808DF80870ADF83D
S2140085600A5014F0B1F8109BBDF83C200E9901A8F3
S2140085702DF0ACFD08B0BDE8F08100BF905D002096
S21400858038B5044618B10FC8054D85E80F002046DB
S2140085902DF02FFA0122034B00201A7038BD00BFC1
S2140085A0383900203965002070B51C46244B0D462E
S2140085B01B7811468CB0002B3FD0202C3DD84AF6B5
S2140085C05523ADF8003002238DF804508DF80230A4
S2140085D02B0A002522468DF8050002A88DF80330E8
S2140085E08DF807408DF8065014F06EF804F1080078
S2140085F004F109012B466C462A4686B289B214F865
S214008600015B013292B22B449642DBB2F7D800F1FE
S21400861030020DEB020000F8303C002268462DF0D8
S214008620ECF90446B0FA80F04009FFF743FF201E3D
S21400863018BF012040420CB070BD4FF0FF30FAE783
S2140086403965002010B5134C96B02478F4B1002498
S214008650ADF816400DF1160402944024019406ACC1
S2140086600094FFF759FF78B90246BDF81610204669
S2140086702DF0C3F90446B0FA80F04009FFF71AFF60
S214008680201E18BF0120404216B010BD4FF0FF302C
S214008690FAE700BF39650020014B1860704700BF3D
S2140086A034390020014B1868704700BF3439002069
S2140086B0014B1860704700BF303900202DE9F043A9
S2140086C03E4B89B01B78002B75D03D4E3D4C338811
S2140086D03F2B02D82DF08FF9D8B93A4F07F1010891
S2140086E03488012C67D93B78552B27D17B78AA2B69
S2140086F024D1072C5FD9FD886DBA0935ADB2402D5F
S21400870024D93149023C2246881E13F09FFE34804D
S214008710E6E70023308801AAC0F1400189B2204470
S214008720ADF804302DF06DF90028D6D1BDF8043030
S2140087303288002BD1D013443380C8E7621E92B231
S21400874041462048328013F081FEC9E7AC4232D35E
S214008750294601AA38462DF017FD8146641B22469D
S2140087603846791913F072FE3480B9F1000FB7D18C
S2140087709DF80600431F012B12D8431F584258414C
S214008780124B134C1D6820703DB1BDF80A309DF8A1
S21400879008109DF8070003AAA847002323709FE748
S2140087A00C4B1C68002C9BD0BDF80A30BDF804109A
S2140087B003AAA04794E709B0BDE8F0833965002016
S2140087C08E5D0020F7640020F96400203439002014
S2140087D0376500203039002000239B6AB3F5804FB0
S2140087E003D21968064A914203D0002303708360BF
S2140087F07047012202709A689B694260F7E700BFE3
S21400880007B0CD5E024B034A1A602FF02DB900BFA9
S2140088100000002002020FF073B53F4B04461A78A2
S2140088201AB102221A7002B070BDCDE900220028EB
S214008830F9D001261E7038F027F8384D384B1860EE
S21400884017F082FA2B785BB902F0F2F940B9354896
S2140088500823354A3549006801F038FE00B92E7005
S214008860334B5A68E260334A9A601A6E22605A6E38
S2140088706260D3F87021A2601B6E5C042CD52E4A71
S214008880D368D807FCD42D4B1A68531C29D04FF454
S214008890801393402A4A13660423294C4FF08042E3
S2140088A023664FF480632366102323664FF4005339
S2140088B06846236601A9226663662DF0C9FC009B04
S2140088C02366019B63662B78002BACD0164B1A6888
S2140088D022665B686366A6E71A4AD368D907FCD4A3
S2140088E0D1E7194B1B78002BD6D1184B5A68144B7E
S2140088F012B94FF480121A66154A526812B94FF42C
S21400890000121A66134B5B68002BC5D14FF4800229
S2140089100B4B1A66C0E700BF3B6500203C65002095
S214008920583900205C7000205C3900200071080077
S2140089300080004455CEAC000000044028700020A3
S21400894000900044000004503A6500200080055066
S21400895000C005500000065038B5224D04462B785E
S214008960012B02D001232B7038BD0028FCD02DF03F
S21400897094FC013009D02DF090FC40F2011398428F
S21400898003D0194AD368DB07FCD42268174B1A6653
S21400899062685A66A268C3F87021E268D40744BFCA
S2140089A000229A60124B1A68013213D1114A1278CB
S2140089B082B911494968C80748BF1A600F4A526809
S2140089C0D10744BF01221A600D4A5268D20744BF3D
S2140089D002221A6017F0C0F90A4B186837F04FFFEA
S2140089E00023C0E73B6500200000044000800044F0
S2140089F0287000203A6500200080055000C0055011
S214008A00000006505839002070B50024A36AB3F55C
S214008A10804F23D21A68134B9A421FD1124E3378D6
S214008A2013F0FD0518D14FF480341048FFF7F4FE1C
S214008A30032004F04FFC0E4B0320DC6004F02EFCF9
S214008A400C4B1C61AB6ADB69984704460748FFF786
S214008A5083FF0CB901233370204670BD4FF4817438
S214008A60FAE700BF07B0CD5E3A650020483900201F
S214008A7000A000440090004413B5204B1B7803B9B7
S214008A80FEE700231E4CCDE900336A4608231D4945
S214008A90206801F01BFDF8B91B4AD2F84031D2F825
S214008AA040211F2B4FF0010311D9203A9340019A21
S214008AB01A43019208236A461249206801F08EFE86
S214008AC0124B134A1A602EF0CFFF02B010BD93402F
S214008AD0009A1A430092EDE72D28F1D10A4AD2F8FF
S214008AE04031D2F840211F2B4FF0010385BF203ABA
S214008AF093409340019398BF0093DBE73B650020CB
S214008B005C70002000710800008000440000002017
S214008B100B020FF038B50025AB6A0446B3F5804F5C
S214008B2010D21B6BB3F5804F0CD20748FFF774FECC
S214008B30AB6A20461B6B5B689847BDE83840024826
S214008B40FFF70ABF38BD00BF6439002013B5002404
S214008B50A36A0190B3F5804F13D21B6BB3F5804F19
S214008B600FD20948FFF758FEA36A01211B6B01A824
S214008B709B69984704460448FFF7EEFE204602B07D
S214008B8010BD4FF48174F9E76439002070B50026F3
S214008B90B36A0446B3F5804F0D4612D21B6BB3F58D
S214008BA0804F0ED20848FFF737FEB36A20461B6B8D
S214008BB029469B69984704460348FFF7CDFE2046A2
S214008BC070BD4FF48174FAE76439002070B5002652
S214008BD0B36A0446B3F5804F0D4612D21B6BB3F54D
S214008BE0804F0ED20848FFF717FEB36A20461B6B6D
S214008BF02946DB69984704460348FFF7ADFE204642
S214008C0070BD4FF48174FAE764390020F8B5002788
S214008C10BB6A0446B3F5804F0D46164611D21B6B51
S214008C207BB10948FFF7F8FDBB6A20461B6B32464E
S214008C3029465B6A984704460348FFF78DFE2046A0
S214008C40F8BD4FF40174FAE76439002070B50026C9
S214008C50B36A0446B3F5804F0D4612D21B6BB3F5CC
S214008C60804F0ED20848FFF7D7FDB36A20461B6B2D
S214008C7029469B6A984704460348FFF76DFE204640
S214008C8070BD4FF40174FAE764390020F0B5002790
S214008C90BB6A0446B3F5804F0D461646ADF5337DE8
S214008CA020D21B6BB3F5804F1CD21048FFF7B4FDE3
S214008CB0BB6A20461B6B40F2C1225B6A01A998473B
S214008CC0044630B10948FFF747FE20460DF5337DD0
S214008CD0F0BD836A32461B6B2946DB6A01A89847BB
S214008CE00446EFE74FF40174EFE700BF6439002055
S214008CF010B50024A36AB3F5804F10D21B6BB3F5F2
S214008D00804F0CD20748FFF787FDA36A1B6B1B6BCF
S214008D10984704460348FFF71FFE204610BD01246F
S214008D20FBE700BF64390020F0B58FB0044601A809
S214008D300E461546FFF7EEFE9DF80C30012B12D1BD
S214008D40B5F5402F27D8B4F5402F24D86319B3F5CE
S214008D50402F20D821462A46304613F0B5FC002482
S214008D6020460FB0F0BD0027BB6AB3F5804F15D282
S214008D701B6BB3F5804F11D20A48FFF74DFDBB6A57
S214008D802A461B6B314620465B6B984704460548CF
S214008D90FFF7E2FDE4E740F20244E1E740F20114A7
S214008DA0DEE700BF64390020F0B58FB0044601A8A6
S214008DB00E461546FFF7AEFE9DF80C30012B1FD170
S214008DC0B5F5402F06D8B4F5402F03D86319B3F590
S214008DD0402F13D940F2024420460FB0F0BDE258AF
S214008DE0013225D104339D42F9D82A463146204621
S214008DF02DF083FA0028EDD00024EDE70023F2E7FB
S214008E000027BB6AB3F5804F15D21B6BB3F5804FB6
S214008E1011D20A48FFF700FDBB6A2A461B6B314693
S214008E2020469B6B984704460448FFF795FDD3E71A
S214008E3040F20344D0E740F20114CDE76439002045
S214008E4070B58EB0044601A80D46FFF763FE9DF888
S214008E500C30012B22D144EA0503C3F30C03002B8C
S214008E6033D1B5F5402F04D940F2024420460EB067
S214008E7070BDB4F5402FF7D82544B5F5402FF3D88C
S214008E80204604F500542DF031FAAC4202D00028FA
S214008E90F6D1E9E70028E7D00024E7E70026B36A22
S214008EA0B3F5804F14D21B6BB3F5804F10D20A482F
S214008EB0FFF7B2FCB36A29461B6B2046DB6B98476C
S214008EC004460548FFF748FDD0E740F20444CDE7E6
S214008ED040F20114CAE700BF64390020BFF34F8F89
S214008EE00549064BCA6802F4E0621343CB60BFF341
S214008EF04F8F00BFFDE700BF00ED00E00400FA055D
S214008F0070B5D0B1C9B10E4E431E013913F8014FEA
S214008F102046325D02F00302012A11F8012F08BF35
S214008F2004F12000B55C05F00305012D08BF2032D2
S214008F30801A01D1002CE9D170BD0120FCE700BFEA
S214008F40E9D204000348044A0449121A92102DF08C
S214008F5020BA00BF34410000D0420000806C0020E0
S214008F6008B5154B83F30A8800F030F8FFF7EAFFE0
S214008F70124B13498B4212D30020124B12498B42DC
S214008F8018D3FBF7AFFE186850F82240586840F830
S214008F902240013298688242F5D30C33EAE7002279
S214008FA0F8E71C6844F8220001325C68A242F8D355
S214008FB00833E4E70022F8E708000020A8F70400DA
S214008FC0B4F70400B4F70400B4F70400124B134AD5
S214008FD070B59A60D3F88820114D42F47002C3F839
S214008FE088206FF0010205F50054226641F2FF72F8
S214008FF062660222C3F8D020BFF34F8FBFF36F8F95
S2140090004FF44036032004F065F90320E66004F0D0
S21400901045F92E6170BD00BF00ED00E00040000085
S21400902000800044014B1860704700BF307000207D
S214009030054B1860054B1B6F03F00703032B01D18C
S21400904035F0D4BC704700BF387000200080005058
S2140090502DE9F04104464FF001080C250D4E0CB9E1
S214009060BDE8F08194FAA4F0B0FA80F00F2808FA70
S21400907000F2C8BF103824EA0204CABF05FB00622B
S21400908005FB0062B4325768002FE8D09168C0B282
S214009090B847E4E77439002008B50C4837F092FC6E
S2140090A0192004F009F928B1192004F013F9192041
S2140090B004F0F4F81A2004F0FFF828B11A2004F09F
S2140090C009F91A2004F0EAF8002008BDF0AD040003
S2140090D02DE9F0410E461746054618B30F2923D84A
S2140090E00378DBB1013BDBB2022B19D8104AD35C04
S2140090F06A78D340DB0717D50E4BD3F81043ACB9CC
S21400910037F0C2FB80463A462846314602F042FE19
S214009110404637F0B4FB2046BDE8F0817F23E7E702
S2140091200023E5E72224F6E72124F4E70224F2E709
S214009130E0AB040000C0035010B5044610B303783B
S214009140E3B1013BDBB2022B1AD8104AD35C62783B
S214009150D340DB0718D537F097FB012261782378D8
S2140091608A4030214B4341F2100103F1A04303F53E
S21400917070335A5037F083FB002010BD7F23E6E79C
S2140091800023E4E72220F8E72120F6E7E0AB04001E
S21400919010B5044610B30378E3B1013BDBB2022BF3
S2140091A01AD8104AD35C6278D340DB0718D537F05C
S2140091B06BFB0122617823788A4030214B4342F2D0
S2140091C0100103F1A04303F570335A5037F057FBF4
S2140091D0002010BD7F23E6E70023E4E72220F8E71F
S2140091E02120F6E7E0AB040038B50D46044618B378
S2140091F011B30378E3B1013BDBB2022B1AD8104A55
S214009200D35C6278D340DB0718D537F03DFB3022BD
S2140092102378534303F1A04303F570335B69627808
S214009220D34003F001032B7037F029FB002038BD34
S2140092307F23E6E70023E4E72220F8E72120F6E78D
S214009240E0AB04002DE9F0410D461646984604466C
S21400925000284FD000294DD00178002940D04B1E61
S214009260DBB2022B3ED8254AD25C6378DA40D207BE
S21400927001D4FF2940D1022E01D9042E3CD137F06B
S21400928003FB23780746FF2B05D032462046296885
S21400929002F0C6FD28602B68013309D12378FF2B26
S2140092A006D1174B6078D3F824142DF04DFE2860B5
S2140092B029684B1C18D00C23124A03FB0122069B7C
S2140092C0C2F8048093602378FF2B04D001230E4A53
S2140092D08B40C2F82434384637F0D1FA002007E035
S2140092E07F22C2E70022C0E7384637F0C8FA2D20B2
S2140092F0BDE8F0812220FBE72120F9E7E0AB04007F
S21400930000C003507439002000D0035008B502F0A6
S21400931037FD044B00F05530C3F82004BDE8084084
S214009320FFF796BE00E0035008B502F029FD044B97
S21400933000F0AA30C3F82004BDE80840FFF788BE56
S21400934000E003502DE9F04F144605460E469B46B6
S214009350C36B87B001225B6902A960689847EB6B14
S21400936001225B6903A93046984702A82DF010FC3D
S214009370074648B10023A37563754FF0FF33A3601B
S214009380002007B0BDE8F08F03A82DF00EFC0123E7
S214009390A375237E04EBC303DE611F846368B342B8
S2140093A00ED1206003A82DF022FC4FF0FF3320756D
S2140093B0A360237D043B022B26D80023A375DFE79A
S2140093C023681A1A53425341A37503A82DF00FFCC5
S2140093D0237D834218BFA77503A82DF0EAFB074636
S2140093E002A82DF0E6FB874218BF002303A818BF8B
S2140093F0A3752DF0E6FB074602A82DF0E2FB874298
S2140094001CBF0023A375D4E703A82DF0D2FB80B1C0
S214009410EB6B022230465B6904A9984704A82DF03E
S214009420D7FB0346207D032839D8DFE800F038381C
S214009430040903A8F3E7CC22237E04EBC3031A84B3
S21400944001F06EFC109B187003A8277E2DF0A5FB7C
S21400945004EBC70787F82200237E03A804EBC303A8
S214009460B3F8209093F822702DF0A3FB804603A853
S2140094702DF0A7FB8246B8F1000F15D0EB6B022249
S21400948030465B6904A9984704A82DF066FB607512
S214009490637D6BB90023A3754FF0000838E0227E89
S2140094A004EBC2021384CBE703A82DF041FBEEE7E2
S2140094B094F81680B8F1000FEED0B9F1000F09D17C
S2140094C0DFB10123E375637E002B4FD1012F42D11C
S2140094D0677614E06B6C06EB0A015A4286EA0100D6
S2140094E010421CBF0022A2755A1E0A409B1A9945BC
S2140094F0D0D8A37D002BE3D1CEE7E37D43B94FF070
S21400950000084B465246314628462DF08CF8A0609F
S214009510A27D12B123694B4423611A49237E097840
S21400952099422AD901332376BBF1000F27D032B3F4
S214009530E37D23B3B8F1000F21D1032F1FD0A1681C
S2140095404B1C1CD0109B2246009328460123FFF795
S214009550F9FEA07513E095F8343063B9EB6A013371
S214009560CFD1032FCDD10123A376C8E7012FCFD0CB
S214009570032FC4D1F7E79846C3E70023A375A07D61
S214009580FFE600BF04AC04002DE9F04F0E469846F7
S21400959000238BB004464FF0FF31104617468DF877
S2140095A0133001F0A7FBB6F5801F20D2314605AA7E
S2140095B004F108002DF03EFA451C014603D1237C39
S2140095C0BBB92D2010E0384601F094FB0122394645
S2140095D020460DF113032DF078F80028EFD09DF803
S2140095E0133088F8003000200BB0BDE8F08FB01CB8
S2140095F0E5D1E56A691C36D12046616A2CF059FF30
S2140096000546B31C18BF0123DFF8CC900193636AAC
S214009610626C0293236805A902FB053AE36B0522F8
S2140096205B695046984705A82DF04DFB2DF070FB62
S21400963050462DF078FB4FF0000B824601464B1C3F
S21400964005D0636C81EA0A025B42134211D02946B8
S21400965020462CF02EFF029BAB422CD0BBF1000F15
S2140096602CD10546D3E72368ED1A636CB5FBF3F5FA
S214009670C7E7484601F03EFB0DF113034946204676
S214009680019A2DF022F8034690B1B21C03D0D9F807
S2140096900020B2420CD19DF8132003930D4B88F89E
S2140096A0002049461A68384613F00EF8039B9B467E
S2140096B0D9F80810C3E7BBF1000F82D0B6F5801FBB
S2140096C091D2314698F800307A6804F1080001F02B
S2140096D03FFA88E700AC0400504100202DE9F34132
S2140096E00446174698460E46184D816AE36A8B4232
S2140096F001D04B1C02D102B0BDE8F081284601F033
S214009700F9FA0122294620460DF107032CF0DDFF69
S21400971038B14346294620469DF80720B84700281A
S214009720E9D0A9684A1C04D1696820462CF04EFF8F
S2140097300146012EDAD16B6881EA0302636C5B4254
S2140097401A4218BF4FF0FF31D0E700BF2441002077
S2140097502DE9F04F4FF0FF334FF6FF720025044619
S21400976000F10806C0E909238BB0C36205620563F1
S214009770304688462DF02FF920462CF06AFE60BB56
S214009780204641462CF0E5FE20462CF062FE60BBEB
S2140097905E200BB0BDE8F08F2368E26B606C576903
S2140097A000FB0530052205A9B84705A82DF08BFA61
S2140097B0012807460CD1294620462CF09BFE012F97
S2140097C0024600D10132294620462CF061FE03E015
S2140097D02DF0A3FA0028EED10135E3699D42DBD3D4
S2140097E020462CF036FE0028CAD000254FF0FF3960
S2140097F04FF6FF73CA46A846C4E90853E36998457E
S2140098000AD3A5EB0905012D2CD84FF6FF72636A23
S21400981093423CD16720BCE72368E26B606C5769D3
S21400982000FB0830052205A9B84705A82DF04BFA1D
S214009830834605A82DF01EFA074658462DF068FA0E
S21400984068B1574538BFC4F82480B94528BFB94623
S214009850BD4238BF3D46BA46236A0133236208F14B
S2140098600108CBE74FF6FF7300256362E3699D426C
S214009870CBD2676C2068E36B052207FB05005B69AB
S21400988005A9984705A82DF0F5F90135EEE7E26B36
S214009890676C2068694607FB030055690522A847E0
S2140098A068462DF0E7F9626A2368606C4B4D00FB52
S2140098B002302DF038FA4FF0FF33A062E3622A46FA
