S01B00006275696C642F72656C656173652F7A69676265652E73333714
S214004000081000201D930000B1DA0000B72003005E
S214004010B7200300B9DA0000C1DA0000B7200300B9
S214004020B7200300B7200300B7200300B720030023
S214004030C5DA000064660400B7200300B72003005A
S214004040B7200300B7200300B7200300358E00001A
S214004050B7200300B7200300B7200300B7200300F3
S214004060B7200300B7200300C5DF0000B720030019
S214004070B7200300B7200300B7200300B7200300D3
S214004080B7200300B7200300B7200300B7200300C3
S214004090B7200300B7200300B7200300B7200300B3
S2140040A0B7200300E5960000C9960000B72003007D
S2140040B0B7200300B7200300B7200300AD3302008B
S2140040C0C97B0300C57B0300112B0200DF7B0300C6
S2140040D0CD7B03006D330200D17B0300A1170200E5
S2140040E0ED330200B7200300B7200300B72003001B
S2140040F0B7200300B7200300B7200300B720030053
S214004100B7200300B7200300B7200300B720030042
S214004110B7200300B7200300B7200300B720030032
S214004120B7200300B7200300B7200300B720030022
S208004130B7200300AC
S214004134F0B5114A114C124E00F00105E3695F0711
S21400414413D40DB9334213D103EA00078F4207D1C3
S2140041540B4A1A40002A14BF6FF001000020F0BD7D
S214004164013AEBD16FF00200F9E74FF0FF30F6E7C3
S2140041746FF00100F3E700BF80969800000003503C
S214004184020001000B4B70B5D96911F480310DD1D2
S21400419401244FF48072084E084DF46020462C64C7
S2140041A41A61FFF7C5FF3464EC6070BD6FF0010060
S2140041B4FBE700BF0000035000100350002003502C
S2140041C438B541F6713301220C4C0021E569E363EE
S2140041D40B4B05F48035DA600223606121202361ED
S2140041E4FFF7A6FF10B92120FFF7A2FF0122054B17
S2140041F4DA600DB10023E36338BD00BF000003504E
S214004204001003500020035070B5134C6061E3693E
S2140042145B071ED40E4656F8043B8D18A361AE42C7
S2140042240BD10423002121202361FFF781FF58B915
S214004234BDE870402120FFF77BBF08210846FFF742
S21400424477FF10B10423236170BD56F8043BA361C5
S214004254E5E74FF0FF30F7E7000003502DE9F84399
S214004264154641F67132164B8946DF69DA63012238
S214004274064603F58053DFF8508007F48037DA608B
S21400428455B9284601220F4BDA601FB10022A3F568
S2140042940053DA63BDE8F88306F5005404EA08041C
S2140042A4A41BAC4228BF2C46494622463046FFF79C
S2140042B4ABFF0028E6D12644A1442D1BE0E700BF4F
S2100042C4000003500020035000E0FFFF45
S2140042D02DE9F04F4FF0FD0BC9B09A460DF11B09C2
S2140042E09DF8503108AFCDF80C90CDF808B0019786
S2140042F0059303890446009383790E4690464188C9
S2140043008288407813F09EFD054650B10090A38841
S214004310002062883A4914F0D9F8284649B0BDE82A
S214004320F08F99F8000030F0A1FF38B12846A38836
S2140043306288344914F0CAF88D25EEE75A463946A5
S21400434099F8000030F03AFF8346002851D0529B7F
S2140043501BB1BDF84C3198424BD8002399F8009019
S2140043600793A9F14102012A5FFA8BF123D8384658
S2140043700139254ADFF898C05FFA81FE734513DBE2
S214004380059B04210792C3B907AF18221F489FED6B
S2140043901A7B02FB060420460A460830394684ED9E
S2140043A0027B18F0BBFD11E010F8011F01335140ED
S2140043B00CFB01F2E2E7059B33B123464A4638463A
S2140043C0009611F0C1FCA8E70829DED9B8F1000F65
S2140043D001D088F80090BAF1000F01D0AAF800B01A
S2140043E0529B002B99D05A46184608A918F096FDFD
S2140043F093E7012591E700BF0000000000000000E1
S214004400360F04006B0F0400C59D1C818010002031
S21400441093010001000000002DE9F04F93B0CDE9B4
S2140044200A32DDE91C530E9353EC102BCDE908013C
S214004430104619468DED060B1E9E17F0F9FF80B14B
S214004440DDE906014FF0FF32C54B18F019F840B908
S214004450DDE906014FF0FF326FF4801317F0F2FF2C
S21400446070B1DDE908019DED060B0E9B1E96CDE9A9
S2140044701C53DDE90A3213B0BDE8F04F00F088B9EE
S2140044800022DDE90601002317F0DCFF002800F01B
S2140044903381DDE906A303F1004BCBF30A5016F493
S2140044A08063A0F2FF3008BF06250F9317F0EEFCDE
S2140044B09BA3D3E9002317F053FD9BA3D3E9002366
S2140044C017F098FBCBF31304894644F07F518046DF
S2140044D00022A44B504641F4401117F089FB94A3E8
S2140044E0D3E9002317F03CFD02460B4640464946FA
S2140044F017F080FB17F0CEFF044617F0C7FC8EA31C
S214004500D3E900238046894617F02AFD0022964B01
S21400451017F070FB17F0BEFF89A3D3E90023074608
S2140045204946404617F01CFD80463846894617F037
S214004530ADFC85A3D3E9002317F012FD02460B4617
S2140045404046494617F054FB02460B46CDE90C237D
S21400455017F006FDDDE90C2380468946104619460D
S21400456017F048FB0022CDE91001804B4046494633
S21400457017F020FE00227E4B17F03CFB02460B464F
S2140045804046494617F016FE00227A4B17F032FBDB
S21400459002460B464046494617F00CFEDDE90C2362
S2140045A08046894600204FF0804117F021FB0246E6
S2140045B00B464046494617F01DFB02460B46DDE912
S2140045C0100117F0F7FD07F2FF3700226A4B17F0CD
S2140045D011FB00223B0517F0C3FC52465B468046A3
S2140045E0894617F04DFF002840F08980CDE90C89F8
S2140045F004F16303C62B8CBF0527042731051BD5A2
S21400460053A3D3E900235046594617F02FFF00283E
S2140046107FD051A3D3E900235046594617F012FF26
S214004620002876D00027A542C6BF2C1B04F1FF3514
S21400463000253C4646F480660E9B9F422CBF4FF0FA
S2140046400008A3EB070816F0020903D0002F18BFD6
S2140046504FF000083CB1DDE90C235046594617F0F0
S214004660A9FD82468B46DDE906010022002317F0ED
S214004670E9FE10B10BF100439B46DDE9080126F484
S2140046800063CDE90183DDE90A324BEC10AB0095FF
S21400469000F07EF802465FB3DDE9091316F0200F3E
S2140046A000F10105089E0CBF65204520B047DDE9F6
S2140046B008010523002205930A23002CCDE90232C7
S2140046C007F1FF374FEAD473B8BF64422A46019316
S2140046D004970A9B009432F0E5FB0246B9F1000FFE
S2140046E006D00B9BC41A0B9B1A190E9BA34245D8E7
S2140046F0104613B0BDE8F08FDDE906ABCDE600222C
S214004700404649461A4B17F055FD013CCDE90C01D1
S2140047106EE7002D90D00F9B002B8DD0013D8BE7D0
S214004720FB799F501344D33FB3C8608B288AC63F9B
S21400473061436F63A787D23F71A379094F930A40FD
S2140047401655B5BBB16B0240EF39FAFE422EE63F76
S2140047502D431CEBE2361A3F0000000080842E41F9
S214004760FFFFEF7F0000F83F0000E03F00002C4016
S21400477000002440000018400000F03F2020DDE943
S2140047800913089DA8470134ADE700BF00000000EC
S2140047902DE9F04F5BEC10AB97B0CDE90501DDE9F4
S2140047A02058CDE90723504652465B465946229F7D
S2140047B017F03EFE70B90323CDE902870193AA4B9A
S2140047C00093DDE90501DDE9072332F09DFA17B015
S2140047D0BDE8F08F4FF0FF326FF480135046594615
S2140047E017F030FE28B10423CDE9028701939F4BD2
S2140047F0E6E74FF0FF32504659469D4B17F040FE15
S21400480068B19C4A07F00403002B08BF03229A4BAA
S2140048101CBF13460422CDE902870192D0E750461A
S2140048208DA3D3E90023594617F02AFE38B98CA386
S214004830D3E900235046594617F004FE68B1DDE977
S2140048400723DDE905014BEC10ABCDE92187209568
S21400485017B0BDE8F04FFFF7DFBD0022002350463B
S214004860594617F0EFFD002800F091805B4652464F
S2140048700020002117F0BCF9012382468B460993DD
S21400488017F4806400F08580092D40F285800024AE
S21400489030210EABA5F109020134202C03F8011BD0
S2140048A0A5EB040901D09442F6D15946504617F0BC
S2140048B0F1FD724B054603EBC90393ED007B8DEDCE
S2140048C00A7B17F0E3FA02460B465046594617F0A5
S2140048D08FF9DDE90A2317F043FB02460B46CDE9C4
S2140048E00C2317F0FFFD064617F0C0FA02460B46EB
S2140048F0DDE90C0117F07CF902460B46CDE90C23E6
S21400490000225F4B17F0BCFD002848D00136304629
S21400491017F0ACFA02460B46DDE90A0117F09CFDDB
S21400492008B100260135B9F1000F45D1284617F029
S214004930ADFA02460B465046594617F059F9002282
S2140049404F4B17F07FFD10B9E90700D501350A2156
S2140049500EAB1A19202C0AD095FBF1F001FB10556E
S214004960303502F8015B013405460028F2D107F025
S2140049700302012A55D1B8F1000F52D0099A12B994
S21400498017F00C0F01D008F1FF38302240E00990F4
S21400499076E74FF0060988E7A946002485E7002257
S2140049A0DDE90C01364B17F04DFD0028BBD10EB1EA
S2140049B0F007B8D50136B6E70A210EAB1A19202C37
S2140049C00DD0B6FBF1F001FB1063092E03F13003A6
S2140049D009F1FF3904F1010402F8013B11D8302136
S2140049E0A1440EAA202CB2D04C4504F101030AD1F2
S2140049F004F158020DEB02042E2204F8202C1C466B
S214004A00A5E70646DBE7A1541C46EBE71A5501343A
S214004A10444506D2202CF9D1CDE9028701940EAB8D
S214004A20CEE6202CF8D0099B3BB12D2204F158038A
S214004A306B4403F8202C0134EEE77A0704D504F122
S214004A4058032B226B44F4E73B07E5D504F15803E3
S214004A5020226B44EDE700BF0000000065CDCD418D
S214004A600000000065CDCDC1592C04005D2C04006B
S214004A70FFFFEF7F502C0400552C040098750400AF
S214004A800000E03F0000000070B58EB02C22002130
S214004A9003A818F0B3F864234FF002320893CDE968
S214004AA005230B2301218DF834305B4B8DF8101055
S214004AB01D880D4040F0A980084636F04FFA0A22BD
S214004AC0564B574C1A704FF42873ADF812304FF00F
S214004AD0FF332360534B54491B8820460B82534BAD
S214004AE0534A1B68CD828B61524B0D621B884B82EA
S214004AF0514B1B68CB611EF0EFFC20B14FF41B71CD
S214004B004E4837F0C6FA0521206832F0BEFB20B1C9
S214004B1040F27D21494837F0BCFA206817F024F8A7
S214004B20474B2068196832F073FC0C2536F07EFE81
S214004B306843099036F07AFE68430DEB050107904E
S214004B40206818F01DFF20B140F295213B4837F051
S214004B50A0FA256820F0F8FE00220146284632F02A
S214004B60CFFC20B140F29721344837F092FA40F259
S214004B700353344D344E2B80052396F90000AB705A
S214004B807F2801D11EF09EFD3378EB7036F04EFE86
S214004B9000EB80008000A88036F048FE0023C000AE
S214004BA04FF0FF31E880AB604FF0FF3018A3D3E939
S214004BB0002336F025FB2549206832F05AFC206891
S214004BC002A933F076F820B14FF434711B4837F061
S214004BD060FA042220680DEB020132F0EEFB042896
S214004BE004D040F2D721154837F053FA01A9012026
S214004BF031F0EFFF08F0A0FF01201FF0E7F92EF0DC
S214004C0052F81FF00DFA1EF0F5FC0EB070BD00BF96
S214004C100A0020FF420300003261002001690020E4
S214004C20D8590020468F04008C7000204C8F04005A
S214004C3085AF0300448F0400488F040022650400FB
S214004C40D46D0020CC59002062730020F9AF030019
S214004C500348044B834202D0034B03B11847704706
S214004C60907300209073002000000000064B074958
S214004C70C91A891048BF0131491003D0044B0BB143
S214004C8001481847704700BF9073002090730020BB
S214004C900000000010B5064C237843B9FFF7D8FF94
S214004CA0044B13B10448AFF300800123237010BDFA
S214004CB0B015002000000000CCB2040008B5044B7C
S214004CC01BB104490448AFF30080BDE80840CDE7B7
S214004CD000000000B4150020CCB20400A3F5803A12
S214004CE0704700BF154B002B08BF114B9D46FFF7C2
S214004CF0F5FF00218B460F461148124A121A17F08C
S214004D007DFF0C4B002B00D098470B4B002B00D0A0
S214004D1098470020002104000D000B4818F0B4FA54
S214004D2017F044FF200029002CF054FD18F09AFAE2
S214004D30000008000000000000000000081000202E
S214004D400810002058690020F1D20100032837B56A
S214004D5004460D461FD1012B35D11378012B32D1D5
S214004D6001F0D6FD012804460DD18DF80000264836
S214004D7016F032FE03F09AFD234601466A460220EC
S214004D8003F0F0FD1FE0214816F026FE03B0BDE854
S214004D90304001F0E3BD202817D101F0B9FD421ED6
S214004DA05042504101236A468DF8000029462046AD
S214004DB003F0D8FD164B1A782AB901221A7003F0B0
S214004DC023FD02F049FD03B030BD25280BD101F0CC
S214004DD09FFD431E584258418DF8000001236A4645
S214004DE029462046CCE72428EDD10023CDE9003320
S214004DF003F0D4FB10B100BACDE9000008236A46E0
S214004E0029462420BCE700BFC8C40300F5C403003D
S214004E101162002007B5012120200DF1070201F0E4
S214004E20D9FB58B10223012120200DF107028DF88D
S214004E30073001F0DFFB03B05DF804FB9DF80710B8
S214004E400229F8D00222094816F0C6FD02230121E5
S214004E500DF1070220208DF8073001F0CBFB2CF077
S214004E6006FC4FF4FA6001F0FFF9E4E72DC50300F5
S214004E7008B501F0D5F900F023FB0F4B1B788BB17A
S214004E800E4803F05BFD03F0D9FC02F0D1FC0C48A1
S214004E9003F0ECFD2CF09DFC02F04CFDBDE8084054
S214004EA0FFF7B8BF03F080FC064B1B781843C0B270
S214004EB00028E5D1EEE700BF15620020842600201A
S214004EC04D4D00008962002038B502F0E3FE124B1B
S214004ED01B78BBB103F0D0FD01F01AFD012805D008
S214004EE001F016FD022801D001F038FD0B4D2B789D
S214004EF03BB901F00DFD0128044602D12CF04DFC13
S214004F002C7038BD03F050FC054B1B781843C0B21C
S214004F100028DFD1E0E700BF156200201062002005
S214004F208962002070B590F860300446114E00F19A
S214004F301C0533B1C0E907602846BDE8704001F0A3
S214004F409FBB00882CF067FBA37884F8440083425C
S214004F5008BF01232846C4E9076404BFE370237131
S214004F6001F08EFB224620880349BDE8704001F020
S214004F70CBBA00BF33130300F712030070B5C37833
S214004F8004460D461646002B34D1D1B1214816F002
S214004F9023FD0123E370E36CA6600BB1E06D984738
S214004FA0E368F61A63699E4221D2217E1A480131CF
S214004FB0C9B2217616F010FDA36D13B1217EE06D07
S214004FC09847E5702CF066FB15B3237903BBA268FF
S214004FD0238A801A83421BD801231048237116F0B7
S214004FE0FBFC236DA3B1E06DBDE8704018470123BC
S214004FF02376E6E70029E4D1094816F0EDFC636D58
S214005000E660E5702571002BDBD0E06D9847D8E7A9
S21400501070BD00BF55C5030066C5030094C50300F8
S21400502081C5030070B51E46838804460D46C180C0
S21400503002810BB1868070BD817800882CF09AF9C9
S2140050400123E370064BA680C4E903340C342046E3
S21400505001F016FB29462046BDE870402CF011BB37
S2140050607F13030010B501790446B1FA81F1008878
S21400507049092CF0F6F921796088B1FA81F14909DD
S2140050802CF0EFF9034B1A68A24204BF00221A6004
S21400509010BD00BFD015002070B543790446A3B1FB
S2140050A000880E4E04F10805336813B10C4B1B78CC
S2140050B06BB121792CF0D5F964210A4B3460A360DA
S2140050C02846BDE870402CF0DCBA4088E9E7064880
S2140050D016F082FC054B3221A360F1E7D0150020C4
S2140050E01262002065500000AAC503009950000017
S2140050F010B5044620B3134816F06EFC012194F850
S2140051003800617150B1104B1B6803B19847236B90
S214005110B3B1606B0121BDE810401847A37923B9ED
S214005120217920882CF09DF9F1E72046FFF79AFFB9
S21400513004F108002CF0AAFA2046FFF7ADFFE6E7D8
S21400514010BD00BFE0C50300CC15002010B5044616
S21400515038B3144816F040FC002194F8380061710A
S21400516050B1114B1B6803B19847236BCBB1606BF2
S2140051700021BDE810401847A3793BB92179208863
S214005180B1FA81F149092CF06CF9EEE72046FFF7F9
S21400519069FF04F108002CF079FA2046FFF77CFF3F
S2140051A0E3E710BDEBC50300CC15002010B50446A0
S2140051B068B1074816F010FC637920461BB1BDE8BD
S2140051C01040FFF7C3BFBDE81040FFF791BF10BD0A
S2140051D0F7C5030010B50E4C0E48214616F0FCFB32
S2140051E082210D4816F0F8FB82210220A21E01F053
S2140051F001FA014630B134F8022C0848BDE81040E8
S21400520016F0EABB0648BDE8104016F0E5BB00BF46
S214005210225C002006C6030021C603002CC603003D
S21400522070C6030038B5124C82212246022001F0D7
S214005230D1F9A51C014698B122880E4816F0CCFB81
S2140052402A460D4B03F1240153F8040B8B4242F817
S214005250040BF9D119889B7811809370262323803C
S21400526035F8021C054A0648BDE8384016F0B4BBBF
S214005270205C00207BC60300FBC60300225C0020E7
S214005280D9C6030010B50C4C0C48214616F0A4FBFA
S21400529082212320A21E01F0ADF9014630B134F878
S2140052A0022C0748BDE8104016F096BB0548BDE83E
S2140052B0104016F091BB00BFA05B002022C7030081
S2140052C040C7030070C6030010B5094C8221224671
S2140052D0232001F07FF910B10023A3702380054A34
S2140052E0054832F8021CBDE8104016F075BB00BF3A
S2140052F09E5B0020A05B00207BC7030010B50C4C13
S2140053000C48214616F068FB82212420A21E01F0DC
S21400531071F9014630B134F8022C0748BDE8104058
S21400532016F05ABB0548BDE8104016F055BB00BF46
S2140053301E5B0020A0C70300C6C7030070C603009C
S21400534010B5094C82212246242001F043F910B101
S2140053500023A3702380054A054832F8021CBDE8E6
S214005360104016F039BB00BF1C5B00201E5B0020FF
S21400537009C80300114B70B51C88E4B1104E35887F
S2140053807E2D19D8C5F17F05ADB2AC4205D92246AF
S214005390611B0C4816F020FB2C4633880A48224630
S2140053A018440A4917F0BAFD33881C440023A4B2F7
S2140053B034802644B37070BD0025E8E71C5B0020EF
S2140053C0205C002036C80300225C00201E5B002004
S2140053D0034B1B781BB18B4201D82CF048B97047A1
S2140053E00873002010B5044601460E4816F0F4FA7D
S2140053F0012C11D10C4B0D481A884FF6FF739A42B8
S2140054001EBF0022094B5A742CF011F802F0FAFD68
S214005410BDE8104002F06ABC0448BDE810402CF01D
S21400542008B800BF70C80300BC720020606D002082
S21400543070B500241A4D1B4E3378A3421BDC0024A3
S214005440194D1A4E3378A3421BDC0024184D194E12
S2140054503378A3421BDC01F05BFA012816481CD106
S2140054602BF0E5FF02F0CEFD02F040FCBDE87040F8
S214005470124801F06DBA2846FFF754FD0134643532
S214005480DAE728462BF0B9FF01343435DAE7284648
S2140054902BF0ECFF01343C35DAE72BF0CAFFE5E7EA
S2140054A0942600206F620020E02A00207062002010
S2140054B02C24002018620020606D0020E5530000B8
S2140054C02DE9F04F9FB0FFF7ADFEFFF7FDFEBB489E
S2140054D0BB4C30F8021B02F0C1F8FFF731FFFFF7B4
S2140054E049FFB84B09A809932BF0F4FF054617F0BF
S2140054F081FAC2B21F2A627004D9B34816F06CFA59
S21400550000F0A6FE2946A01C17F008FD09A82BF0FF
S214005510E1FF054617F06EFAC2B21F2A84F8212072
S21400552001D9AA48EAE7294604F1220017F0F6FC5A
S214005530102200210AA817F061FB102200210EA8F5
S21400554017F05CFB1022002112A817F057FB102260
S214005550002116A817F052FB102200211AA817F0F7
S2140055604DFB09A82BF0B6FF4FF000090446322584
S214005570DFF8A482CDF80C902378002B40F0C7808B
S214005580DFF898A2924A9AF800700AAC0EAE12ADF6
S21400559016A81AA99F4202F1880200F345858D4C91
S2140055A0FFF746FF23788C4F01933B78DFF8709225
S2140055B08A4E00939AF8003099F80020317888488F
S2140055C016F00AFA0020337899F800209AF80010AE
S2140055D09D180D443978DFF84CB20D442178044606
S2140055E00D445946EDB2834200F33785DFF8F88163
S2140055F0012D38BF01254246002347464FF48271ED
S2140056004FF6FF7403950398013398421370518048
S214005610948002F10C02F6DC724B73496848BB605A
S21400562001F06EFAF879BB6800EB400003EB8000EF
S21400563001F01AF8FB796D4D01336B496C48FB712C
S21400564002F0C4FF2A88A24203D06749694801F0E5
S21400565081FB4FF6FF732A886349D21A18BF0122CE
S214005660654802F083FA00255E4C3278AA4200F3C1
S214005670FD844FF000080C25604ADFF86CB199F8FD
S21400568000003178404500F3058500EB01080C2149
S214005690002701FB08B19AF800208823BA4200F3DD
S2140056A01A850C2100274FF0940A96F8008099F886
S2140056B00030494D984401FB08B12878504AB8425A
S2140056C000F3208537780C264FF000084FF0700A5C
S2140056D099F80030DFF8FC901F44074406FB07B635
S2140056E0DFF844B199F80030434500F3208503996C
S2140056F03D4801F047F8099B32491A468B4240F074
S2140057002C8540481FB0BDE8F04F16F065B9532B06
S2140057100AD163784C2B40F01381A378502B17D115
S2140057200122394B1A7013E0442B1AD16378A3F187
S2140057303002092A00F2E482601C2BF0D8FE334BBC
S214005740334A1978002385B2994202F1640204DCD8
S21400575009A82BF0BFFE04460EE722F84A5C013388
S214005760F2E7422B62D16378542B08D1A01C00F0DC
S21400577019FF1E4B188018462BF09AFDE8E7601CB0
S21400578000F010FF0646E01C2BF056FF01210246F3
S21400579030462BF00DFF64211C481D4C03785943FE
S2140057A0621866524FF4FA6111824FF448715161E3
S2140057B018490133558311650370C9E79E5B0020C5
S2140057C09C6B0020225C00208FC80300A6C8030044
S2140057D0501D002013620020146200201762002073
S2140057E0D5C8030044170020CC160020BC72002049
S2140057F09C1600204C160020D4150020701F002098
S214005800941B002031C90300126200206F62002042
S21400581094260020BF140300E02A00201562002012
S2140058201662002080210020441A00204C2B26D12E
S214005830601C00F0B7FE00223426074611462BF007
S214005840B7FEC349087806FB00F328F8037008EB98
S2140058500302E3781046693B18BF012393702BF0D0
S214005860CCFD0023BB48BA49436001230A78037481
S21400587002FB06861A4406600A70039368E7492B03
S21400588040F07C816378A3F14102032A00F2DF80B6
S214005890601C00F087FE0022114607462BF088FEAB
S2140058A03423AB4EDFF8CCA2307803FB00F22AF8A4
S2140058B002700AEB0201E2780846693A18BF012234
S2140058C08A702BF09AFDA449002308460A6D3ABB5D
S2140058D0582202FB03003423327802FB03A303653D
S2140058E09E4900230846D1F8A420FAB9A82202FB54
S2140058F003003423327802FB03A3C0F8A430039BD2
S21400590053B9944A114652F8040BA8B93422307899
S21400591000FB02A241F8232033780133337017E7E7
S2140059200133042B01F15801D0D1D9E70133042B00
S21400593001F1A801D7D1E2E70133042BE3D1EBE76D
S214005940A3F14102032A3CD8601C00F02BFE064659
S214005950E01C2BF071FE0121024630462BF028FE9B
S21400596064227F4F7F483978DFF8F0C14A438318B6
S21400597086524FF448721A825A617B4A5D839A6552
S214005980E278A824642A08BF0122784E08BF9A70DD
S21400599033785C430CEB04020CF804304FF40074CC
S2140059A05480032414719471642401FB04009060F5
S2140059B032200133DBB20131537182F8A000397016
S2140059C0ACE7542B7FF4C4AE00260DF12301A01CD7
S2140059D08DF823602BF0AEFD00283FF4B9AE9DF89D
S2140059E02320002A3FF4B4AE4FF0640E4FF6FF7744
S2140059F0DFF86CC15B489CF80010DFF860A10EFB76
S214005A0001F4031983F860204FF448720753A82462
S214005A101A825A61554F544A01FB0E009A653B782C
S214005A2001315C430AEB04020AF8043040F2012418
S214005A3090605480322003240133DBB216719471D7
S214005A40537182F8A0008CF800103B7080E6542B4F
S214005A507FF47EAE00230DF11F01A01C8DF81F30D1
S214005A602BF068FD00283FF473AE9DF81F00002859
S214005A703FF46EAEDFF800B19BF800600B2E3FF6E9
S214005A8067AE23793A4FC6EBC601312B4FEAC60202
S214005A9007EB010A785401D0342B1ED10021601D7B
S214005AA08DF823100DF12301CDE904322BF042FDD1
S214005AB000283FF44DAE049B059A312B14BF0423F7
S214005AC00123921B17447B700123BB709DF8233083
S214005AD0FB7001368BF800603AE6322B7FF438AE66
S214005AE008A9601D2BF026FD00283FF431AE0DF10D
S214005AF02101E01D2BF01EFD00283FF429AE0DF11C
S214005B00220104F109002BF015FD00283FF420AE19
S214005B100DF1230104F10B002BF00CFD00283FF4DF
S214005B2017AE02238AF8013004238AF802309DF863
S214005B3020308AF803309DF821308AF804309DF82A
S214005B4022308AF805309DF823308AF80630C0E700
S214005B5070620020606D0020701F002080210020F1
S214005B606F62002094260020D153000017620020A8
S214005B701A620020E02A002019620020522B50D121
S214005B806378542B76D100230DF12201A01C8DF8EA
S214005B9022302BF0CFFC00283FF4DAAD9DF822002F
S214005BA000283FF4D5ADB54B1F78052F03D8B44A6F
S214005BB01678052E04D92146B24815F00DFFC7E524
S214005BC03C214FF0FF3C7143DFF8C8A24AF801C001
S214005BD001EB0A0B01218BF8041000218BF838002A
S214005BE08BF806108DF82310217959B10DF1230199
S214005BF0201D2BF09FFCA14BA14A18B19DF8231045
S214005C008BF83910582179439F4844184754C6EBFF
S214005C1006110AEB810101360137E16416701F7028
S214005C2096E5502B12D16378542B40F04381002325
S214005C300DF12301A01C8DF823302BF07BFC0028EF
S214005C403FF486AD9DF82320904B6BE5572B09D18A
S214005C50601C00F0A7FC8E4EB060E01C00F0A2FCBA
S214005C60F06075E5592B78D1601C2BF040FC884B12
S214005C7018606DE5413B032B3FF66AADDFF8FCA1EB
S214005C809AF80030052B96D87D4E3378052B92D89F
S214005C90601C00F087FC0022114683462BF088FC2F
S214005CA03C2332787B4F5A4327F802B04FF0010B63
S214005CB0B91881F804B0E27872B1E01C00F072FC0A
S214005CC00022114604462BF073FC3C23327803FB7B
S214005CD002777C8087F806B058229AF800306A4827
S214005CE05A438118835430786A4CC0EB001204EB98
S214005CF08202CA640133421C32708AF8003027E5FB
S214005D004D2B7FF425ADA01C2BF0F1FB0021C0B27B
S214005D10042828BF04200B464FF0880A8C465E4CA9
S214005D205E4F2678DFF888B1F2189842D2B205DCCA
S214005D3000293FF40DAD3044207009E50AFB02FE51
S214005D4007EB0E0107F80E2081F802C0C1F854B028
S214005D5081F858C001330121E6E7582B6AD84C2B4E
S214005D6048D8432B7FF4F4AC601C00F01BFC0646BE
S214005D70E01C00F017FC00220446114630462BF0CB
S214005D8017FC0022204611462BF012FC3C203C4F0C
S214005D90404A3B7800FB03FC02EB0C0122F80C6047
S214005DA04FF0010C002681F804C08E7103EB0C0145
S214005DB0C9B248431452702402EB000E8EF80660F7
S214005DC0374E981C38703078364F4443C3EB031375
S214005DD0C1EB011102EB83038EF804C002EB8102D3
S214005DE007EB040C38550130CCF80430CCF808200A
S214005DF03070ADE44D3B0B2B3FF6AAAC01A252F837
S214005E0023F000BF495E00005157000051570000C4
S214005E10B55E000051570000515700005157000072
S214005E2051570000655E00005157000051570000B2
S214005E308B5F0000692B7FF48BAC601C2BF057FB4C
S214005E4080B22BF010FC83E4174B01201978002356
S214005E50164A994202F1A8027FF77AAC02F8A60C1D
S214005E600133F6E70DF12301601C2BF063FB0028DD
S214005E703FF46EAC9DF823906AE400BF16620020E3
S214005E8018620020B6C80300701F00206E62002053
S214005E90842600202C24002015620020501D00209F
S214005EA013620020441A0020176200208021002080
S214005EB0000164000DF12201601C2BF03BFB002862
S214005EC03FF446AC9DF822600F2E3FF641AC0334FB
S214005ED02378002B3FF43CAC4C3B671C0C2B16D8AD
S214005EE0DFE803F0173515071515152615151515D2
S214005EF0440038460DF123012BF01CFB38B19DF809
S214005F00232006F178036B4403F8502CE71C3C462C
S214005F10DEE738460DF123012BF00CFB0028F6D007
S214005F209DF8232006F178036B4403F8402CEDE738
S214005F3038460DF123012BF0FDFA0028E7D09DF836
S214005F40232006F178036B4403F8302CDEE738464E
S214005F500DF123012BF0EEFA0028D8D09DF823206F
S214005F6006F178036B4403F8202CCFE738460DF192
S214005F7023012BF0DFFA0028C9D09DF8232006F174
S214005F8078036B4403F8102CC0E7601C00F00AFB93
S214005F900746E01C00F006FB0646601D2BF04CFB97
S214005FA004460246012138462BF002FB22463046C4
S214005FB001212BF0FDFA6421DFF8C4C16C4B9CF87C
S214005FC00020DFF8C0E101FB02F41F534FF44877CE
S214005FD0181907824761C0F858E04583501CC0B2C4
S214005FE001FB00FA23F80A60942603EB0A042782D2
S214005FF06761604FC4F858E06583941C8CF80040D5
S2140060003C7802FB0132664300FB0133DFF878C1BF
S2140060100CEB060E0CF806400134CEF80420CEF841
S21400602008303C70FFF794BB14F801CB02F8809C54
S21400603002F885CC16F801CB013302F884CC15F8AB
S21400604001CB02F883CC10F801CB02F882CC11F811
S21400605001CB02F881CCFFF79DBA4F790130974209
S21400606084BF0C714C71A831FFF7BDBA3DB118F86A
S214006070052C02EB420204EB8204C8F808404146B5
S214006080584602F0A9F901350BF1A80B08F10C08E7
S214006090FFF7EBBA18EB01010AD0481E05FB00B06B
S2140060A0C07900EB400004EB800405FB01B084607F
S2140060B0104605FB0171049201F020FF31782E484E
S2140060C0414405FB017101F03BFC049A08F101080C
S2140060D05832FFF7D4BA17EB080F18BF11F8052C83
S2140060E004911CBF02EB420204EB8204234A18BF51
S2140060F08C6003FB072001F085F9049901370C3109
S214006100FFF7C9BA17EB080F18BF11F8050C049172
S2140061101EBF00EB400004EB80048C600AFB0720E7
S21400612000F0DCFF049901370C31FFF7C6BA18EB14
S214006130070F18BF16F8053C31461CBF03EB430398
S21400614004EB83040AFB08B018BFB46000F09CFEA2
S21400615008F101080C36FFF7C5BA13F8011D00292F
S2140061607FF4CAAA3B2102F8011CFFF7C5BA00BF9C
S214006170942600201462002020240020501D0020B9
S2140061806F620020D1530000941B002007B5012148
S21400619021200DF1070200F01DFA18B99DF807201E
S2140061A0024B1A7003B05DF804FB00BF08730020B2
S2140061B007B5064B8DF80700187001210DF1070290
S2140061C0212000F017FA03B05DF804FB08730020E6
S2140061D007B5022101200DF1060200F0FBF938B9DF
S2140061E0044815F0F9FBBDF8060003B05DF804FBA3
S2140061F00020FAE74EC9030007B50221ADF80600F5
S2140062000DF10602012000F0F5F9014610B1034831
S21400621015F0E2FB03B05DF804FB00BF6FC9030096
S21400622010B5FFF7D5FF04460146074815F0D4FB26
S2140062300121064815F0D0FB24B9BDE81040012026
S214006240FFF7DABF10BD00BF9FC90300B1C9030046
S21400625008B5044815F0C0FB00F0DCF92BF007FA8F
S2140062602BF002FAC7C9030038B50446084D094B9F
S21400627028462B6000F004FA002C18BF214628465A
S214006280BDE8384008BF4FF496712BF0FAB900BF4E
S214006290E42B0020671503002DE9F043384D91B03C
S2140062A008AC0746894690460FCD0FC495E80F0008
S2140062B0002684E80F0001250323324C3248CDE93E
S2140062C00366CDE905668DF80E300796029535F023
S2140062D089FE2E4835F086FE32462D4920468DF83A
S2140062E0176005F0C5FC334632462A498DF819007A
S2140062F0009020468DF82390CDF82C808DF82160F4
S21400630005F0D0FC0A9020468DF8097005F032FCA6
S214006310204608AA05A905F0EBFC02AA204603A918
S2140063202CF01DFC4FF400721B4B5A62194BE560B3
S214006330626A920510D46BB94FF40072164B11487E
S2140063405A6205F017FC114835F04FFE002011B0D8
S214006350BDE8F083013BEBE7002BEDD0094908A828
S2140063602CF030FC4FF400720B4B06485A6205F0D6
S21400637001FC064835F039FEBDF82000E7E700BF0F
S2140063801C6604000040005AC4680400C06804008C
S21400639080841E0040420F000060005A0122034B1A
S2140063A01870034B1980034B1A70704772620020F6
S2140063B0C472002071620020F8B5454B1B780BB9FB
S2140063C00020F8BD434B1B78012B03D1BDE8F840F5
S2140063D02BF0CCB8404B1C884FF6FF739C42EFD096
S2140063E03E4835F0FFFD0023260AE4B21A46214651
S2140063F0304605F07FFB012E354604F0010335D00C
S21400640015D9B51E012DDBD8002B0BBF4FF48075B8
S2140064104FF080754FF470614FF070610BBF01272D
S2140064204FF480370F204FF470202D4B11E0002BD7
S2140064300BBF4FF480754FF080754FF470614FF0CE
S21400644070610BBF01274FF480370F204FF4702088
S214006450244B1A6802401CD0BA421AD01A680A4066
S21400646032D11A6822EA01022A4316E0002B0BBF3B
S2140064704FF480754FF080754FF470614FF0706187
S2140064800BBF01274FF480370F204FF47020164BB8
S214006490DFE71A6822EA00023A431A602BF066F831
S2140064A0054600288CD0083644EA06102A46032102
S2140064B0C0B2FFF7F1FE40F6FF73684300F2FF70CC
S2140064C0B0FBF3F080B27CE795427FF479AFC8E783
S2140064D07162002072620020C4720020C46804004A
S2140064E028C3035020C3035024C3035010B5044CE4
S2140064F0237823B9034835F075FD0123237010BDBA
S21400650074620020C46804002DE9F0431F4C85B077
S214006510074688469146FFF7E9FF23781BB902F045
S21400652099FF012323707BBAADF80C30302200238C
S214006530174E02FB03F4315DA51901BB0123335549
S2140065404FF0FF3304F1100012493044AB606F8007
S214006550C5F80480C5F80C900AF00EFA04F108019C
S214006560042231440C4B009503A803F049F8A968AF
S21400657002460A4815F030FA05B0BDE8F08301334C
S214006580102BD6D1064815F027FAF5E773620020DF
S2140065900C2C002091150300A3150300D4C903009A
S2140065A002CA030080B10278A2F14103032B0BD884
S2140065B040783038C0B2082806D8054B134413F884
S2140065C0413C40EA032070474FF6FF70704700BF1B
S2140065D03C66040008B50B4642B101460448006814
S2140065E004F052F9BDE808402BF037B8022008BD89
S2140065F0CC6D002008B50B4642B101460448006841
S21400660004F0CAFABDE808402BF027B8022008BDFF
S214006610CC6D0020F0B50026124F8DB0FF230093FE
S2140066200A223346386802A92CF056F8C0B102ABED
S2140066301D4603EB800404E055F8043BB34228BF34
S2140066405E1CAC423868E9D9296804F02BFC0028A7
S214006650F2D02D28F0D00DB0BDE8F0402AF0FDBFF6
S2140066600DB0F0BDCC6D002028B1034B0360034B8A
S214006670436000238360704719000003746D002098
S214006680FF2307B50021044A009308300AF0F8F803
S21400669003B05DF804FB00BF7D1603000B460449FB
S2140066A0024608680349097808B12BF01BB8704702
S2140066B0182F002076620020F7B50C4618B1292165
S2140066C0194835F0E6FC246823685E795F88304612
S2140066D03946FFF7E3FFF0B18568E5B1A089227D72
S2140066E03946904291BF0020801AA36880B294BFBA
S2140066F003469B18E27C00903046A84701380328E2
S21400670003D8DFE800F0080F0B0D002420462FF01A
S21400671015FB204600E0812003B0F0BD8024F5E79D
S2140067209324F3E78724F1E72ACA0300F8B5154651
S2140067300D4A044610680D4A0B46117850B12246A1
S2140067402AF0D0FF034628B100210C27C678B142B4
S21400675001DB0020F8BD07FB01F45A681019125B34
S214006760AA42F7D00131F2E7182F00207662002007
S21400677008B5034B1B6803B19847002008BD00BF4F
S214006780142F00202DE9F74F04460D460026454BF2
S214006790454F1860454B197033010021F85C0136EF
S2140067A011F03EF90C2EF7D10C2D28BF0C254FF01A
S2140067B0000901953C4EDFF800A13D4DDFF8FC8056
S2140067C0019B4B4502DC03B0BDE8F08F23784FF009
S2140067D0000B337063887380A388B380A379C6F8F0
S2140067E00880B371E379C8F8005088F804304FF099
S2140067F00003A768A8F80630E3795B450ADC0121A8
S21400680016F8100B11F00CF908F1080809F1010947
S2140068100C34D5E74FF0000338886B812880FB786E
S2140068204FF0000C2B81BA78C5F804A0002A00921D
S2140068300CBF802240222A7379680AF10C02634555
S21400684013DC03EB43030AEB830ABB6843B1009AED
S2140068504FF6FF71B2FA82F2164B52092FF0FEF98C
S21400686014350BF1010B0C37C6E7B1F800E00CF15C
S214006870010C22F80CEC91F802E00C3202F816EC4F
S21400688091F804E00C3102F815EC11F809ECBEF1B1
S214006890010F14BF4FF0100E4FF0110E02F814EC5B
S2140068A0CDE700BF182F0020BC46002076620020EF
S2140068B01C350020B96600001C2F00209C370020E5
S2140068C0014B1860704700BF102F0020014B186066
S2140068D0704700BF142F002070B5128805460E467C
S2140068E0FFF724FF044670B102790499806816F019
S2140068F0D7F9064B1B680BB9002070BD31462846F9
S21400690022889847F8E78620F7E700BF102F002078
S21400691008B510F021F9022806D0012806D0044B4D
S21400692018784000C0B208BD0120FCE70220FAE754
S21400693075620020054B10B51C682CB1FFF7E8FF08
S2140069402346BDE81040184710BD00BF0C2F00209E
S214006950014B1860704700BF0C2F0020034B1A78BD
S2140069601AB901221A700CF057B9704775620020E8
S2140069700022024B1A70FFF7DDBF00BF75620020D1
S21400698037B50446002836D010F0E6F8022834D191
S21400699060892FF035FDE079237A003818BF012092
S2140069A0012B637A08BF40F008000BB140F01000DE
S2140069B063890BB140F00400257CA188A2790DB153
S2140069C0E36893B90F4B11F007FC2178084611F0E5
S2140069D07FFC2FF03EF8044611F038FC7CB100280E
S2140069E00CBF0020032003B030BDCDE90035064BB8
S2140069F011F0F2FBE9E70220F5E70120F3E7204675
S214006A00F1E700BF831B04004CEB030008B50EF053
S214006A1061FA014630B1044814F0DEFFBDE80840D4
S214006A200EF0FCBD08BD00BF9CCA0300034B044A21
S214006A305B7C012103201370FFF7DCBD606D002036
S214006A407762002038B50446FFF7F0FFB4F57F4FB5
S214006A500AD100251B4B1A8813449D70FEF7BAFB1B
S214006A602846FFF701FC06E04FF601739C4207D16B
S214006A7015482AF0C4FC2046BDE8384000F0A0BE09
S214006A804FF602739C4204D1104B1878FFF790FB28
S214006A90F1E74FF611739C4207D100250C4B1A887C
S214006AA013449D70FEF7EEFBDAE74FF616739C4232
S214006AB0E1D10025074B1A8813449D70FEF71EFC93
S214006AC0CEE700BF205C0020606D00200873002029
S214006AD09E5B00201C5B002010B5074C012122465F
S214006AE00320FFF777FD28B92378044A003B18BF38
S214006AF00123537410BD00BF77620020606D002034
S214006B00F8B5664B32251A884FF6FF739A4218BFBF
S214006B1003234FF008020C46614918BF0B70614B07
S214006B201A7030225D70DD7036259A705A71DA71EF
S214006B3034221D7139251A724FF400129D715A4D78
S214006B404264C564594D01220565594D8618856510
S214006B50584DC667C565584D584E4566584D80F821
S214006B6048208566574D80F854200567564D80F8B6
S214006B7060204567202580F8785080F8845000F122
S214006B802105C0F88850514D80F86C20C0F88C5014
S214006B90C0F8806080F89020C0F89410C0F8B83034
S214006BA04B4B4C49C0F8BC300223C0F898104A49F9
S214006BB080F8C030C0F8A4100F21484B80F8A81009
S214006BC0C0F8C430464B4749C0F8C8308223C0F8E6
S214006BD0AC10454980F8CC30C0F8B0100921434BC2
S214006BE0434DC0F8D030434B80F89C20C0F8D430DA
S214006BF0414BC0F8A000C0F8DC302B7C80F8B41005
S214006C0080F8D820002B45D00E213C4B80F8E4209D
S214006C10C0F8E03005F11103C0F8E8300C2303FBA0
S214006C200102374E01FB033356648226354F82F845
S214006C304860D764344A03445A64344A83F8486048
S214006C4000F144078E1CDA643146384600F08CFDAD
S214006C504FF0000EE279A16802EB42034FEA830C84
S214006C6021F80CE001EB8303012130440A44D8707C
S214006C705F609970E271FFF789FAFFF72DFFFFF763
S214006C8047FE012808D12B7C33B1BDE8F8401848F0
S214006C902AF0B5BB0D21C1E7F8BD00BFBC720020CD
S214006CA00973002078620020556604000100200069
S214006CB054660400020020005366040005004200EB
S214006CC00300200052660400040042000700300063
S214006CD0FDFF210012001001004042005066040033
S214006CE000FF44014066040006004200205C0020CD
S214006CF0606D002002FF20010873002001FF1001D4
S214006D0011FF44019E5B002016FF44011C5B00201F
S214006D1013B504460D482AF0D6FA6422C0F30F4392
S214006D20637083B2B3FBF2F3A078237020220121B4
S214006D302AF0FAFCA078212201212AF0F5FC044969
S214006D40201D02B0BDE810402AF09BBCBC7200209B
S214006D50E09304000B7870B583704CF61E03038036
S214006D604FF02013C362012380F8303080F83C30A7
S214006D70C3180364124B044643640223114A80F886
S214006D804830114B8263C3644063CA798D6802EB56
S214006D90420305EB830004F12C0646600B4E45F8D3
S214006DA0236000238360531CCB71094B201DC4E96C
S214006DB00134FFF765FC2046BDE87040FFF7A8BF2A
S214006DC0FDFF21002100200056660400010001039B
S214006DD0116D0000437B044A0121137000781230C5
S214006DE0C0B2FFF707BC00BF8262002038B5044679
S214006DF00078054D12302A460121C0B2FFF7EAFBA3
S214006E0008B92B78637338BD82620020024B53F8B2
S214006E1020002AF064BD00BFFC370020012908B519
S214006E2006D0022907D049B92AF050FD002008BD37
S214006E302AF04FFDFAE72AF04FFDF7E7024814F074
S214006E40CBFD0120F3E700BFC9CA030010B4054C10
S214006E50114654F820001A46BDF804305DF8044B7D
S214006E60FFF7DCBFFC370020002310B50446838103
S214006E700364A0F844304830FFF702FC014BC4E935
S214006E80123410BDC518030038B504460B781A4AEC
S214006E9043700D4642F82300FFF7E6FF2046FFF753
S214006EA0A5FF4FF4401323610123144A2375A26102
S214006EB0134A84F82030E261124A84F82C30626269
S214006EC0114A84F83830A26204F10C0222630F4A99
S214006ED004F10D036263E363EA79A86802EB4203F8
S214006EE000EB830110344C60094C40F82340094BFA
S214006EF08B60531CEB7138BDFC370020816200208C
S214006F00080020000A73002000FF300001FF100177
S214006F10020101044D6E000010B47024427B0D483F
S214006F20013A012904FB020006D0022908D059B90B
S214006F305DF8044B2AF0CABC5DF8044B2AF0C9BCC5
S214006F405DF8044B2AF0C8BC03485DF8044B14F007
S214006F5043BD00BF441A0020E5CA0300B0F85C3009
S214006F602DE9F0418B4204460E4638D0437B077C21
S214006F708BB31C4A12789A422DD370251A4A013BCD
S214006F8005FB032390F80F801B7B42462AF0B5FCD6
S214006F90B845054601D1FF281FD13A46314620465E
S214006FA094F890302AF0A9FC2F4605465522122167
S214006FB06078A4F85C602AF0B7FBFF2F03D0394650
S214006FC02046FFF7A9FFFF2D09D029462046BDE839
S214006FD0F0412AF0D2BCFF25DFE70746E6E7BDE82A
S214006FE0F08100BF13620020441A002041688268C6
S214006FF0C978D27849B112B10321FFF7AFBF837BBE
S214007000002B0CBF01210221F7E72AB1837B002B5E
S2140070100CBF02210121F0E7014814F0DDBC00BFDF
S214007020F6CA0300037BD3B14368DA7812B18268EC
S214007030D278A2B91B7933B1837B002B0CBF042115
S2140070400521FFF78BBF83681B792BB1837B002B51
S2140070500CBF05210421F4E7014814F0BDBC7047BD
S21400706028CB0300084A437B05211370837B5370AB
S214007070C37B9370037CD370037B137100780F304F
S214007080C0B2FFF7B7BA00BF8362002038B5044627
S21400709000780C4D0F302A460521C0B2FFF79AFA49
S2140070A020B1BDE83840084814F096BC2B786373CE
S2140070B06B78A373AB78E373EB7823742B79237325
S2140070C038BD00BF8362002064CB0300024B53F838
S2140070D020002AF09CBC00BF24380020F8B50446E7
S2140070E00B78424A43700D4642F82300404E2AF081
S2140070F0ACFCFFF7CBFF6268A3683E483E49D66407
S2140071001165D4655065C3E91410DE64DC654FF084
S214007110987302266361012304F10C01E16137498B
S2140071201032216204F10D01A16235492376E16235
S21400713004F10E016163334984F82430A16304F13D
S2140071400F012164304984F83030616404F1100185
S214007150E1642E4984F83C3084F84830216584F890
S2140071605460A265E879A96800EB400201EB82074B
S21400717004F1140CC7F804C04FF4817C244F41F886
S2140071802270C218D2B202EB420241F822C001EBD2
S214007190820700227A601F4A84F8703022661E4AF0
S2140071A084F88830A2661D4A1D4BE2661D4AC4F864
S2140071B08C3062671C4A8319A26704F15C02C4F82B
S2140071C08020DBB2194A03EB4303C4F8842084F81A
S2140071D0646084F87C6001EB830260345460144A77
S2140071E0033041F82320E871F8BD00BF24380020A2
S2140071F0ED6F0000D119030025700000010020018A
S21400720002001001030030010400300105002101D6
S21400721001FC01064A0021005866040051001000D7
S2140072205A6604005B660400550021006F001800D3
S214007230120001042DE9F84F06460F46904699467F
S214007240244D05F1280A55F804BBBBF1000F16D0F3
S214007250012F18D158462AF071FCB0420FD1B9F16F
S214007260000F0CD098F800300022003B18BF012316
S21400727006218BF858309BF801002AF055FA554540
S214007280E1D1BDE8F88F022FF9D158462AF0F4FB79
S214007290B042F4D100231C4606E0042B07D018F8B1
S2140072A00320013342EA04249AB29145F5D8B4F596
S2140072B07A7F4FF0FE0328BF4FF47A745C434FF496
S2140072C07A7304F5FA74B4FBF3F4002208218BF801
S2140072D05440D0E74C38002073B516463349052E87
S2140072E0BDF8182051F8204030D0072E51D0042E7B
S2140072F057D1002B57D0002A55D01D7820462A1E7D
S21400730018BF012284F8545084F858202AF016FC3E
S21400731001238DF80420194601AA01F071FB2046CE
S2140073202AF0AAFB4FF47A730446FE205D437F35AD
S21400733001A9B5FBF0F02AF098FB0A463346022175
S214007340204601F05DFB002002B070BD5BB3012A51
S21400735029D91B780125B3FA83F2520984F88420D0
S21400736094F8582084F8855013430BD120462AF011
S214007370E5FB29462B4601AA8DF8045001F040FB98
S21400738084F858504FF4967104F15C002AF079F9AD
S214007390D9E7002304F15C0084F885302AF076F9FA
S2140073A0D1E70120D0E70320CEE700BF4C3800200D
S2140073B0134B022A07B553F8200018D002D82AB972
S2140073C0002204E0402AFBD0412A16D1012280F890
S2140073D058202AF0B3FB01238DF8072019460DF13B
S2140073E0070201F00DFB002003B05DF804FB90F8E7
S2140073F05820B2FA82F25209E9E70120F4E700BF0A
S2140074004C380020F7B504460B78544A437042F8CF
S2140074102300534B0D46C0E917305C30FFF730F9B8
S21400742004F1580262614F4A4FF48013A261A21C15
S21400743022624FF40012626204F15402E2624A4A87
S214007440E360226304F15502A263484A0123E26323
S21400745004F15602626400204FF09872237423777A
S21400746084F8283084F8343084F8403084F84C307F
S21400747004F1570384F88500A2642365E979AB68B4
S21400748001EB410203EB820604F10C077760384FEC
S21400749043F82270374A04F12407B2604A1CD2B27D
S2140074A002EB420203EB82067760334F43F822700A
S2140074B0324A04F13007B2608A1CD2B202EB4202B2
S2140074C003EB820677602E4F43F82270CA1CD2B2B6
S2140074D002EB4202B06004F1480703EB82067760D5
S2140074E0284F043143F82270B060E971264801F055
S2140074F0B1FAA5798DB14FF47A72FE2094F8553022
S21400750001A953437F33B3FBF0F02AF0AEFA0A46E4
S21400751004230221284601F073FAE5798DB14FF471
S2140075207A72FE2094F8563001A953437F33B3FB9A
S214007530F0F02AF09AFA0A4604230221284601F0BF
S2140075405FFA607940B194F8573004218DF8043022
S21400755001AA012301F054FA03B0F0BD4C38002014
S214007560911A030003403001100020011100200191
S21400757006000102B173000008000101D972000084
S214007580010301020700010135720000024B53F8A7
S21400759020002AF0DCBA00BF4C380020F0B51E4CA4
S2140075A0002527780A24DFF880C0EEB2B74207D954
S2140075B005FB044E1CF80EE06E1C864507D142B94A
S2140075C0164C246834B3A446BDE8F0406047354600
S2140075D0EBE7134804FB05014C79012C0DD1CBB128
S2140075E013788B710A2303FB0500BDE8F0400D4BB2
S2140075F04288002118782AF097B8042C0AD1032B69
S21400760008D9D3788B719378CB7153780B72137833
S2140076104B72E7E7F0BD00BF896200207838002093
S214007620A25C0020CC160020985C002010B5094C07
S214007630237853B12AF02EF8074B1B68C01A40F681
S214007640B733984203D900232370002010BD0120D1
S214007650FCE700BF88620020743800202DE9F04F58
S2140076600024DFF800818946064685B088F8004089
S21400767000286ED0A346A7B2B94502D0F35D3B2BD7
S2140076804DD15F4548D998F800500B2D44D80023BB
S2140076908DF80E308DF80F30A4EB0B03DBB2052B04
S2140076A052D106EB0B0A50460DF10E012AF0A8FA4D
S2140076B0002849D09DF80E200192002A44D00DF1F2
S2140076C00F010AF103002AF09BFA00283CD00A2199
S2140076D06943214B019A58185A549DF80F2062F0BE
S2140076E0FF0242809AF80220452A24D0562A26D045
S2140076F0422A29D101224FF0100C01204FF00A0E29
S2140077000EFB05314A700022013581F804C048712D
S214007710C1F8062088F8005001371FFA87FB0134AD
S214007720A3B29945A7D298F800100C4805B0BDE85A
S214007730F04F14F051B904224FF0300CDDE702226E
S2140077404FF0230C0420D9E75946054814F044F9B5
S214007750E2E705B0BDE8F08FA25C0020AECB0300E8
S21400776093CB03008962002070B500240126124BDB
S21400777001EB41011D78114B00EB8101E0B285421F
S21400778003F10A0201F10C0101D8284670BD32F857
S214007790080C063321F80C0C12F8060C01F8096CDC
S2140077A001F80A0C12F8050C013441F8043C01F803
S2140077B0080C1346E2E700BF89620020A25C0020A6
S2140077C073B5194B00221D78184B1C46D1B28D425A
S2140077D002D8002002B070BD5E88511CB04203F192
S2140077E00A0313D10A2101FB02414B798879012B48
S2140077F00ED18DF804000A2101FB02F02118497809
S214007800205C01AA01F0FCF80120E3E70A46DDE768
S2140078104D7A8DF807008DF804500D7AC9798DF8E9
S21400782005508DF80610E6E789620020A25C00206D
S21400783008B5064B1B7843B101F012F9044B1860EB
S2140078400448BDE8084001F005B908BD896200207B
S214007850783800209D75000010B50A4B1B7883B160
S2140078600122094B1A7029F015FF084B186001F029
S2140078701DF8BDE81040002301461A46282001F0F6
S21400788071B810BD8962002088620020743800201C
S21400789070B50E461346054614460A460146244869
S2140078A014F09AF8202E3DD00BD80A2E14D80A2EA3
S2140078B012D8DFE806F01211111111112717111155
S2140078C02C0040F201339E4210D04FF601439E42F8
S2140078D012D0B6F5817F1FD070BD2046BDE870403F
S2140078E0FFF7B0B82146284600F03AFD2146284664
S2140078F0BDE87040FFF74ABE21462846BDE8704006
S214007900FFF7E4BB2146284600F0B2FAEEE7204631
S214007910BDE8704000F020BE21462846BDE8704015
S214007920FFF774BA2046BDE8704000F0EBB800BF21
S214007930D0CB03000148FEF7C3BF00BF917800001C
S2140079404FF4C01330B5036001230371074B8C68F6
S2140079508360CA7902EB420304EB8305686004483F
S21400796044F82300531CCB7130BD00BF5C66040096
S214007970040001010368064A0C2113604368536043
S21400798003891381438922205381FEF733BE00BF4B
S2140079907C38002010B50368044686B0FBB1114859
S2140079A014F01AF8A37B104A8DF804304FF4827353
S2140079B0ADF806300123CDE90223002301A8049385
S2140079C08DF81430FEF7DCFF204661892AF02BF98B
S2140079D02046FA2150F8143B594329F052FE06B0CF
S2140079E010BD00BF03CC03002000000110B5064CFC
S2140079F0236843B1054813F0EFFF2068BDE8104048
S214007A0041892AF010B910BD8838002024CC030024
S214007A1070B5364910460C68BDF81020002C5ED0B4
S214007A2003285CD8DFE800F0021E2745002B5AD05A
S214007A30022A58D91D78B3F80160291E18BF012103
S214007A4032462B4813F0C8FF2DB1314620462AF0A7
S214007A50EAF8002070BDE573FA206368584329F001
S214007A60A4FEF6E7234813F0B7FFE37B002B38D0DD
S214007A700023E373F0E7002B35D0032A33D91D68C3
S214007A801D48294613F0A8FF1C4B2A1F9A4201D90D
S214007A900220DFE723680BB19D42F9D823899D4277
S214007AA0F6D3E37B6560B3B9FA20684329F07DFE20
S214007AB011E0002BCED0012ACCD91D8810482946CB
S214007AC013F08AFF002DE3D063689D42E0D8E37B85
S214007AD02581002BE8D12046FFF74CFFB9E70120AF
S214007AE0B8E70420B6E70320B4E700BF88380020D4
S214007AF047CC03007ECC03009DCC0300FCFF6D004A
S214007B00C8CC030038B5154B1C6834B3F0B92168EF
S214007B10134813F061FF23683BB16268934204D2B6
S214007B20104813F059FF6368236004F114052846D3
S214007B3029F0ACFD236823B1FA212846594329F0E1
S214007B40A0FD2046BDE83840FFF714BF032804D147
S214007B506189054813F040FFF3E738BD88380020F8
S214007B60F3CC030021CD030056CD030070B53E4B89
S214007B700D46044609781860002A6FD101231A467C
S214007B80A1730021E1730121A1814FF46151C4E981
S214007B9000132823354E22810C2132462220638191
S214007BA0FEF718FD60B9D6E900230AB19A4207D35A
S214007BB0318999429FBFC4E900237389218163817B
S214007BC02B4B2C4AE363042384F8403084F84C3073
S214007BD0E3182365284BA2646365022304F10802B8
S214007BE0E265264A84F85830226604F10A02A26644
S214007BF0234A84F8643084F8703004F10C03E2669B
S214007C0063676464EA79A86802EB420300EB8301C9
S214007C1004F13C064E601B4E40F82360FA261A4BD1
S214007C201A488B60531CEB71FEF750FE208904F156
S214007C301405704329F0B9FD6189204629F0F3FF49
S214007C40134B2846C4E90534FEF71AFD216849B1EE
S214007C5028467143BDE8704029F013BD4FF4F07319
S214007C6002228DE770BD00BF883800207C380020D7
S214007C70000023010100230002002100030021016F
S214007C80FDFF210020000105117A0000ED790000BB
S214007C9095790000134B10B51C680CB3E37BEBB171
S214007CA029F0F8FC2369C01A002809DB0E4813F0F7
S214007CB093FE0023FA20E3736368584329F075FDAA
S214007CC0E37B5BB12489FA235C4329F079FDA0426B
S214007CD006D02046BDE8104029F067BD6468F2E78C
S214007CE010BD00BF8838002083CD030038B50024BF
S214007CF0044D55F8040B08B129F0A8FF01340A2CEE
S214007D00F7D138BD8C380020042908B50AD172B1E5
S214007D106BB113781BB929F0C4FF002008BD29F009
S214007D20B6FFFAE7034813F057FE0120F6E70320F4
S214007D30F4E700BFBDCD030010B4054C114654F85F
S214007D4020001A46BDF804305DF8044BFFF7DCBF90
S214007D508C3800200229024608B50ED004D839B95E
S214007D60104629F09EFF06E04029F9D0412907D1A8
S214007D70104629F08CFF002008BD29F09CFFFAE78A
S214007D80024813F029FE0120F6E700BFDDCD030010
S214007D9010B4054C114654F820001A46BDF80430BD
S214007DA05DF8044BFFF7D6BF8C380020C26C094B39
S214007DB052791A7082785A70C2789A70026D12B12F
S214007DC090F85420DA70007804210930014AC0B2D5
S214007DD0FEF710BC8A62002037B50D460446002820
S214007DE041D04FF60273994201D129F02FFFE36C80
S214007DF0ABB193F8382092B144F2030295421AD1FF
S214007E001A4B187858B1A37813B1012B18BF022368
S214007E108DF804300421012301AA00F0F1FDE37877
S214007E20022B02D0204629F011FF204603B0BDE801
S214007E303040FFF7BBBF44F201029542EFD193F802
S214007E4039000028EBD00A22B4F856300221B3FBE2
S214007E50F2F35BBA0022ADF806300423ADF8042036
S214007E600DEB0302D9E703B030BD00BF6E62002001
S214007E70024B53F82000FFF7AFBF00BF8C3800203E
S214007E8038B504460078084D09302A460421C0B2A9
S214007E90FEF7A0FB30B96B78A370AB78E370EB7895
S214007EA084F8543038BD00BF8A62002038B50446D6
S214007EB00078114D09302A460421C0B2FEF78AFB2D
S214007EC0C8B9A3782A78022B0CD004D863B9204608
S214007ED029F0E7FE01E0FF2B0AD02046BDE8384037
S214007EE029F0B4BE002AF2D1204629F0D0FEF4E7ED
S214007EF0002AF9D1EBE738BD8A620020F8B50446BF
S214007F000B78324A0D4642F823004370FFF7B8FF5D
S214007F10E36C2F4A5C631A632046FFF7C7FF2046D0
S214007F2029F094FE4FF4801363600123E26C237201
S214007F30511DE160274923752161A11CA161216DB6
S214007F40002941D084F8203084F82C3004F1540302
S214007F50236304232049E161E11C61621F49A16299
S214007F6092B192F839207AB11D4903EB430204EB33
S214007F7082025160022111720C2202FB034204F1BC
S214007F8056010133D160DBB20627E979A86801EB18
S214007F90410200EB820620F82270F3700123B370D2
S214007FA0104B0434B3604B1C7460DBB20E4C03EB16
S214007FB0430340F8234000EB8302002353600B4B3F
S214007FC002319360E971F8BD0223C9E78C380020BE
S214007FD0CB1C03000340300101FF300102FF1001FB
S214007FE001402101917D000008000100397D00005C
S214007FF028B1034B1B78834234BF00200120704712
S2140080001662002070B500250A4C0B4E3378AB4242
S21400801000DC70BDD4F8A42042B123791BB160798E
S214008020FFF7E6FF10B9104629F0DAF90135A83453
S214008030ECE700BF802100201762002008B54279D7
S21400804001461046FFF7D4FFB0B1CB7858210B4855
S214008050013A042B01FB02000ED8012B08D81BB9ED
S214008060BDE8084029F013BEBDE8084029F019BE57
S214008070BDE8084029F01FBE08BD00BF701F0020E5
S21400808008B5427901461046FFF7B2FFB0B1CB788B
S21400809058210B48013A042B01FB02000ED8012B95
S2140080A008D81BB9BDE8084029F0FBBDBDE808406C
S2140080B029F0EDBDBDE8084029F0FDBD08BD00BFB4
S2140080C0701F002010B586B00446FEF721FC01287C
S2140080D031D1E17804292ED8DFE801F014333503D6
S2140080E0030062791046FFF783FF60B35820174BF2
S2140080F0013A00FB0233DB6C032958791DD10038A6
S21400810018BF012063784FF480728DF804304FF466
S2140081108273ADF806300623ADF8083001238DF8DB
S2140081200B3000238DF80A0001A8CDE903238DF853
S2140081301430FEF725FC06B010BDB0FA80F04009FA
S214008140E0E70020DEE70220DCE700BF701F00202B
S21400815010B586B00446FEF7DBFB012831D1E27885
S214008160042A2ED8DFE802F01414330303006179E2
S2140081700846FFF73DFF50B35820164B013900FB69
S2140081800133DB6C032A5B791DD11A1E18BF01224E
S21400819063788DF80A208DF804304FF48273ADF8BA
S2140081A006300623ADF8083001234FF480728DF8B0
S2140081B00B30002301A8CDE903238DF81430FEF719
S2140081C0DFFB06B010BDB3FA83F25209E0E70222E5
S2140081D0DEE700BF701F002010B586B00446FEF72D
S2140081E097FB012812D16378094A8DF804304FF4C2
S2140081F08273ADF806304FF48073CDE90223002376
S21400820001A804938DF81430FEF7BAFB06B010BD33
S2140082100800070110B586B00446FEF779FB012872
S21400822020D16278104B8DF804204FF4827294F8B7
S214008230A01094F8A10059701870ADF806200493A9
S2140082404FF480720223094901A88DF81430CDE955
S2140082500212FEF795FB94F8A130013B18BF0123EC
S21400826084F8A13006B010BD8E620020080005011B
S21400827010B5837804460BB30379022B0BD14279F1
S2140082801046FFF7B5FE30B158200D4B013A00FB03
S214008290023029F010FDA379022B02D12046FFF709
S2140082A011FF2046FFF7B6FF02236078A4F86C3073
S2140082B05522BDE81040122129F036BA10BD00BF85
S2140082C0701F00204388094A082113808388538042
S2140082D083681B8A938090F8A03093718379D3715A
S2140082E000780430C0B2FEF785B900BF1A5D0020E2
S2140082F038B50D46044650B1836843B193F86030F4
S2140083002BB14FF60173994204BF00230371217805
S214008310114813F061FB4FF602739D420ED10F4BCE
S2140083201B782BB963712046BDE83840FFF7CABFFB
S21400833062790AB19342F6D20123F3E7B5F57F4F8F
S214008340F1D1204629F03DFDA378022B0CBF012277
S2140083500022A3689A70E6E7F9CD030016620020B3
S214008360024B53F82000FFF7C3BF00BFB43800200D
S21400837038B504460078144D04302A460821C0B2A9
S214008380FEF728F920B1BDE83840104813F024BBAA
S2140083902B8863806B88E978A380AA88A3681A82F2
S2140083A0AB7984F8A030EB79A371094B1B780BB935
S2140083B0637138BD09B19942FBD9064813F00CFB2E
S2140083C023780133F4E700BF1A5D002013CE0300C4
S2140083D0166200203CCE0300F8B504460B784A4AE5
S2140083E00D4642F823004370FFF7C2FFA26822B191
S2140083F092F860300BB100232371444BD465D364EC
S214008400434B02265365434BA11C13654FF44013A0
S214008410E36001236161E1623F4910322163226516
S214008420211D3E4AA1633E483E49626504F1A00212
S214008430A061E163E265E01C611D3B4A2062616465
S2140084403A483B492266A21D2374237784F82830D5
S21400845084F8343084F84030A16484F84C6084F8A2
S214008460583084F864306062A266E879AA6800EB47
S214008470400102EB810704F10C0CC7F804C04FF072
S214008480060C2C4F42F82170C118C9B201EB41010D
S21400849042F821C002EB810700217960264F84F85C
S2140084A080302767254F84F89830A767244F254BE0
S2140084B0E767254F84F8746084F88C60C4F89C30B5
S2140084C004F16C06831CC4F88470C4F890601F4FD7
S2140084D01F4EDBB203EB4303C4F89460C4F8887005
S2140084E002EB83067034746008261A4C42F8234068
S2140084F0C31CDBB203EB430302EB8304043042F8F5
S21400850023606160E871F8BDB4380020191D0300CF
S214008510631D03007182000001FF300104FF20018B
S2140085201000300102FF200105FF300100FF30017E
S21400853003FF2101070001084A0021005E660400CF
S21400854051001000606604006166040055002100BA
S2140085506F0018001200010410B508B1072811D1E9
S214008560094C236873B1094A136029F093F8022274
S214008570074B21681860074B07481A70BDE8104083
S21400858013F02ABA10BD00BFE8380020E0380020FB
S214008590DC3800209062002071CE030010B5084C35
S2140085A0206860B129F076F8064B22681B68C01A6E
S2140085B04FF47A73B0FBF3F0034B1344184410BD2A
S2140085C0E0380020DC38002080436D384FF0F1732F
S2140085D030B503600423114A037103778260104BA1
S2140085E0104A0362C260104B0122436202230274E7
S2140085F00E4A80F8283042610D4B0E4AC3628261F3
S214008600CA798C6802EB420304EB830568600A486B
S21400861044F82300531CCB7130BD00BFE83800205F
S214008620E438002001001800FDFF210090620020C1
S21400863062660400070023010A00010401292DE9EF
S214008640F0470546894616461F460AD14AB1002B12
S2140086503ED0324B324A1C7810460023D9B28C42A8
S21400866002D84FF000080CE092F8381069B3A9421F
S2140086702BD13C22317802FB030028F013FF4FF089
S214008680010800F021F990B9FEF7D0FF044670B952
S21400869029F000F8234A244912F8013B9D4219D1DB
S2140086A051F82430984215D2002341F82430B8F10E
S2140086B0000F31D11D4B1C6874B33B463246494609
S2140086C02846A446BDE8F047604701333C32C5E77C
S2140086D09846D6E70134042CDED1154B00241978D1
S2140086E0144B9A46E2B29142E1D993F8602082B1E7
S2140086F0AA420ED1642505FB04A2D36C0BB1D06D43
S214008700984705FB04A56B6D33B1E86DBDE8F047EF
S214008710184701346433E5E7BDE8F08718620020A7
S2140087202C24002091620020EC380020FC38002029
S2140087306F620020942600202DE9F341003918BF0F
S214008740012104468DF8071028F0A4FF0022144DDE
S214008750144980461346AE460E4615F8017B5FFA6E
S21400876082FCBC4219D051F8047B56F82300013233
S214008770874238BF6346042AEFD108F52F7046F8C3
S21400878023000EF803400123204619460DF1070288
S21400879000F036F902B0BDE8F0816346EDE700BFB1
S2140087A091620020EC38002010B5124B124A1C785B
S2140087B000231846D9B28C420BD8104B104A1C78AE
S2140087C00023D9B28C420CD80E4B1B781844C0B28A
S2140087D010BD92F8381009B10130C0B201333C32F6
S2140087E0E8E792F8601009B10130C0B20133643294
S2140087F0E7E700BF186200202C2400206F620020EC
S214008800942600201962002070B50024094E0A4DF7
S2140088103378E0B2834200D870BDC0EBC0002918A0
S214008820C21C8B78285C49782A4400F0E9F80134A9
S214008830EEE700BF196200201A62002008B5FFF7B5
S214008840B3FF58B1064B074A1A6000F009F9064B09
S21400885018600648BDE8084000F0FCB808BD00BF38
S214008860CC15002039870000FC3800203D8600002B
S21400887038B505460A4C10B10023237038BD23785E
S2140088800133DBB2022B2370F8D9064813F0A4F8A4
S214008890257028F007FFBDE83840034828F001BFE0
S2140088A0D662002092CE0300083900204FF6EF7300
S2140088B0044A108898428EBF0023431C9BB2138044
S2140088C0704700BF245D0020014B1878704700BF3A
S2140088D0D56200202DE9F04188B080460F46164646
S2140088E0002115220DF109001D4614F087F94FF6F8
S2140088F0EF72114B31461C8803A89442ADF8044031
S2140089008EBF00240134A4B21C8004232A468DF8AE
S21400891006308DF807808DF80870ADF80A5014F010
S214008920FDFA109BBDF83C200E9901A829F061FACB
S21400893008B0BDE8F08100BF245D002038B50446CD
S21400894018B10FC8054D85E80F00204628F0A9FE8F
S2140089500122034B00201A7038BD00BF08390020E2
S214008960D762002070B51C46244B0D461B78114676
S2140089708CB0002B3FD0202C3DD84AF65523ADF8BE
S214008980003002238DF804508DF802302B0A0025A3
S21400899022468DF8050002A88DF803308DF80740B2
S2140089A08DF8065014F0BAFA04F1080004F1090133
S2140089B02B466C462A4686B289B214F8015B013211
S2140089C092B22B449642DBB2F7D800F130020DEBA0
S2140089D0020000F8303C0022684628F066FE044696
S2140089E0B0FA80F04009FFF743FF201E18BF0120B1
S2140089F040420CB070BD4FF0FF30FAE7D76200205F
S214008A0010B5134C96B02478F4B10024ADF8164097
S214008A100DF1160402944024019406AC0094FFF76E
S214008A2059FF78B90246BDF81610204628F03DFEDC
S214008A300446B0FA80F04009FFF71AFF201E18BF60
S214008A400120404216B010BD4FF0FF30FAE700BFDD
S214008A50D7620020014B1860704700BF0439002021
S214008A60014B1868704700BF04390020014B18609E
S214008A70704700BF003900202DE9F0433E4B89B017
S214008A801B78002B75D03D4E3D4C33883F2B02D8CB
S214008A9028F009FED8B93A4F07F101083488012CAE
S214008AA067D93B78552B27D17B78AA2B24D1072C66
S214008AB05FD9FD886DBA0935ADB2402D24D931494C
S214008AC0023C2246881E14F0EBF83480E6E70023CA
S214008AD0308801AAC0F1400189B22044ADF80430C4
S214008AE028F0E7FD0028D6D1BDF804303288002BE8
S214008AF0D1D013443380C8E7621E92B24146204864
S214008B00328014F0CDF8C9E7AC4232D3294601AA28
S214008B10384629F0CCF98146641B22463846791936
S214008B2014F0BEF83480B9F1000FB7D19DF80600F6
S214008B30431F012B12D8431F58425841124B134C67
S214008B401D6820703DB1BDF80A309DF808109DF8EC
S214008B50070003AAA847002323709FE70C4B1C6856
S214008B60002C9BD0BDF80A30BDF8041003AAA0471D
S214008B7094E709B0BDE8F083D7620020225D0020AC
S214008B80956200209762002004390020D5620020FC
S214008B900039002000239B6AB3F5804F03D2196882
S214008BA0064A914203D00023037083607047012277
S214008BB002709A689B694260F7E700BF07B0CD5E17
S214008BC0024B034A1A602AF0E2BD00BF00000020F4
S214008BD002020FF073B53F4B04461A781AB1022210
S214008BE01A7002B070BDCDE900220028F9D0012627
S214008BF01E7033F059F9384D384B186017F0CEFC1C
S214008C002B785BB902F0F2F940B935480823354AAB
S214008C103549006801F038FE00B92E70334B5A68AB
S214008C20E260334A9A601A6E22605A6E6260D3F827
S214008C307021A2601B6E5C042CD52E4AD368D80720
S214008C40FCD42D4B1A68531C29D04FF48013934044
S214008C502A4A13660423294C4FF0804223664FF4B9
S214008C6080632366102323664FF40053684623660A
S214008C7001A92266636629F07EF9009B2366019BA4
S214008C8063662B78002BACD0164B1A6822665B689E
S214008C906366A6E71A4AD368D907FCD4D1E7194B0E
S214008CA01B78002BD6D1184B5A68144B12B94FF4C8
S214008CB080121A66154A526812B94FF400121A66E4
S214008CC0134B5B68002BC5D14FF480020B4B1A6622
S214008CD0C0E700BFD9620020DA62002028390020F1
S214008CE0CC6D00202C390020007108000080004464
S214008CF055CEAC0000000440986D00200090004463
S214008D0000000450D86200200080055000C00550C6
S214008D100000065038B5224D04462B78012B02D0B1
S214008D2001232B7038BD0028FCD029F049F901300A
S214008D3009D029F045F940F20113984203D0194AA8
S214008D40D368DB07FCD42268174B1A6662685A663B
S214008D50A268C3F87021E268D40744BF00229A6074
S214008D60124B1A68013213D1114A127882B911498E
S214008D704968C80748BF1A600F4A5268D10744BFFF
S214008D8001221A600D4A5268D20744BF02221A60B6
S214008D9017F00CFC0A4B186833F081F80023C0E784
S214008DA0D96200200000044000800044986D002036
S214008DB0D86200200080055000C005500000065014
S214008DC02839002070B50024A36AB3F5804F23D25B
S214008DD01A68134B9A421FD1124E337813F0FD05D2
S214008DE018D14FF480341048FFF7F4FE032004F047
S214008DF04FFC0E4B0320DC6004F02EFC0C4B1C6179
S214008E00AB6ADB69984704460748FFF783FF0CB94F
S214008E1001233370204670BD4FF48174FAE700BF1B
S214008E2007B0CD5ED86200201839002000A00044AC
S214008E300090004413B5204B1B7803B9FEE70023CF
S214008E401E4CCDE900336A4608231D49206801F010
S214008E501BFDF8B91B4AD2F84031D2F840211F2B2F
S214008E604FF0010311D9203A9340019A1A43019218
S214008E7008236A461249206801F08EFE124B134AF8
S214008E801A602AF084FC02B010BD9340009A1A4380
S214008E900092EDE72D28F1D10A4AD2F84031D2F8F7
S214008EA040211F2B4FF0010385BF203A934093408B
S214008EB0019398BF0093DBE7D9620020CC6D0020B9
S214008EC00071080000800044000000200B020FF034
S214008ED038B50025AB6A0446B3F5804F10D21B6B3D
S214008EE0B3F5804F0CD20748FFF774FEAB6A2046F6
S214008EF01B6B5B689847BDE838400248FFF70ABF1F
S214008F0038BD00BF3439002013B50024A36A019091
S214008F10B3F5804F13D21B6BB3F5804F0FD20948C1
S214008F20FFF758FEA36A01211B6B01A89B699847AF
S214008F3004460448FFF7EEFE204602B010BD4FF48C
S214008F408174F9E73439002070B50026B36A044608
S214008F50B3F5804F0D4612D21B6BB3F5804F0ED281
S214008F600848FFF737FEB36A20461B6B29469B6905
S214008F70984704460348FFF7CDFE204670BD4FF4E1
S214008F808174FAE73439002070B50026B36A0446C7
S214008F90B3F5804F0D4612D21B6BB3F5804F0ED241
S214008FA00848FFF717FEB36A20461B6B2946DB69A5
S214008FB0984704460348FFF7ADFE204670BD4FF4C1
S214008FC08174FAE734390020F8B50027BB6A0446F6
S214008FD0B3F5804F0D46164611D21B6B7BB1094880
S214008FE0FFF7F8FDBB6A20461B6B324629465B6AD4
S214008FF0984704460348FFF78DFE2046F8BD4FF419
S2140090000174FAE73439002070B50026B36A0446C6
S214009010B3F5804F0D4612D21B6BB3F5804F0ED2C0
S2140090200848FFF7D7FDB36A20461B6B29469B6AA4
S214009030984704460348FFF76DFE204670BD4FF480
S2140090400174FAE734390020F0B50027BB6A0446FD
S214009050B3F5804F0D461646ADF5337D20D21B6B1B
S214009060B3F5804F1CD21048FFF7B4FDBB6A20460C
S2140090701B6B40F2C1225B6A01A99847044630B1D7
S2140090800948FFF747FE20460DF5337DF0BD836A9D
S21400909032461B6B2946DB6A01A898470446EFE771
S2140090A04FF40174EFE700BF3439002010B50024F8
S2140090B0A36AB3F5804F10D21B6BB3F5804F0CD26A
S2140090C00748FFF787FDA36A1B6B1B6B9847044690
S2140090D00348FFF71FFE204610BD0124FBE700BF34
S2140090E034390020F0B58FB0044601A80E46154668
S2140090F0FFF7EEFE9DF80C30012B12D1B5F5402F90
S21400910027D8B4F5402F24D86319B3F5402F20D8BC
S21400911021462A46304613F001FF002420460FB0B1
S214009120F0BD0027BB6AB3F5804F15D21B6BB3F5B5
S214009130804F11D20A48FFF74DFDBB6A2A461B6BCB
S214009140314620465B6B984704460548FFF7E2FD2C
S214009150E4E740F20244E1E740F20114DEE700BF34
S21400916034390020F0B58FB0044601A80E461546E7
S214009170FFF7AEFE9DF80C30012B1FD1B5F5402F42
S21400918006D8B4F5402F03D86319B3F5402F13D98A
S21400919040F2024420460FB0F0BDE258013225D11D
S2140091A004339D42F9D82A463146204628F038FF37
S2140091B00028EDD00024EDE70023F2E70027BB6A85
S2140091C0B3F5804F15D21B6BB3F5804F11D20A480A
S2140091D0FFF700FDBB6A2A461B6B314620469B6B99
S2140091E0984704460448FFF795FDD3E740F203444A
S2140091F0D0E740F20114CDE73439002070B58EB0C8
S214009200044601A80D46FFF763FE9DF80C30012BBF
S21400921022D144EA0503C3F30C03002B33D1B5F582
S214009220402F04D940F2024420460EB070BDB4F57B
S214009230402FF7D82544B5F5402FF3D8204604F53F
S214009240005428F0E6FEAC4202D00028F6D1E9E74A
S2140092500028E7D00024E7E70026B36AB3F5804F7E
S21400926014D21B6BB3F5804F10D20A48FFF7B2FC3E
S214009270B36A29461B6B2046DB6B984704460548B5
S214009280FFF748FDD0E740F20444CDE740F2011472
S214009290CAE700BF34390020BFF34F8F0549064B9D
S2140092A0CA6802F4E0621343CB60BFF34F8F00BF7F
S2140092B0FDE700BF00ED00E00400FA0570B5D0B190
S2140092C0C9B10E4E431E013913F8014F2046325DD8
S2140092D002F00302012A11F8012F08BF04F1200052
S2140092E0B55C05F00305012D08BF2032801A01D1B8
S2140092F0002CE9D170BD0120FCE700BF358E0400CC
S2140093000348044A0449121A921028F0D5BE00BF3A
S21400931034410000D0420000F469002008B5154B27
S21400932083F30A8800F030F8FFF7EAFF124B134980
S2140093308B4212D30020124B12498B4218D3FBF7F4
S214009340D1FC186850F82240586840F82240013294
S21400935098688242F5D30C33EAE70022F8E71C68E7
S21400936044F8220001325C68A242F8D30833E4E7EE
S2140093700022F8E708000020D4B20400E0B204009F
S214009380E0B20400E0B20400124B134A70B59A60D3
S214009390D3F88820114D42F47002C3F888206FF08D
S2140093A0010205F50054226641F2FF72626602224F
S2140093B0C3F8D020BFF34F8FBFF36F8F4FF4403604
S2140093C0032004F065F90320E66004F045F92E61F9
S2140093D070BD00BF00ED00E00040000000800044CB
S2140093E0014B1860704700BFA06D0020054B186049
S2140093F0054B1B6F03F00703032B01D130F0ACBE07
S214009400704700BFA86D0020008000502DE9F04195
S21400941004464FF001080C250D4E0CB9BDE8F0814E
S21400942094FAA4F0B0FA80F00F2808FA00F2C8BF49
S214009430103824EA0204CABF05FB006205FB00627E
S214009440B4325768002FE8D09168C0B2B847E4E756
S2140094504439002008B50C4832F0C4FD192004F049
S21400946009F928B1192004F013F9192004F0F4F8CA
S2140094701A2004F0FFF828B11A2004F009F91A207F
S21400948004F0EAF8002008BDC46804002DE9F041A5
S2140094900E461746054618B30F2923D80378DBB1C6
S2140094A0013BDBB2022B19D8104AD35C6A78D34052
S2140094B0DB0717D50E4BD3F81043ACB932F0F4FCEB
S2140094C080463A462846314602F042FE404632F092
S2140094D0E6FC2046BDE8F0817F23E7E70023E5E7CA
S2140094E02224F6E72124F4E70224F2E7B466040017
S2140094F000C0035010B5044610B30378E3B1013B37
S214009500DBB2022B1AD8104AD35C6278D340DB0752
S21400951018D532F0C9FC0122617823788A403021C0
S2140095204B4341F2100103F1A04303F570335A5048
S21400953032F0B5FC002010BD7F23E6E70023E4E709
S2140095402220F8E72120F6E7B466040010B50446AA
S21400955010B30378E3B1013BDBB2022B1AD8104AF2
S214009560D35C6278D340DB0718D532F09DFC01222D
S214009570617823788A4030214B4342F2100103F190
S214009580A04303F570335A5032F089FC002010BD1A
S2140095907F23E6E70023E4E72220F8E72120F6E72A
S2140095A0B466040038B50D46044618B311B3037804
S2140095B0E3B1013BDBB2022B1AD8104AD35C6278C7
S2140095C0D340DB0718D532F06FFC302223785343A4
S2140095D003F1A04303F570335B696278D34003F070
S2140095E001032B7032F05BFC002038BD7F23E6E7DA
S2140095F00023E4E72220F8E72120F6E7B46604001B
S2140096002DE9F0410D4616469846044600284FD0F0
S21400961000294DD00178002940D04B1EDBB2022B2A
S2140096203ED8254AD25C6378DA40D20701D4FF29B7
S21400963040D1022E01D9042E3CD132F035FC2378DD
S2140096400746FF2B05D032462046296802F0C6FDA5
S21400965028602B68013309D12378FF2B06D1174BDE
S2140096606078D3F8241429F002FB286029684B1C84
S21400967018D00C23124A03FB0122069BC2F8048072
S21400968093602378FF2B04D001230E4A8B40C2F848
S2140096902434384632F003FC002007E07F22C2E77D
S2140096A00022C0E7384632F0FAFB2D20BDE8F081F4
S2140096B02220FBE72120F9E7B466040000C003502F
S2140096C04439002000D0035008B502F037FD044BA3
S2140096D000F05530C3F82004BDE80840FFF796BEFA
S2140096E000E0035008B502F029FD044B00F0AA3054
S2140096F0C3F82004BDE80840FFF788BE00E003502A
S2140097002DE9F04F144605460E469B46C36B87B0C0
S21400971001225B6902A960689847EB6B01225B69CE
S21400972003A93046984702A829F0C5F8074648B16D
S2140097300023A37563754FF0FF33A360002007B0C6
S214009740BDE8F08F03A829F0C3F80123A375237E94
S21400975004EBC303DE611F846368B3420ED120604E
S21400976003A829F0D7F84FF0FF332075A360237DB8
S214009770043B022B26D80023A375DFE723681A1ABA
S21400978053425341A37503A829F0C4F8237D8342AE
S21400979018BFA77503A829F09FF8074602A829F066
S2140097A09BF8874218BF002303A818BFA37529F0AB
S2140097B09BF8074602A829F097F887421CBF0023AB
S2140097C0A375D4E703A829F087F880B1EB6B0222D3
S2140097D030465B6904A9984704A829F08CF803462C
S2140097E0207D032839D8DFE800F03838040903A8BC
S2140097F0F3E7CC22237E04EBC3031A8401F06EFC4D
S214009800109B187003A8277E29F05AF804EBC707A8
S21400981087F82200237E03A804EBC303B3F8209046
S21400982093F8227029F058F8804603A829F05CF8CF
S2140098308246B8F1000F15D0EB6B022230465B690A
S21400984004A9984704A829F01BF86075637D6BB9D6
S2140098500023A3754FF0000838E0227E04EBC20216
S2140098601384CBE703A828F0F6FFEEE794F81680FB
S214009870B8F1000FEED0B9F1000F09D1DFB1012326
S214009880E375637E002B4FD1012F42D1677614E03B
S2140098906B6C06EB0A015A4286EA010010421CBFB6
S2140098A00022A2755A1E0A409B1A9945D0D8A37D5D
S2140098B0002BE3D1CEE7E37D43B94FF000084B46DB
