S01B00006275696C642F72656C656173652F7A69676265652E73333714
S2140060000810002089B00000A9F800006B84030087
S2140060106B840300B1F80000B9F800006B8403003D
S2140060206B8403006B8403006B8403006B840300A3
S214006030BDF8000078CA04006B8403006B8403007C
S2140060406B8403006B8403006B84030059AB000071
S2140060506B8403006B8403006B8403006B84030073
S2140060606B8403006B8403006B8403006B84030063
S21400607029FE00006B8403006B8403006B8403001E
S2140060806B8403006B8403006B8403006B84030043
S2140060906B8403006B8403006B8403006B84030033
S2140060A06B84030055B4000035B400006B84030015
S2140060B06B840300013D02006B8403006547020009
S2140060C06BDD030067DD0300413F020081DD030056
S2140060D06FDD03003547020073DD0300A5470200AD
S2140060E0114E02000D2B0200114802006B840300C3
S2140060F06B8403006B8403006B8403006B840300D3
S2140061006B8403006B8403006B8403006B840300C2
S2140061106B8403006B8403006B8403006B840300B2
S2140061206B8403006B8403006B8403006B840300A2
S2140061306B8403006B8403006B8403006B84030092
S21400614082B030BF074BD3F8F030DB0704D500230E
S2140061500193019B052B01DD02B07047019B0133C3
S214006160F6E700BF00ED00E0F0B5114A114C124E04
S21400617000F00105E3695F0713D40DB9334213D16C
S21400618003EA00078F4207D10B4A1A40002A14BFC1
S2140061906FF001000020F0BD013AEBD16FF0020075
S2140061A0F9E74FF0FF30F6E76FF00100F3E700BFC6
S2140061B08096980000000350020001000B4B70B55B
S2140061C0D96911F480310DD101244FF48072084E44
S2140061D0084DF46020462C641A61FFF7C5FF34644E
S2140061E0EC6070BD6FF00100FBE700BF00000350DD
S2140061F000100350002003504FF4003238B50F4B08
S2140062000F4C9A6641F671330122E569E3630D4B44
S2140062100021DA60022360612120236105F48035C5
S214006220FFF7A2FF10B92120FFF79EFF0122064BC1
S214006230DA600DB10023E36338BD00BF0090005064
S21400624000000350001003500020035070B5134C9C
S2140062506061E3695B071ED40E4656F8043B8D1852
S214006260A361AE420BD10423002121202361FFF756
S2140062707BFF58B9BDE870402120FFF775BF0821A5
S2140062800846FFF771FF10B10423236170BD56F86E
S214006290043BA361E5E74FF0FF30F7E7000003504B
S2140062A02DE9F84315464FF40032184B89469A6696
S2140062B041F6713203F51C33DF69DA6301220646C4
S2140062C003F58053DFF84C8007F48037DA6055B961
S2140062D0284601220E4BDA601FB10022A3F50053B8
S2140062E0DA63BDE8F88306F5005404EA0804A41B44
S2140062F0AC4228BF2C46494622463046FFF7A6FF4A
S2140063000028E6D12644A1442D1BE0E7009000506B
S20C0063100020035000E0FFFF2F
S2140063182DE9F04F4FF0FD0BC9B09A460DF11B0959
S2140063289DF8503108AFCDF80C90CDF808B001971D
S214006338059303890446009383790E469046418860
S2140063488288407813F01CFA054650B10090A3885E
S214006358002062883A4913F057FD284649B0BDE840
S214006368F08F99F8000034F0D6FF38B12846A38895
S2140063786288344913F048FD8D25EEE75A463946BB
S21400638899F8000034F06FFF8346002851D0529BDE
S2140063981BB1BDF84C3198424BD8002399F80090B1
S2140063A80793A9F14102012A5FFA8BF123D83846F0
S2140063B80139254ADFF898C05FFA81FE734513DB7A
S2140063C8059B04210792C3B907AF18221F489FED03
S2140063D81A7B02FB060420460A460830394684ED36
S2140063E8027B18F093FB11E010F8011F01335140AF
S2140063F80CFB01F2E2E7059B33B123464A463846D2
S214006408009611F0E5F8A8E70829DED9B8F1000FDC
S21400641801D088F80090BAF1000F01D0AAF800B0B1
S214006428529B002B99D05A46184608A918F06EFBBE
S21400643893E7012591E700BF000000000000000078
S2140064480374040038740400C59D1C818010002065
S21400645893010001000000002DE9F04F93B0CDE94C
S2140064680A32DDE91C530E9353EC102BCDE90801D4
S214006478104619468DED060B1E9E17F0D1FD80B10D
S214006488DDE906014FF0FF32C54B17F0F1FD40B9C4
S214006498DDE906014FF0FF326FF4801317F0CAFDEE
S2140064A870B1DDE908019DED060B0E9B1E96CDE941
S2140064B81C53DDE90A3213B0BDE8F04F00F088B986
S2140064C80022DDE90601002317F0B4FD002800F0DD
S2140064D83381DDE906A303F1004BCBF30A5016F42B
S2140064E88063A0F2FF3008BF06250F9317F0C6FAA0
S2140064F89BA3D3E9002317F02BFB9BA3D3E9002328
S21400650817F070F9CBF31304894644F07F518046A0
S2140065180022A44B504641F4401117F061F994A3A9
S214006528D3E9002317F014FB02460B4640464946BB
S21400653817F058F917F0A6FD044617F09FFA8EA331
S214006548D3E900238046894617F002FB0022964BC3
S21400655817F048F917F096FD89A3D3E900230746F4
S2140065684946404617F0F4FA80463846894617F0FA
S21400657885FA85A3D3E9002317F0EAFA02460B4604
S2140065884046494617F02CF902460B46CDE90C233F
S21400659817F0DEFADDE90C238046894610461946D0
S2140065A817F020F90022CDE91001804B40464946F5
S2140065B817F0F8FB00227E4B17F014F902460B463C
S2140065C84046494617F0EEFB00227A4B17F00AF9C8
S2140065D802460B464046494617F0E4FBDDE90C2325
S2140065E88046894600204FF0804117F0F9F80246A9
S2140065F80B464046494617F0F5F802460B46DDE9D5
S214006608100117F0CFFB07F2FF3700226A4B17F08E
S214006618E9F800223B0517F09BFA52465B4680468F
S214006628894617F025FD002840F08980CDE90C89B9
S21400663804F16303C62B8CBF0527042731051BD539
S21400664853A3D3E900235046594617F007FD002800
S2140066587FD051A3D3E900235046594617F0EAFCE9
S214006668002876D00027A542C6BF2C1B04F1FF35AC
S21400667800253C4646F480660E9B9F422CBF4FF092
S2140066880008A3EB070816F0020903D0002F18BF6E
S2140066984FF000083CB1DDE90C235046594617F088
S2140066A881FB82468B46DDE906010022002317F0AF
S2140066B8C1FC10B10BF100439B46DDE9080126F446
S2140066C80063CDE90183DDE90A324BEC10AB009597
S2140066D800F07EF802465FB3DDE9091316F0200FD6
S2140066E800F10105089E0CBF65204520B047DDE98E
S2140066F808010523002205930A23002CCDE902325F
S21400670807F1FF374FEAD473B8BF64422A460193AD
S21400671804970A9B009436F06CFD0246B9F1000F08
S21400672806D00B9BC41A0B9B1A190E9BA34245D87E
S214006738104613B0BDE8F08FDDE906ABCDE60022C3
S214006748404649461A4B17F02DFB013CCDE90C0193
S2140067586EE7002D90D00F9B002B8DD0013D8BE768
S214006768FB799F501344D33FB3C8608B288AC63F33
S21400677861436F63A787D23F71A379094F930A4095
S2140067881655B5BBB16B0240EF39FAFE422EE63F0E
S2140067982D431CEBE2361A3F0000000080842E4191
S2140067A8FFFFEF7F0000F83F0000E03F00002C40AE
S2140067B800002440000018400000F03F2020DDE9DB
S2140067C80913089DA8470134ADE700BF0000000084
S2140067D82DE9F04F5BEC10AB97B0CDE90501DDE98C
S2140067E82058CDE90723504652465B465946229F15
S2140067F817F016FC70B90323CDE902870193AA4B5C
S2140068080093DDE90501DDE9072336F024FC17B01F
S214006818BDE8F08F4FF0FF326FF4801350465946AC
S21400682817F008FC28B10423CDE9028701939F4B93
S214006838E6E74FF0FF32504659469D4B17F018FCD6
S21400684868B19C4A07F00403002B08BF03229A4B42
S2140068581CBF13460422CDE902870192D0E75046B2
S2140068688DA3D3E90023594617F002FC38B98CA348
S214006878D3E900235046594617F0DCFB68B1DDE93A
S2140068880723DDE905014BEC10ABCDE92187209500
S21400689817B0BDE8F04FFFF7DFBD002200235046D3
S2140068A8594617F0C7FB002800F091805B46524611
S2140068B80020002116F094FF012382468B46099398
S2140068C817F4806400F08580092D40F28580002446
S2140068D830210EABA5F109020134202C03F8011B68
S2140068E8A5EB040901D09442F6D15946504617F054
S2140068F8C9FB724B054603EBC90393ED007B8DED90
S2140069080A7B17F0BBF802460B465046594616F067
S21400691867FFDDE90A2317F01BF902460B46CDE9A7
S2140069280C2317F0D7FB064617F098F802460B46D6
S214006938DDE90C0116F054FF02460B46CDE90C23A0
S21400694800225F4B17F094FB002848D001363046EB
S21400695817F084F802460B46DDE90A0117F074FBC7
S21400696808B100260135B9F1000F45D1284617F0C1
S21400697885F802460B465046594616F031FF002267
S2140069884F4B17F057FB10B9E90700D501350A2118
S2140069980EAB1A19202C0AD095FBF1F001FB105506
S2140069A8303502F8015B013405460028F2D107F0BD
S2140069B80302012A55D1B8F1000F52D0099A12B92C
S2140069C817F00C0F01D008F1FF38302240E009908C
S2140069D876E74FF0060988E7A946002485E70022EF
S2140069E8DDE90C01364B17F025FB0028BBD10EB1AC
S2140069F8F007B8D50136B6E70A210EAB1A19202CCF
S214006A080DD0B6FBF1F001FB1063092E03F130033D
S214006A1809F1FF3904F1010402F8013B11D83021CD
S214006A28A1440EAA202CB2D04C4504F101030AD189
S214006A3804F158020DEB02042E2204F8202C1C4602
S214006A48A5E70646DBE7A1541C46EBE71A550134D2
S214006A58444506D2202CF9D1CDE9028701940EAB25
S214006A68CEE6202CF8D0099B3BB12D2204F1580322
S214006A786B4403F8202C0134EEE77A0704D504F1BA
S214006A8858032B226B44F4E73B07E5D504F158037B
S214006A9820226B44EDE700BF0000000065CDCD4125
S214006AA80000000065CDCDC1F2910400F691040007
S214006AB8FFFFEF7FE9910400EE91040070D904000F
S214006AC80000E03F0000000070B58EB02C220021C8
S214006AD803A817F08BFE64234FF002320893CDE923
S214006AE805230B2301218DF834305B4B8DF81010ED
S214006AF81D880D4040F0A98008463AF04DFE0A224F
S214006B08564B574C1A704FF42873ADF812304FF0A6
S214006B18FF332360534B54491B8820460B82534B44
S214006B28534A1B68CD828B61524B0D621B884B8281
S214006B38514B1B68CB611DF033FF20B14FF41B711E
S214006B484E483BF0FCFE0521206837F0B0F920B12E
S214006B5840F27D2149483BF0F2FE206816F0FCFD25
S214006B68474B2068196836F01CFD0C253BF07CFA6C
S214006B78684309903BF078FA68430DEB05010790E7
S214006B88206818F0CFFA20B140F295213B483BF038
S214006B98D6FE256820F0A0FC00220146284636F0DE
S214006BA878FD20B140F2972134483BF0C8FE40F209
S214006BB80353344D344E2B80052396F90000AB70F2
S214006BC87F2801D11EF0D4F93378EB703BF04CFAED
S214006BD800EB80008000A8803BF046FA0023C00047
S214006BE84FF0FF31E880AB604FF0FF3018A3D3E9D1
S214006BF800233AF023FF2549206836F003FD206875
S214006C0802A937F0FBF920B14FF434711B483BF06A
S214006C1896FE042220680DEB020136F097FC042845
S214006C2804D040F2D72115483BF089FE01A901207F
S214006C3836F062F808F078FE01201EF02BFE32F0DF
S214006C48FEF91EF051FE1EF02BF90EB070BD00BF07
S214006C580A0020FF42030000E6620020E56A0020E2
S214006C689859002094F20400BC7200209CF204009C
S214006C78C917040092F2040098F2040021C904001F
S214006C88047000208C590020D87500203D18040098
S214006C980348044B834202D0034B03B1184770479E
S214006CA80C7600200C76002000000000064B0749F2
S214006CB8C91A891048BF0131491003D0044B0BB1DB
S214006CC801481847704700BF0C7600200C76002055
S214006CD80000000010B5064C237843B9FFF7D8FF2C
S214006CE8044B13B10448AFF300800123237010BD92
S214006CF87016002000000000D42D050008B5044BCF
S214006D081BB104490448AFF30080BDE80840CDE74E
S214006D180000000074160020D42D0500A3F5803A64
S214006D28704700BF154B002B08BF114B9D46FFF759
S214006D38F5FF00218B460F461148124A121A17F023
S214006D4855FD0C4B002B00D098470B4B002B00D062
S214006D5898470020002104000D000B4818F08CF816
S214006D6817F01CFD2000290030F034FF18F072F8E8
S214006D7800000800000000000000000008100020C6
S214006D8808100020486B0020E9EE0100032837B5FC
S214006D9804460D461FD1012B35D11378012B32D16D
S214006DA801F0C0FD012804460DD18DF800002648E4
S214006DB816F0FEFB03F0C0FB234601466A46022097
S214006DC803F016FC1FE0214816F0F2FB03B0BDE8FE
S214006DD8304001F0CDBD202817D101F0A3FD421E9A
S214006DE85042504101236A468DF800002946204645
S214006DF803F0FEFB164B1A782AB901221A7003F024
S214006E0849FB02F033FD03B030BD25280BD101F055
S214006E1889FD431E584258418DF8000001236A46F2
S214006E2829462046CCE72428EDD10023CDE90033B7
S214006E3803F0FAF910B100BACDE9000008236A4653
S214006E4829462420BCE700BF902D0400BD2D040071
S214006E58D363002007B5012120200DF1070201F0B9
S214006E68C9FB50B1012120200DF107028DF807104B
S214006E7801F0D0FB03B05DF804FB9DF8071001296C
S214006E88F8D00122084816F093FB01210DF10702FD
S214006E9820208DF8071001F0BDFB30F010FE4FF4EF
S214006EA8FA6001F0EFF9E5E7F52D040008B501F002
S214006EB8C5F900F01FFB0F4B1B788BB10E4803F08B
S214006EC883FB03F001FB02F0BDFC0C4803F014FC46
S214006ED830F07FFE02F030FDBDE80840FFF7BABF8D
S214006EE803F0A8FA064B1B781843C0B20028E5D171
S214006EF8EEE700BFD7630020CC260020956D000083
S214006F084B64002038B5124B1B78BBB103F0FAFB74
S214006F1801F008FD012805D001F004FD022801D083
S214006F2801F026FD0B4D2B783BB901F0FBFC012840
S214006F38044602D130F045FE2C7038BD03F07AFACC
S214006F48054B1B781843C0B20028DFD1E0E700BF26
S214006F58D7630020D26300204B64002070B590F8F9
S214006F6860300446114E00F11C0533B1C0E90760D5
S214006F782846BDE8704001F093BB008830F073FDEA
S214006F88A37884F84400834208BF01232846C4E94E
S214006F98076404BFE370237101F082FB2246208851
S214006FA80349BDE8704001F0BFBA00BF8B77030005
S214006FB84F77030070B5C37804460D461646002B77
S214006FC834D1D1B1214816F0F3FA0123E370E36C0B
S214006FD8A6600BB1E06D9847E368F61A63699E42AF
S214006FE821D2217E1A480131C9B2217616F0E0FA7C
S214006FF8A36D13B1217EE06D9847E57030F072FD01
S21400700815B3237903BBA268238A801A83421BD848
S21400701801231048237116F0CBFA236DA3B1E06D57
S214007028BDE87040184701232376E6E70029E4D137
S214007038094816F0BDFA636DE660E5702571002B09
S214007048DBD0E06D9847D8E770BD00BF1D2E040062
S2140070582E2E04005C2E0400492E040070B51E4631
S214007068838804460D46C18002810BB1868070BDB8
S2140070788178008830F0A6FB0123E370064BA680D3
S214007088C4E903340C34204601F00AFB294620469E
S214007098BDE8704030F01DBDD777030010B5017904
S2140070A80446B1FA81F10088490930F002FC2179DA
S2140070B86088B1FA81F1490930F0FBFB034B1A6886
S2140070C8A24204BF00221A6010BD00BF901600201E
S2140070D870B543790446A3B100880E4E04F108053E
S2140070E8336813B10C4B1B786BB1217930F0E1FB98
S2140070F864210A4B3460A3602846BDE8704030F02F
S214007108E8BC4088E9E7064816F052FA054B3221F3
S214007118A360F1E790160020D4630020A570000055
S214007128722E0400D970000010B5044620B3134828
S21400713816F03EFA012194F83800617150B1104BF0
S2140071481B6803B19847236BB3B1606B0121BDE898
S21400715810401847A37923B92179208830F0A9FB75
S214007168F1E72046FFF79AFF04F1080030F0B6FC76
S2140071782046FFF7ADFFE6E710BD00BFA82E0400C7
S2140071888C16002010B5044638B3144816F010FACA
S214007198002194F83800617150B1114B1B6803B197
S2140071A89847236BCBB1606B0021BDE810401847A9
S2140071B8A3793BB921792088B1FA81F1490930F0E1
S2140071C878FBEEE72046FFF769FF04F1080030F089
S2140071D885FC2046FFF77CFFE3E710BDB32E0400CE
S2140071E88C16002010B5044668B1074816F0E0F97A
S2140071F8637920461BB1BDE81040FFF7C3BFBDE862
S2140072081040FFF791BF10BDBF2E040010B50E4CFE
S2140072180E48214616F0CCF982210D4816F0C8F91A
S21400722882210220A21E01F0F5F9014630B134F899
S214007238022C0848BDE8104016F0BAB90648BDE862
S214007248104016F0B5B900BFEE5B0020CE2E040045
S214007258E92E0400F42E0400382F040038B5114C2B
S21400726882212246022001F0C5F9A51C014688B1F4
S21400727822880D4816F09CF92A460C4B03F12C017F
S21400728853F8040B8B4242F8040BF9D11B781370A1
S2140072982C23238035F8021C054A0648BDE83840EA
S2140072A816F086B9EC5B0020432F0400C32F0400B9
S2140072B8EE5B0020A12F040010B50C4C0C482146AC
S2140072C816F076F982212320A21E01F0A3F90146C2
S2140072D830B134F8022C0748BDE8104016F068B9FB
S2140072E80548BDE8104016F063B900BF6C5B002087
S2140072F8F02F04000E300400382F040010B5094C97
S21400730882212246232001F075F910B10023A370CC
S2140073182380054A054832F8021CBDE8104016F0DE
S21400732847B900BF6A5B00206C5B00204930040048
S21400733810B50C4C0C48214616F03AF98221242048
S214007348A21E01F067F9014630B134F8022C07484E
S214007358BDE8104016F02CB90548BDE8104016F0F8
S21400736827B900BFEA5A00206E30040094300400A3
S214007378382F040010B5094C82212246242001F03B
S21400738839F910B10023A3702380054A054832F85E
S214007398021CBDE8104016F00BB900BFE85A0020E2
S2140073A8EA5A0020D7300400114B70B51C88E4B1A7
S2140073B8104E35887E2D19D8C5F17F05ADB2AC4282
S2140073C805D92246611B0C4816F0F2F82C4633887D
S2140073D80A48224618440A4917F098FB33881C4482
S2140073E80023A4B234802644B37070BD0025E8E7B5
S2140073F8E85A0020EC5B002004310400EE5B002015
S214007408EA5A0020034B1B781BB18B4201D830F098
S21400741856BB70477A75002010B5044601460E48DC
S21400742816F0C6F8012C11D10C4B0D481A884FF6E9
S214007438FF739A421EBF0022094B5A7430F01FFA97
S21400744802F026FCBDE8104002F096BA0448BDE8F3
S214007458104030F016BA00BF3E3104002C750020EC
S214007468906F002070B500241A4D1B4E3378A34247
S2140074781BDC0024194D1A4E3378A3421BDC00246B
S214007488184D194E3378A3421BDC01F04BFA01283D
S21400749816481CD130F0F3F902F0FAFB02F06CFA49
S2140074A8BDE87040124801F05DBA2846FFF756FD61
S2140074B801346435DAE7284630F0C7F90134343544
S2140074C8DAE7284630F0FAF901343C35DAE730F0E6
S2140074D8D8F9E5E7DC26002031640020282B0020B8
S2140074E83264002074240020DA630020906F0020A5
S2140074F8217400002DE9F04F9FB0FFF7AFFEFFF7AD
S214007508FDFEB648B64C30F8021B02F0B1F8FFF79D
S21400751831FFFFF749FFB34B09A8099330F002FA89
S214007528054617F05FF8C2B21F2A627004D9AE4843
S21400753816F03EF800F09AFE2946A01C17F0E6FA68
S21400754809A830F0EFF9054617F04CF8C2B21F2A22
S21400755884F8212001D9A548EAE7294604F1220043
S21400756817F0D4FA102200210AA817F03FF91022C3
S21400757800210EA817F03AF91022002112A817F0D9
S21400758835F91022002116A817F030F9102200212C
S2140075981AA817F02BF909A830F0C4F94FF000091B
S2140075A804463225DFF88C82CDF80C902378002B21
S2140075B840F0BD80DFF880B28D4A9BF800700AADB7
S2140075C80EAC12A816AE1AA99F4202F1880200F362
S2140075D83985884CFFF746FF2378874F01933B7819
S2140075E8DFF858A2854E00939BF800309AF80020E2
S2140075F83178834815F0DCFF002033789AF80020AD
S2140076089BF800109D180D443978DFF834820D4435
S214007618217804460D444146EDB2834200F32B859B
S214007628DFF8E491012D38BF01254A4600234F466E
S2140076384FF482714FF6FF7403950398013398420E
S21400764813705180948002F10C02F6DC6D4B6E4983
S2140076586348BB6001F05EFAF879BB6800EB40004F
S21400766803EB800001F010F8FB796749013367489F
S214007678FB7102F0F1FD664B1B88A34203D06249FA
S214007688644801F071FB00255E4C3278AA4200F38C
S214007698FB844FF000080C255F4ADFF86C919AF8D7
S2140076A800003178404500F3038500EB01080C2103
S2140076B8002701FB08919BF800208823BA4200F3B4
S2140076C818850C2100274FF0940B96F800809AF83E
S2140076D80030494D984401FB089128784F4AB84233
S2140076E800F31E8537780C269AF800304FF000080D
S2140076F84FF0700A1F44074406FB0796DFF844B1AC
S214007708DFF8F09099F80030434500F31E8503999A
S2140077183D4801F047F8099B32491A468B4240F02B
S2140077282A853F481FB0BDE8F04F15F041BF532BE0
S2140077380AD163784C2B40F01181A378502B17D1CF
S2140077480122384B1A7013E0442B1AD16378A3F140
S2140077583002092A00F2E282601C30F0F0F8324B60
S214007768324A1978002385B2994202F1640204DC91
S21400777809A830F0D7F8044618E722F84A5C01331F
S214007788F2E7422B60D16378542B08D1A01C00F096
S21400779819FF1F4B188018462FF0B2FFE8E7601C49
S2140077A800F010FF0646E01C30F06EF90121024694
S2140077B8304630F025F964211B481C4C03785943A1
S2140077C8621866524FF4FA6111824FF4487151619B
S2140077D817490133558311650370C9E76A5B0020B2
S2140077E8CC6D0020EE5B00205D310400743104008F
S2140077F8981D0020D5630020D6630020D96300209A
S214007808A33104008C17002014170020E41600206B
S2140078182C75002094160020B81F0020DC1B0020C2
S214007828FF310400D463002031640020DC260020E9
S21400783817790300282B0020D7630020D863002080
S214007848C82100208C1A00204C2B26D1601C00F082
S214007858B9FE002234260746114630F0D1F8C3494F
S214007868087806FB00F328F8037008EB0302E378B1
S2140078781046693B18BF012393702FF0E6FF0023DC
S214007888BB48BA49436001230A78037402FB06869C
S2140078981A4406600A7003936AE7492B40F07C8115
S2140078A86378A3F14102032A00F2DF80601C00F02F
S2140078B889FE00221146074630F0A2F83423AB4E64
S2140078C8DFF8CCA2307803FB00F22AF802700AEB45
S2140078D80201E2780846693A18BF01228A702FF03A
S2140078E8B4FFA449002308460A6D3ABB582202FB97
S2140078F803003423327802FB03A303659E49002362
S2140079080846D1F8A420FAB9A82202FB03003423BB
S214007918327802FB03A3C0F8A430039B53B9944AF9
S214007928114652F8040BA8B93422307800FB02A29C
S21400793841F8232033780133337019E70133042BD9
S21400794801F15801D0D1D9E70133042B01F1A80180
S214007958D7D1E2E70133042BE3D1EBE7A3F14102E9
S214007968032A3CD8601C00F02DFE0646E01C30F0CA
S2140079788BF801210246304630F042F864227F4FE9
S2140079887F483978DFF8F0C14A43831886524FF4A7
S21400799848721A825A617B4A5D839A65E278A824FF
S2140079A8642A08BF0122784E08BF9A7033785C4371
S2140079B80CEB04020CF804304FF4007454800324D3
S2140079C814719471642401FB040090603220013322
S2140079D8DBB20131537182F8A0003970ACE7542B42
S2140079E87FF4C6AE00260DF12301A01C8DF8236097
S2140079F82FF0C8FF00283FF4BBAE9DF82320002ACE
S214007A083FF4B6AE4FF0640E4FF6FF77DFF86CC162
S214007A185B489CF80010DFF860A10EFB01F4031920
S214007A2883F860204FF448720753A8241A825A61D4
S214007A38554F544A01FB0E009A653B7801315C436A
S214007A480AEB04020AF8043040F2012490605480DD
S214007A58322003240133DBB216719471537182F815
S214007A68A0008CF800103B7082E6542B7FF480AEA2
S214007A7800230DF11F01A01C8DF81F302FF082FF88
S214007A8800283FF475AE9DF81F0000283FF470AE3E
S214007A98DFF800B19BF800600B2E3FF669AE23793D
S214007AA83A4FC6EBC601312B4FEAC60207EB010A6E
S214007AB8785401D0342B1ED10021601D8DF8231078
S214007AC80DF12301CDE904322FF05CFF00283FF4C6
S214007AD84FAE049B059A312B14BF04230123921B37
S214007AE817447B700123BB709DF82330FB7001366A
S214007AF88BF800603CE6322B7FF43AAE08A9601D8E
S214007B082FF040FF00283FF433AE0DF12101E01DB1
S214007B182FF038FF00283FF42BAE0DF1220104F1B8
S214007B2809002FF02FFF00283FF422AE0DF12301A5
S214007B3804F10B002FF026FF00283FF419AE0223AD
S214007B488AF8013004238AF802309DF820308AF833
S214007B5803309DF821308AF804309DF822308AF8E0
S214007B6805309DF823308AF80630C0E732640020D6
S214007B78906F0020B81F0020C82100203164002024
S214007B88DC2600200D740000D9630020DC6300208A
S214007B98282B0020DB630020522B50D16378542B0F
S214007BA876D100230DF12201A01C8DF822302FF08B
S214007BB8E9FE00283FF4DCAD9DF8220000283FF4DB
S214007BC8D7ADB54B1F78052F03D8B44A1678052EBF
S214007BD804D92146B24815F0EBFCC9E53C214FF024
S214007BE8FF3C7143DFF8C8A24AF801C001EB0A0B54
S214007BF801218BF8041000218BF838008BF806104A
S214007C088DF82310217959B10DF12301201D2FF08D
S214007C18B9FEA14BA14A18B19DF823108BF839106C
S214007C28582179439F4844184754C6EB06110AEB77
S214007C38810101360137E16416701F7098E5502BF4
S214007C4812D16378542B40F0438100230DF12301B1
S214007C58A01C8DF823302FF095FE00283FF488AD41
S214007C689DF82320904B6DE5572B09D1601C00F03A
S214007C78A9FC8E4EB060E01C00F0A4FCF06077E52E
S214007C88592B78D1601C2FF05AFE884B18606FE588
S214007C98413B032B3FF66CADDFF8FCA19AF80030A9
S214007CA8052B96D87D4E3378052B92D8601C00F0AD
S214007CB889FC0022114683462FF0A2FE3C23327828
S214007CC87B4F5A4327F802B04FF0010BB91881F8DA
S214007CD804B0E27872B1E01C00F074FC0022114691
S214007CE804462FF08DFE3C23327803FB02777C8017
S214007CF887F806B058229AF800306A485A4381181E
S214007D08835430786A4CC0EB001204EB8202CA64D3
S214007D180133421C32708AF8003029E54D2B7FF477
S214007D2827ADA01C2FF00BFE0021C0B2042828BFE8
S214007D3804200B464FF0880A8C465E4C5E4F267829
S214007D48DFF888B1F2189842D2B205DC00293FF471
S214007D580FAD304420700BE50AFB02FE07EB0E0160
S214007D6807F80E2081F802C0C1F854B081F858C050
S214007D7801330121E6E7582B6AD84C2B48D8432B09
S214007D887FF4F6AC601C00F01DFC0646E01C00F014
S214007D9819FC00220446114630462FF031FE002218
S214007DA8204611462FF02CFE3C203C4F404A3B789C
S214007DB800FB03FC02EB0C0122F80C604FF0010CF0
S214007DC8002681F804C08E7103EB0C01C9B2484343
S214007DD81452702402EB000E8EF80660374E981C7C
S214007DE838703078364F4443C3EB0313C1EB0111A8
S214007DF802EB83038EF804C002EB810207EB040C47
S214007E0838550130CCF80430CCF808203070AFE490
S214007E184D3B0B2B3FF6ACAC01A252F823F000BF4B
S214007E286D7E00007977000079770000D97E000023
S214007E387977000079770000797700007977000075
S214007E48897E00007977000079770000AF7F000010
S214007E58692B7FF48DAC601C2FF071FD80B22FF07B
S214007E682AFE85E4174B012019780023164A994202
S214007E7802F1A8027FF77CAC02F8A60C0133F6E7FD
S214007E880DF12301601C2FF07DFD00283FF470AC37
S214007E989DF823906CE400BFD8630020DA630020C6
S214007EA884310400B81F002030640020CC2600204F
S214007EB874240020D7630020981D0020D563002076
S214007EC88C1A0020D9630020C82100200001640015
S214007ED80DF12201601C2FF055FD00283FF448AC38
S214007EE89DF822600F2E3FF643AC03342378002B10
S214007EF83FF43EAC4C3B671C0C2B16D8DFE803F06F
S214007F081735150715151526151515154400384681
S214007F180DF123012FF036FD38B19DF8232006F128
S214007F2878036B4403F8502CE71C3C46DEE73846DB
S214007F380DF123012FF026FD0028F6D09DF823200A
S214007F4806F178036B4403F8402CEDE738460DF14C
S214007F5823012FF017FD0028E7D09DF8232006F10F
S214007F6878036B4403F8302CDEE738460DF123011E
S214007F782FF008FD0028D8D09DF8232006F17803B6
S214007F886B4403F8202CCFE738460DF123012FF079
S214007F98F9FC0028C9D09DF8232006F178036B4425
S214007FA803F8102CC0E7601C00F00CFB0746E01C2A
S214007FB800F008FB0646601D2FF066FD04460246E4
S214007FC8012138462FF01CFD2246304601212FF0AD
S214007FD817FD6421DFF8C4C16C4B9CF80020DFF85D
S214007FE8C0E101FB02F41F534FF4487718190782C3
S214007FF84761C0F858E04583501CC0B201FB00FA40
S21400800823F80A60942603EB0A0427826761604F08
S214008018C4F858E06583941C8CF800403C7802FB52
S2140080280132664300FB0133DFF878C10CEB060E1D
S2140080380CF806400134CEF80420CEF808303C7020
S214008048FFF796BB15F801CB02F8809C02F885CCA2
S21400805814F801CB013302F884CC10F801CB02F8EF
S21400806883CC16F801CB02F882CC11F801CB02F8C3
S21400807881CCFFF7A9BA4F790130974284BF0C71BB
S2140080884C71A831FFF7C9BA3DB119F8052C02EBB7
S214008098420204EB8204C9F808404946404601F00B
S2140080A8E1FF013508F1A80809F10C09FFF7EDBA58
S2140080B818EB01010AD0481E05FB0090C07900EBBA
S2140080C8400004EB800405FB01908460104605FB25
S2140080D80171049201F058FD31782E48414405FBA1
S2140080E8017101F02FFC049A08F101085832FFF7D5
S2140080F8D6BA17EB080F18BF11F8052C04911CBF49
S21400810802EB420204EB8204234A18BF8C6003FB8E
S214008118072001F081F9049901370C31FFF7CBBA33
S21400812817EB080F18BF11F8050C04911EBF00EBDB
S214008138400004EB80048C600BFB072000F0D8FF9F
S214008148049901370C31FFF7C8BA18EB070F18BFA8
S21400815816F8053C31461CBF03EB430304EB8304C7
S2140081680AFB08B018BFB46000F098FE08F10108D2
S2140081780C36FFF7C7BA13F8011D00297FF4CCAAFE
S2140081883B2102F8011CFFF7C7BA00BFDC26002017
S214008198D663002068240020981D00203164002043
S2140081A80D740000DC1B002007B5012121200DF10D
S2140081B8070200F01FFA18B99DF80720024B1A703C
S2140081C803B05DF804FB00BF7A75002007B5064BC0
S2140081D88DF80700187001210DF10702212000F024
S2140081E819FA03B05DF804FB7A75002007B502217A
S2140081F801200DF1060200F0FDF938B9044815F023
S214008208D7F9BDF8060003B05DF804FB0020FAE7CE
S2140082181C32040007B50221ADF806000DF106026F
S214008228012000F0F7F9014610B1034815F0C0F92F
S21400823803B05DF804FB00BF3D32040010B5FFF73D
S214008248D5FF04460146074815F0B2F9012106484D
S21400825815F0AEF924B9BDE810400120FFF7DABFE3
S21400826810BD00BF6D3204007F32040008B5044814
S21400827815F09EF900F0DEF92FF021FC2FF01CFC1B
S2140082889532040038B50446084D094B28462B603D
S21400829800F006FA002C18BF21462846BDE83840EC
S2140082A808BF4FF496712FF014BC00BF2C2C00208A
S2140082B8BF7903002DE9F043394D93B008AC074663
S2140082C8894690460FCD0FC40FCD00260FC495E8FB
S2140082D803000323012584E80300324C3248CDE925
S2140082E80366CDE905668DF80E30079602953AF0D6
S2140082F8C0FA2E483AF0BDFA32462D4920468DF887
S214008308176005F073FD334632462A498DF8190082
S214008318009020468DF82390CDF82C808DF82160AB
S21400832805F07EFD0A9020468DF8097005F0DEFC03
S214008338204608AA05A905F099FD02AA204603A921
S21400834830F0FBFD4FF400721B4B5A62194BE56088
S214008358626A920510D46BB94FF40072164B114836
S2140083685A6205F0C3FC11483AF086FA002013B0AA
S214008378BDE8F083013BEBE7002BEDD0094908A8E0
S21400838830F00EFE4FF400720B4B06485A6205F0AA
S214008398ADFC06483AF070FABDF82000E7E700BFE3
S2140083A828CA04000040005A78CC040074CC0400A4
S2140083B880841E0040420F000060005A0122034BD2
S2140083C81870034B1980034B1A70704734640020EA
S2140083D83475002033640020F8B5454B1B780BB97C
S2140083E80020F8BD434B1B78012B03D1BDE8F840AD
S2140083F82FF0E4BA404B1C884FF6FF739C42EFD030
S2140084083E483AF036FA0023260AE4B21A462146CF
S214008418304605F02BFC012E354604F0010335D016
S21400842815D9B51E012DDBD8002B0BBF4FF4807570
S2140084384FF080754FF470614FF070610BBF0127E5
S2140084484FF480370F204FF470202D4B11E0002B8F
S2140084580BBF4FF480754FF080754FF470614FF086
S21400846870610BBF01274FF480370F204FF4702040
S214008478244B1A6802401CD0BA421AD01A680A401E
S21400848832D11A6822EA01022A4316E0002B0BBFF3
S2140084984FF480754FF080754FF470614FF070613F
S2140084A80BBF01274FF480370F204FF47020164B70
S2140084B8DFE71A6822EA00023A431A602FF07EFACB
S2140084C8054600288CD0083644EA06102A460321BA
S2140084D8C0B2FFF7EFFE40F6FF73684300F2FF7086
S2140084E8B0FBF3F080B27CE795427FF479AFC8E73B
S2140084F833640020346400203475002078CC0400EF
S21400850828C3035020C3035024C3035010B5044C9B
S214008518237823B903483AF0ACF90123237010BD39
S2140085283664002078CC04002DE9F0431F4C85B053
S214008538074688469146FFF7E9FF23781BB902F0FD
S2140085483BFE012323707BBAADF80C3030220023A3
S214008558174E02FB03F4315DA51901BB0123335501
S2140085684FF0FF3304F1100012493044AB606F80BF
S214008578C5F80480C5F80C900AF016F904F108014D
S214008588042231440C4B009503A802F0EBFEA968C0
S21400859802460A4815F00CF805B0BDE8F08301332A
S2140085A8102BD6D1064815F003F8F5E735640020F9
S2140085B8542C0020E9790300FB790300A23204005A
S2140085C8D032040080B10278A2F14103032B0BD805
S2140085D840783038C0B2082806D8054B134413F83C
S2140085E8413C40EA032070474FF6FF70704700BFD3
S2140085F850CA040008B50B4642B101460448006854
S21400860803F0F8FFBDE808402FF04FBA022008BD77
S214008618FC6F002008B50B4642B1014604480068C6
S21400862804F070F9BDE808402FF03FBA022008BDF4
S214008638FC6F0020F0B50026124F8DB0FF23009384
S2140086480A223346386802A930F01CFAC0B102ABD9
S2140086581D4603EB800404E055F8043BB34228BFEC
S2140086685E1CAC423868E9D9296804F0D1FA0028BB
S214008678F2D02D28F0D00DB0BDE8F0402FF015BA96
S2140086880DB0F0BDFC6F002028B1034B0360034B10
S214008698436000238360704719000003A46F00201E
S2140086A8FF2307B50021044A009308300AF000F8B3
S2140086B803B05DF804FB00BFD57A03000B460449F7
S2140086C8024608680349097808B12FF01FBA7047B0
S2140086D8602F002038640020F7B50C4618B1292111
S2140086E819483AF02CF9246823685E795F88304682
S2140086F83946FFF7E3FFF0B18568E5B1A089227D2A
S2140087083946904291BF0020801AA36880B294BF71
S21400871803469B18E27C00903046A8470138032899
S21400872803D8DFE800F0080F0B0D0024204633F0CE
S2140087385CFB204600E0812003B0F0BD8024F5E70E
S2140087489324F3E78724F1E7F8320400F8B51546D2
S2140087580D4A044610680D4A0B46117850B1224659
S2140087682FF0D4F9034628B100210C27C678B14269
S21400877801DB0020F8BD07FB01F45A681019125BEC
S214008788AA42F7D00131F2E7602F002038640020B3
S21400879808B5034B1B6803B19847002008BD00BF07
S2140087A85C2F00202DE9F74F04460D460026454B62
S2140087B8454F1860454B197033010021F85C0136A7
S2140087C810F0CCFD0C2EF7D10C2D28BF0C254FF041
S2140087D8000901953C4EDFF800A13D4DDFF8FC800E
S2140087E8019B4B4502DC03B0BDE8F08F23784FF0C1
S2140087F8000B337063887380A388B380A379C6F8A8
S2140088080880B371E379C8F8005088F804304FF050
S2140088180003A768A8F80630E3795B450ADC01215F
S21400882816F8100B10F09AFD08F1080809F101096E
S2140088380C34D5E74FF0000338886B812880FB7826
S2140088484FF0000C2B81BA78C5F804A0002A0092D5
S2140088580CBF802240222A7379680AF10C0263450D
S21400886813DC03EB43030AEB830ABB6843B1009AA5
S2140088784FF6FF71B2FA82F2164B520933F045FAF8
S21400888814350BF1010B0C37C6E7B1F800E00CF114
S214008898010C22F80CEC91F802E00C3202F816EC07
S2140088A891F804E00C3102F815EC11F809ECBEF169
S2140088B8010F14BF4FF0100E4FF0110E02F814EC13
S2140088C8CDE700BF602F0020B446002038640020A3
S2140088D864350020E1860000642F0020E43700207D
S2140088E8014B1860704700BF582F002070B51288DB
S2140088F805460E46FFF72AFF044670B1027904992A
S214008908806815F0C5FF064B1B680BB9002070BDC4
S2140089183146284622889847F8E78620F7E700BFBA
S214008928582F002008B50FF0B5FD022806D00128FC
S21400893806D0044B18784000C0B208BD0120FCE7FA
S2140089480220FAE737640020054B10B51C682CB1E6
S214008958FFF7E8FF2346BDE81040184710BD00BFE4
S214008968542F0020014B1860704700BF542F00207A
S214008978034B1A781AB901221A700BF091BD70478A
S214008988376400200022024B1A70FFF7DDBF00BFD5
S2140089983764002037B50446002836D00FF07AFD35
S2140089A8022834D1608933F09DFDE079237A0038B7
S2140089B818BF0120012B637A08BF40F008000BB1EE
S2140089C840F0100063890BB140F00400257CA188B4
S2140089D8A2790DB1E36893B90F4B11F09BF8217893
S2140089E8084611F013F933F089F8044611F0CCF86C
S2140089F87CB100280CBF0020032003B030BDCDE9B1
S214008A080035064B11F086F8E9E70220F5E7012065
S214008A18F3E72046F1E700BF1C8104001F5004005E
S214008A2808B50DF09BFE014630B1044814F0C0FDB1
S214008A38BDE808400EF036BA08BD00BF6A33040029
S214008A48034B044A5B7C012103201370FFF7E2BD49
S214008A58906F00203964002038B50446FFF7F0FF11
S214008A68B4F57F4F0AD100251B4B1A8813449D7016
S214008A78FEF7CCFB2846FFF705FC06E04FF6017329
S214008A889C4207D115482EF0E2FE2046BDE8384045
S214008A9800F0A0BE4FF602739C4204D1104B187823
S214008AA8FFF794FBF1E74FF611739C4207D10025B8
S214008AB80C4B1A8813449D70FEF7FEFBDAE74FF658
S214008AC816739C42E1D10025074B1A8813449D7003
S214008AD8FEF72EFCCEE700BFEC5B0020906F002070
S214008AE87A7500206A5B0020E85A002010B5074C0B
S214008AF8012122460320FFF77DFD28B92378044A82
S214008B08003B18BF0123537410BD00BF3964002012
S214008B18906F0020F8B5664B32251A884FF6FF731B
S214008B289A4218BF03234FF008020C46614918BF43
S214008B380B70614B1A7030225D70DD7036259A70A6
S214008B485A71DA7134221D7139251A724FF40012DF
S214008B589D715A4D4264C564594D01220565594DAB
S214008B6886188565584DC667C565584D584E45667E
S214008B78584D80F848208566574D80F8542005677C
S214008B88564D80F860204567202580F8785080F894
S214008B98845000F12105C0F88850514D80F86C20AB
S214008BA8C0F88C50C0F8806080F89020C0F8941008
S214008BB8C0F8B8304B4B4C49C0F8BC300223C0F85C
S214008BC898104A4980F8C030C0F8A4100F21484BC6
S214008BD880F8A810C0F8C430464B4749C0F8C830DB
S214008BE88223C0F8AC10454980F8CC30C0F8B010E5
S214008BF80921434B434DC0F8D030434B80F89C20A6
S214008C08C0F8D430414BC0F8A000C0F8DC302B7C4C
S214008C1880F8B41080F8D820002B45D00E213C4BA5
S214008C2880F8E420C0F8E03005F11103C0F8E83019
S214008C380C2303FB0102374E01FB033356648226DE
S214008C48354F82F84860D764344A03445A64344A35
S214008C5883F8486000F144078E1CDA6431463846CB
S214008C6800F08CFD4FF0000EE279A16802EB42039B
S214008C784FEA830C21F80CE001EB83030121304412
S214008C880A44D8705F609970E271FFF78DFAFFF7B3
S214008C982DFFFFF747FE012808D12B7C33B1BDE82E
S214008CA8F84018482EF0D3BD0D21C1E7F8BD00BF27
S214008CB82C7500207B7500203A64002069CA0400E1
S214008CC80100200068CA04000200200067CA0400E9
S214008CD8050042000300200066CA040004004200A3
S214008CE807003000FDFF210012001001004042007E
S214008CF864CA040000FF440154CA04000600420087
S214008D08EC5B0020906F002002FF20017A7500209F
S214008D1801FF100111FF44016A5B002016FF4401A1
S214008D28E85A002013B504460D482EF0F4FC6422D9
S214008D38C0F30F43637083B2B3FBF2F3A0782370DB
S214008D48202201212EF004FFA078212201212EF0F6
S214008D58FFFE0449201D02B0BDE810402EF0B9BE43
S214008D682C750020E09304000B7870B583704CF6E1
S214008D781E0303804FF02013C362012380F83030AF
S214008D8880F83C30C3180364124B0446436402233D
S214008D98114A80F84830114B8263C3644063CA792D
S214008DA88D6802EB420305EB830004F12C0646604F
S214008DB80B4E45F8236000238360531CCB71094B88
S214008DC8201DC4E90134FFF76BFC2046BDE870405F
S214008DD8FFF7A8BFFDFF2100210020006ACA040093
S214008DE8010001032D8D0000437B044A0121137006
S214008DF800781230C0B2FFF70DBC00BF44640020F4
S214008E0838B504460078054D12302A460121C0B20E
S214008E18FFF7F0FB08B92B78637338BD446400206D
S214008E28024B53F820002EF05ABF00BF44380020EB
S214008E38012908B506D0022907D049B92EF046FF01
S214008E48002008BD2EF045FFFAE72EF045FFF7E7AD
S214008E58024814F0ADFB0120F3E700BF9733040087
S214008E6810B4054C114654F820001A46BDF80430D4
S214008E785DF8044BFFF7DCBF44380020002310B52C
S214008E88044683810364A0F844304830FFF708FCA2
S214008E98014BC4E9123410BDCD7C030038B5044636
S214008EA80B781A4A43700D4642F82300FFF7E6FF90
S214008EB82046FFF7A5FF4FF4401323610123144A09
S214008EC82375A261134A84F82030E261124A84F8B6
S214008ED82C306262114A84F83830A26204F10C021F
S214008EE822630F4A04F10D036263E363EA79A86814
S214008EF802EB420300EB830110344C60094C40F847
S214008F082340094B8B60531CEB7138BD4438002056
S214008F1843640020080020007C75002000FF300015
S214008F2801FF100102010104698E000010B47024CC
S214008F38427B0D48013A012904FB020006D00229AB
S214008F4808D059B95DF8044B2EF0C0BE5DF8044B46
S214008F582EF0BFBE5DF8044B2EF0BEBE03485DF88B
S214008F68044B14F025BB00BF8C1A0020B333040052
S214008F78B0F85C302DE9F0418B4204460E4638D0F6
S214008F88437B077C8BB31C4A12789A422DD37025F4
S214008F981A4A013B05FB032390F80F801B7B4246C9
S214008FA82EF0ABFEB845054601D1FF281FD13A463C
S214008FB83146204694F890302EF09FFE2F46054600
S214008FC8552212216078A4F85C602EF0C1FDFF2FB0
S214008FD803D039462046FFF7A9FFFF2D09D02946BA
S214008FE82046BDE8F0412EF0C8BEFF25DFE707465D
S214008FF8E6E7BDE8F08100BFD56300208C1A0020A4
S21400900841688268C978D27849B112B10321FFF75E
S214009018AFBF837B002B0CBF01210221F7E72AB1E3
S214009028837B002B0CBF02210121F0E7014814F0D6
S214009038BFBA00BFC4330400037BD3B14368DA78F1
S21400904812B18268D278A2B91B7933B1837B002B20
S2140090580CBF04210521FFF78BBF83681B792BB152
S214009068837B002B0CBF05210421F4E7014814F08C
S2140090789FBA7047F6330400084A437B05211370ED
S214009088837B5370C37B9370037CD370037B13710D
S21400909800780F30C0B2FFF7BDBA00BF45640020A5
S2140090A838B5044600780C4D0F302A460521C0B264
S2140090B8FFF7A0FA20B1BDE83840084814F078BA9F
S2140090C82B7863736B78A373AB78E373EB782374AE
S2140090D82B79237338BD00BF456400203234040062
S2140090E8024B53F820002EF092BE00BF6C380020CA
S2140090F8F8B504460B78424A43700D4642F82300FA
S214009108404E2EF0A2FEFFF7CBFF6268A3683E48EB
S2140091183E49D6641165D4655065C3E91410DE640B
S214009128DC654FF0987302266361012304F10C0195
S214009138E16137491032216204F10D01A162354917
S2140091482376E16204F10E016163334984F8243022
S214009158A16304F10F012164304984F8303061645A
S21400916804F11001E1642E4984F83C3084F8483054
S214009178216584F85460A265E879A96800EB400286
S21400918801EB820704F1140CC7F804C04FF4817C85
S214009198244F41F82270C218D2B202EB420241F8BC
S2140091A822C001EB820700227A601F4A84F87030DA
S2140091B822661E4A84F88830A2661D4A1D4BE2665F
S2140091C81D4AC4F88C3062671C4A8319A26704F1EA
S2140091D85C02C4F88020DBB2194A03EB4303C4F8E8
S2140091E8842084F8646084F87C6001EB8302603431
S2140091F85460144A033041F82320E871F8BD00BFD4
S2140092086C38002009900000D97D030041900000CA
S21400921801002001020010010300300104003001A3
S2140092280500210101FC01064A0021006CCA040061
S214009238510010006ECA04006FCA040055002100D1
S2140092486F001800120001042DE9F84F06460F4675
S21400925890469946244D05F1280A55F804BBBBF1FB
S214009268000F16D0012F18D158462EF067FEB042D0
S2140092780FD1B9F1000F0CD098F800300022003B4F
S21400928818BF012306218BF858309BF801002EF0F2
S2140092985FFC5545E1D1BDE8F88F022FF9D1584655
S2140092A82EF0EAFDB042F4D100231C4606E0042B5B
S2140092B807D018F80320013342EA04249AB29145ED
S2140092C8F5D8B4F57A7F4FF0FE0328BF4FF47A74CA
S2140092D85C434FF47A7304F5FA74B4FBF3F4002293
S2140092E808218BF85440D0E79438002073B516460A
S2140092F83349052EBDF8182051F8204030D0072EE7
S21400930851D0042E57D1002B57D0002A55D01D789F
S21400931820462A1E18BF012284F8545084F8582084
S2140093282EF00CFE01238DF80420194601AA01F040
S214009338ADF920462EF0A0FD4FF47A730446FE20C1
S2140093485D437F3501A9B5FBF0F02EF08EFD0A4689
S21400935833460221204601F099F9002002B070BD7C
S2140093685BB3012A29D91B780125B3FA83F252097F
S21400937884F8842094F8582084F8855013430BD139
S21400938820462EF0DBFD29462B4601AA8DF8045010
S21400939801F07CF984F858504FF4967104F15C009B
S2140093A82EF097FBD9E7002304F15C0084F885309B
S2140093B82EF094FBD1E70120D0E70320CEE700BFCC
S2140093C894380020134B022A07B553F8200018D00B
S2140093D802D82AB9002204E0402AFBD0412A16D136
S2140093E8012280F858202EF0A9FD01238DF80720C9
S2140093F819460DF1070201F049F9002003B05DF89F
S21400940804FB90F85820B2FA82F25209E9E70120E4
S214009418F4E700BF94380020F7B504460B78544AA2
S214009428437042F82300534B0D46C0E917305C30B2
S214009438FFF736F904F1580262614F4A4FF4801379
S214009448A261A21C22624FF40012626204F1540266
S214009458E2624A4AE360226304F15502A263484A7C
S2140094680123E26304F15602626400204FF098720A
S2140094782374237784F8283084F8343084F840300E
S21400948884F84C3004F1570384F88500A2642365F9
S214009498E979AB6801EB410203EB820604F10C079D
S2140094A87760384F43F82270374A04F12407B260D1
S2140094B84A1CD2B202EB420203EB82067760334FB5
S2140094C843F82270324A04F13007B2608A1CD2B2DE
S2140094D802EB420203EB820677602E4F43F82270B7
S2140094E8CA1CD2B202EB4202B06004F1480703EB92
S2140094F882067760284F043143F82270B060E9711D
S214009508264801F0EDF8A5798DB14FF47A72FE2061
S21400951894F8553001A953437F33B3FBF0F02EF08F
S214009528A4FC0A4604230221284601F0AFF8E57990
S2140095388DB14FF47A72FE2094F8563001A9534341
S2140095487F33B3FBF0F02EF090FC0A46042302218A
S214009558284601F09BF8607940B194F8573004210A
S2140095688DF8043001AA012301F090F803B0F0BD8D
S21400957894380020997E0300034030011000200133
S2140095881100200106000102CD9300000800010129
S214009598F592000001030102070001015192000044
S2140095A8024B53F820002EF0D2BC00BF943800209F
S2140095B8F0B51E4C002527780A24DFF880C0EEB2E6
S2140095C8B74207D905FB044E1CF80EE06E1C86450C
S2140095D807D142B9164C246834B3A446BDE8F04017
S2140095E860473546EBE7134804FB05014C79012C28
S2140095F80DD1CBB113788B710A2303FB0500BDE8A8
S214009608F0400D4B4288002118782EF0A1BA042CA1
S2140096180AD1032B08D9D3788B719378CB715378FA
S2140096280B7213784B72E7E7F0BD00BF4B6400205F
S214009638C03800206E5C002014170020645C0020F0
S21400964810B5094C237853B12EF04CFA074B1B681B
S214009658C01A40F6B733984203D900232370002077
S21400966810BD0120FCE700BF4A640020BC3800207B
S2140096782DE9F04F0024DFF800818946064685B0BC
S21400968888F8004000286ED0A346A7B2B94502D095
S214009698F35D3B2B4DD15F4548D998F800500B2D0C
S2140096A844D800238DF80E308DF80F30A4EB0B034A
S2140096B8DBB2052B52D106EB0B0A50460DF10E0114
S2140096C82EF09EFC002849D09DF80E200192002A14
S2140096D844D00DF10F010AF103002EF091FC00288A
S2140096E83CD00A216943214B019A58185A549DF8D0
S2140096F80F2062F0FF0242809AF80220452A24D002
S214009708562A26D0422A29D101224FF0100C0120D1
S2140097184FF00A0E0EFB05314A700022013581F81B
S21400972804C04871C1F8062088F8005001371FFAAF
S21400973887FB0134A3B29945A7D298F800100C48C5
S21400974805B0BDE8F04F13F033BF04224FF0300CDD
S214009758DDE702224FF0230C0420D9E759460548D6
S21400976813F026FFE2E705B0BDE8F08F6E5C002038
S2140097787C340400613404004B64002070B5002477
S2140097880126124B01EB41011D78114B00EB8101BC
S214009798E0B2854203F10A0201F10C0101D828461D
S2140097A870BD32F8080C063321F80C0C12F8060CBB
S2140097B801F8096C01F80A0C12F8050C013441F896
S2140097C8043C01F8080C1346E2E700BF4B6400208F
S2140097D86E5C002073B5194B00221D78184B1C468A
S2140097E8D1B28D4202D8002002B070BD5E88511CEE
S2140097F8B04203F10A0313D10A2101FB02414B7957
S2140098088879012B0ED18DF804000A2101FB02F09D
S21400981821184978205C01AA00F038FF0120E3E708
S2140098280A46DDE74D7A8DF807008DF804500D7A64
S214009838C9798DF805508DF80610E6E74B640020C8
S2140098486E5C002008B5064B1B7843B100F04EFF4F
S214009858044B18600448BDE8084000F041BF08BD46
S2140098684B640020C0380020B995000010B50A4B9C
S2140098781B7883B10122094B1A702EF033F9084B76
S214009888186000F059FEBDE81040002301461A464D
S214009898282000F0ADBE10BD4B6400204A640020AE
S2140098A8BC38002070B50E461346054614460A46D0
S2140098B80146204813F07CFE0A2E09D80A2E12D834
S2140098C8DFE806F0121111111111271711112C00DB
S2140098D840F201339E4210D04FF601439E4212D00A
S2140098E8B6F5817F1FD070BD2046BDE87040FFF7F3
S2140098F8B3B82146284600F079FB21462846BDE83D
S2140099087040FFF74DBE21462846BDE87040FFF779
S214009918E7BB2146284600F0F1F8EEE72046BDE80A
S214009928704000F05FBC21462846BDE87040FFF74F
S21400993877BA00BF9E3404000148FEF7D1BF00BFC7
S214009948AD9800004FF4C01330B5036001230371CF
S214009958074B8C688360CA7902EB420304EB8305E5
S2140099686860044844F82300531CCB7130BD00BF20
S21400997870CA04000400010138B50024044D55F8E7
S214009988040B08B12EF04FFB01340A2CF7D138BD72
S214009998C4380020042908B50AD172B16BB113780F
S2140099A81BB92EF06BFB002008BD2EF05DFBFAE716
S2140099B8034813F0FDFD0120F6E70320F4E700BF97
S2140099C8D134040010B4054C114654F820001A4649
S2140099D8BDF804305DF8044BFFF7DCBFC438002040
S2140099E80229024608B50ED004D839B910462EF01A
S2140099F845FB06E04029F9D0412907D110462EF04C
S214009A0833FB002008BD2EF043FBFAE7024813F0AC
S214009A18CFFD0120F6E700BFF134040010B4054C72
S214009A28114654F820001A46BDF804305DF8044B79
S214009A38FFF7D6BFC4380020C26C094B52791A709B
S214009A4882785A70C2789A70026D12B190F85420D3
S214009A58DA70007804210930014AC0B2FEF7DABD90
S214009A684C64002037B50D460446002841D04FF612
S214009A780273994201D12EF0D6FAE36CABB193F893
S214009A88382092B144F2030295421AD11A4B18783C
S214009A9858B1A37813B1012B18BF02238DF80430F0
S214009AA80421012301AA00F0F1FDE378022B02D07D
S214009AB820462EF0B8FA204603B0BDE83040FFF73F
S214009AC8BBBF44F201029542EFD193F83900002853
S214009AD8EBD00A22B4F856300221B3FBF2F35BBA95
S214009AE80022ADF806300423ADF804200DEB03027F
S214009AF8D9E703B030BD00BF30640020024B53F8EE
S214009B082000FFF7AFBF00BFC438002038B50446B2
S214009B180078084D09302A460421C0B2FEF76AFDCF
S214009B2830B96B78A370AB78E370EB7884F8543070
S214009B3838BD00BF4C64002038B504460078114D87
S214009B4809302A460421C0B2FEF754FDC8B9A378E6
S214009B582A78022B0CD004D863B920462EF08EFA49
S214009B6801E0FF2B0AD02046BDE838402EF05BBA4D
S214009B78002AF2D120462EF077FAF4E7002AF9D127
S214009B88EBE738BD4C640020F8B504460B78324A3B
S214009B980D4642F823004370FFF7B8FFE36C2F4AE0
S214009BA85C631A632046FFF7C7FF20462EF03BFA91
S214009BB84FF4801363600123E26C2372511DE16049
S214009BC8274923752161A11CA161216D002941D077
S214009BD884F8203084F82C3004F1540323630423DB
S214009BE82049E161E11C61621F49A16292B192F8C5
S214009BF839207AB11D4903EB430204EB8202516017
S214009C08022111720C2202FB034204F156010133B1
S214009C18D160DBB20627E979A86801EB410200EBC0
S214009C28820620F82270F3700123B370104B0434B8
S214009C38B3604B1C7460DBB20E4C03EB430340F876
S214009C48234000EB8302002353600B4B02319360E2
S214009C58E971F8BD0223C9E7C4380020AD800300C7
S214009C680340300101FF300102FF100101402101CD
S214009C78259A000008000100CD99000028B1034B82
S214009C881B78834234BF002001207047D863002029
S214009C9870B500250A4C0B4E3378AB4200DC70BD1D
S214009CA8D4F8A42042B123791BB16079FFF7E6FF08
S214009CB810B910462DF0BCFD0135A834ECE700BFFE
S214009CC8C8210020D963002008B54279014610460D
S214009CD8FFF7D4FFB0B1CB7858210B48013A042BD4
S214009CE801FB02000ED8012B08D81BB9BDE80840B6
S214009CF82EF0BAB9BDE808402EF0C0B9BDE8084055
S214009D082EF0C6B908BD00BFB81F002008B54279B6
S214009D1801461046FFF7B2FFB0B1CB7858210B4882
S214009D28013A042B01FB02000ED8012B08D81BB9F8
S214009D38BDE808402EF0A2B9BDE808402EF094B958
S214009D48BDE808402EF0A4B908BD00BFB81F002023
S214009D5810B586B00446FEF7E5FD012831D1E17856
S214009D6804292ED8DFE801F014333503030062799E
S214009D781046FFF783FF60B35820174B013A00FBE5
S214009D880233DB6C032958791DD1003818BF01202F
S214009D9863784FF480728DF804304FF48273ADF810
S214009DA806300623ADF8083001238DF80B30002363
S214009DB88DF80A0001A8CDE903238DF81430FEF7C4
S214009DC8E9FD06B010BDB0FA80F04009E0E70020D3
S214009DD8DEE70220DCE700BFB81F002010B586B01B
S214009DE80446FEF79FFD012831D1E278042A2ED8D2
S214009DF8DFE802F014143303030061790846FFF71E
S214009E083DFF50B35820164B013900FB0133DB6C7D
S214009E18032A5B791DD11A1E18BF012263788DF8B4
S214009E280A208DF804304FF48273ADF80630062306
S214009E38ADF8083001234FF480728DF80B300023FC
S214009E4801A8CDE903238DF81430FEF7A3FD06B06C
S214009E5810BDB3FA83F25209E0E70222DEE700BF3C
S214009E68B81F002010B586B00446FEF75BFD012833
S214009E7812D16378094A8DF804304FF48273ADF82E
S214009E8806304FF48073CDE90223002301A804931B
S214009E988DF81430FEF77EFD06B010BD08000701E9
S214009EA810B586B00446FEF73DFD012820D162783D
S214009EB8104B8DF804204FF4827294F8A01094F892
S214009EC8A10059701870ADF8062004934FF48072FC
S214009ED80223094901A88DF81430CDE90212FEF7CD
S214009EE859FD94F8A130013B18BF012384F8A1302E
S214009EF806B010BD506400200800050110B5837830
S214009F0804460BB30379022B0BD142791046FFF7B0
S214009F18B5FE30B158200D4B013A00FB02302EF04A
S214009F28B7F8A379022B02D12046FFF711FF204687
S214009F38FFF7B6FF02236078A4F86C305522BDE818
S214009F48104012212DF004BE10BD00BFB81F00201F
S214009F584388094A082113808388538083681B8AAC
S214009F68938090F8A03093718379D3710078043089
S214009F78C0B2FEF74FBB00BFE65C002038B50D4602
S214009F88044650B1836843B193F860302BB14FF65E
S214009F980173994204BF002303712178114813F016
S214009FA807FB4FF602739D420ED10F4B1B782BB959
S214009FB863712046BDE83840FFF7CABF62790AB128
S214009FC89342F6D20123F3E7B5F57F4FF1D1204649
S214009FD82EF0E4F8A378022B0CBF01220022A36817
S214009FE89A70E6E70D350400D8630020024B53F854
S214009FF82000FFF7C3BF00BFEC38002038B5044682
S21400A0080078144D04302A460821C0B2FEF7F2FA4A
S21400A01820B1BDE83840104813F0CABA2B886380D0
S21400A0286B88E978A380AA88A3681A82AB7984F833
S21400A038A030EB79A371094B1B780BB9637138BD57
S21400A04809B19942FBD9064813F0B2FA23780133CE
S21400A058F4E700BFE65C002027350400D86300203C
S21400A06850350400F8B504460B784A4A0D4642F8BF
S21400A07823004370FFF7C2FFA26822B192F860304F
S21400A0880BB100232371444BD465D364434B02269B
S21400A0985365434BA11C13654FF44013E36001233B
S21400A0A86161E1623F49103221632265211D3E4A03
S21400A0B8A1633E483E49626504F1A002A061E163DF
S21400A0C8E265E01C611D3B4A206261643A483B49F0
S21400A0D82266A21D2374237784F8283084F8343047
S21400A0E884F84030A16484F84C6084F8583084F8CA
S21400A0F864306062A266E879AA6800EB400102EB69
S21400A108810704F10C0CC7F804C04FF0060C2C4F5E
S21400A11842F82170C118C9B201EB410142F821C0CA
S21400A12802EB810700217960264F84F88030276784
S21400A138254F84F89830A767244F254BE767254FA7
S21400A14884F8746084F88C60C4F89C3004F16C065B
S21400A158831CC4F88470C4F890601F4F1F4EDBB28F
S21400A16803EB4303C4F89460C4F8887002EB8306D4
S21400A1787034746008261A4C42F82340C31CDBB2BD
S21400A18803EB430302EB8304043042F82360616068
S21400A198E871F8BDEC380020FB8003004581030019
S21400A1A8059F000001FF300104FF20011000300168
S21400A1B802FF200105FF300100FF300103FF2101E7
S21400A1C8070001084A00210072CA04005100100066
S21400A1D874CA040075CA0400550021006F001800F0
S21400A1E81200010410B508B1072811D1094C2368DC
S21400A1F873B1094A13602DF075FC0222074B2168DB
S21400A2081860074B07481A70BDE8104013F0D0B91D
S21400A21810BD00BF2039002018390020143900204E
S21400A228526400208535040010B5084C206860B1DB
S21400A2382DF058FC064B22681B68C01A4FF47A7338
S21400A248B0FBF3F0034B1344184410BD1839002034
S21400A2581439002080436D384FF0F17330B5036031
S21400A2680423114A037103778260104B104A036275
S21400A278C260104B01224362022302740E4A80F821
S21400A288283042610D4B0E4AC3628261CA798C68D7
S21400A29802EB420304EB830568600A4844F823008F
S21400A2A8531CCB7130BD00BF203900201C3900205C
S21400A2B801001800FDFF21005264002076CA040041
S21400A2C8070023010A00010401292DE9F047054685
S21400A2D8894616461F460AD14AB1002B3ED0324B55
S21400A2E8324A1C7810460023D9B28C4202D84FF066
S21400A2F800080CE092F8381069B3A9422BD13C222A
S21400A308317802FB03002DF0F5FA4FF0010800F053
S21400A31821F990B9FFF794F9044670B92DF0E2FBDD
S21400A328234A244912F8013B9D4219D151F824309A
S21400A338984215D2002341F82430B8F1000F31D1E5
S21400A3481D4B1C6874B33B46324649462846A4460D
S21400A358BDE8F047604701333C32C5E79846D6E784
S21400A3680134042CDED1154B00241978144B9A4678
S21400A378E2B29142E1D993F8602082B1AA420ED1A6
S21400A388642505FB04A2D36C0BB1D06D984705FB7A
S21400A39804A56B6D33B1E86DBDE8F0471847013486
S21400A3A86433E5E7BDE8F087DA630020742400200C
S21400A3B853640020243900203439002031640020FA
S21400A3C8DC2600202DE9F341003918BF0121044698
S21400A3D88DF807102DF086FB0022144D1449804690
S21400A3E81346AE460E4615F8017B5FFA82FCBC4261
S21400A3F819D051F8047B56F823000132874238BF3B
S21400A4086346042AEFD108F52F7046F823000EF8A5
S21400A41803400123204619460DF1070200F036F9DD
S21400A42802B0BDE8F0816346EDE700BF5364002044
S21400A4382439002010B5124B124A1C7800231846FF
S21400A448D9B28C420BD8104B104A1C780023D9B2CC
S21400A4588C420CD80E4B1B781844C0B210BD92F82C
S21400A468381009B10130C0B201333C32E8E792F83F
S21400A478601009B10130C0B201336432E7E700BFAB
S21400A488DA6300207424002031640020DC260020D3
S21400A498DB63002070B50024094E0A4D3378E0B21D
S21400A4A8834200D870BDC0EBC0002918C21C8B7848
S21400A4B8285C49782A4400F0E9F80134EEE700BF42
S21400A4C8DB630020DC63002008B5FFF7B3FF58B154
S21400A4D8064B074A1A6000F009F9064B186006484A
S21400A4E8BDE8084000F0FCB808BD00BF8C16002088
S21400A4F8CDA3000034390020D1A2000038B50546A7
S21400A5080A4C10B10023237038BD23780133DBB220
S21400A518022B2370F8D9064813F04AF825702DF058
S21400A528E9FABDE8384003482DF0E3BA98640020FD
S21400A538A6350400403900204FF6EF73044A108809
S21400A54898428EBF0023431C9BB21380704700BFFF
S21400A558F05C0020014B1878704700BF9764002015
S21400A5682DE9F04188B080460F4616460021152290
S21400A5780DF109001D4614F039F94FF6EF72114B2C
S21400A58831461C8803A89442ADF804408EBF0024C8
S21400A5980134A4B21C8004232A468DF806308DF8B0
S21400A5A807808DF80870ADF80A5014F0AFFA109BC3
S21400A5B8BDF83C200E9901A82DF008FE08B0BDE8AD
S21400A5C8F08100BFF05C002038B5044618B10FC80B
S21400A5D8054D85E80F0020462DF08BFA0122034B27
S21400A5E800201A7038BD00BF40390020996400204A
S21400A5F870B51C46244B0D461B7811468CB0002BB4
S21400A6083FD0202C3DD84AF65523ADF8003002231B
S21400A6188DF804508DF802302B0A002522468DF856
S21400A628050002A88DF803308DF807408DF806500F
S21400A63814F06CFA04F1080004F109012B466C4684
S21400A6482A4686B289B214F8015B013292B22B44CC
S21400A6589642DBB2F7D800F130020DEB020000F8A4
S21400A668303C002268462DF048FA0446B0FA80F0DE
S21400A6784009FFF743FF201E18BF012040420CB0D8
S21400A68870BD4FF0FF30FAE79964002010B5134C00
S21400A69896B02478F4B10024ADF816400DF11604EF
S21400A6A802944024019406AC0094FFF759FF78B949
S21400A6B80246BDF8161020462DF01FFA0446B0FADA
S21400A6C880F04009FFF71AFF201E18BF01204042FD
S21400A6D816B010BD4FF0FF30FAE700BF99640020AF
S21400A6E8014B1860704700BF3C390020014B1868C2
S21400A6F8704700BF3C390020014B1860704700BF08
S21400A708383900202DE9F0433E4B89B01B78002BE2
S21400A71875D03D4E3D4C33883F2B02D82DF0EBF9D3
S21400A728D8B93A4F07F101083488012C67D93B7825
S21400A738552B27D17B78AA2B24D1072C5FD9FD88E7
S21400A7486DBA0935ADB2402D24D93149023C2246AE
S21400A758881E14F09DF83480E6E70023308801AAA6
S21400A768C0F1400189B22044ADF804302DF0C9F993
S21400A7780028D6D1BDF804303288002BD1D0134437
S21400A7883380C8E7621E92B241462048328014F0F1
S21400A7987FF8C9E7AC4232D3294601AA38462DF0DD
S21400A7A873FD8146641B22463846791914F070F802
S21400A7B83480B9F1000FB7D19DF80600431F012B6E
S21400A7C812D8431F58425841124B134C1D6820702C
S21400A7D83DB1BDF80A309DF808109DF8070003AA99
S21400A7E8A847002323709FE70C4B1C68002C9BD0BF
S21400A7F8BDF80A30BDF8041003AAA04794E709B0CC
S21400A808BDE8F08399640020EE5C002057640020C1
S21400A818596400203C39002097640020383900200D
S21400A82800239B6AB3F5C04F03D21968064A9142C3
S21400A83803D00023037083607047012202709A6871
S21400A8489B694260F7E700BF07B0CD5E024B034A3C
S21400A8581A602EF0B5BF00BF0000002002020FF0FD
S21400A86873B5534B04461A781AB102221A7002B00E
S21400A87870BDCDE900220028F9D001261E7037F0F9
S21400A888D7FF4C4D4C4B186017F094F82B785BB9F3
S21400A89802F062FA40B949480823494A494900681B
S21400A8A801F0A8FE00B92E70474B5A6E62619B6E87
S21400A8B8464AA3614FF40043936603F188435968F8
S21400A8C8E16143499960196E2160596E6160D3F859
S21400A8D87011A160196CE160596C21613D49086CE2
S21400A8E81864496C5964012151664FF40051916609
S21400A8F81A6E560436D53849CA68D407FCD45B6E37
S21400A9085A0434D5354AD36B13F0430FFBD1344B76
S21400A9181A68531C31D04FF400139340314A13661B
S21400A9280423304C684623664FF48063236610235E
S21400A93823664FF4005323664FF0804323664FF494
S21400A948804301A963662DF003FD009B2366019BE7
S21400A95863662B78002B8AD0194B1A6822665B68C8
S21400A968636684E72049CA68D007FCD4C7E71F4A4D
S21400A978D36B13F0430FFBD1C9E71D4B1B78002B95
S21400A988CED14FF48072114B5A661A4A52681AB9D9
S21400A9984FF40011134A11664FF400725A66164BAC
S21400A9A85B68002BBCD14FF480020E4B1A66B7E7E3
S21400A9B89B6400209C64002070390020FC6F0020F7
S21400A9C87439002000710800008000500090005084
S21400A9D855CEAC0000C00054000004400000024CF5
S21400A9E8C86F002000900044000004500000025C7D
S21400A9F89A64002000C005500000065070B52C4D23
S21400AA0804462E78012E02D001232B7070BD002834
S21400AA18FCD02DF0C2FC01300BD02DF0BEFC40F26D
S21400AA280113984205D0234B234A5E66D368DE0797
S21400AA38FCD4224B22491B6E13F0040F4FF400532C
S21400AA4814BF1C4A1F4A9366CA6B12F04302FBD116
S21400AA5821681A4B196661685966A168C3F87011AF
S21400AA68E168196421695964E169C80748BF9A60B2
S21400AA78154B1A6801320DD1144A127852B9144986
S21400AA884968C90748BF1A60124A5268D20744BFC5
S21400AA9801221A606269104B5A66A2699A6616F015
S21400AAA891FF0E4B186837F0BEFE0023ADE700BFD7
S21400AAB89B64002000900040000004400080004492
S21400AAC80000024C00900050C86F00209A640020D6
S21400AAD800C0055000000650008000507039002065
S21400AAE870B50024A36AB3F5C04F23D21A68134B77
S21400AAF89A421FD1124E337813F0FD0518D14FF441
S21400AB0880341048FFF7ACFE032004F0B9FC0E4B67
S21400AB180320DC6004F098FC0C4B1C61AB6ADB6914
S21400AB28984704460748FFF769FF0CB901233370B6
S21400AB38204670BD4FF48174FAE700BF07B0CD5EBB
S21400AB489A6400205039002000A000440090004479
S21400AB5813B5204B1B7803B9FEE700231E4CCDE93E
S21400AB6800336A4608231D49206801F043FDF8B9FA
S21400AB781B4AD2F84031D2F840211F2B4FF0010370
S21400AB8811D9203A9340019A1A43019208236A463B
S21400AB981249206801F0B6FE124B134A1A602EF0CE
S21400ABA80FFE02B010BD9340009A1A430092EDE7DC
S21400ABB82D28F1D10A4AD2F84031D2F840211F2B6D
S21400ABC84FF0010385BF203A93409340019398BF06
S21400ABD80093DBE79B640020FC6F002000710800F0
S21400ABE800800044000000200B020FF038B5002556
S21400ABF8AB6A0446B3F5C04F10D21B6BB3F5C04F13
S21400AC080CD20748FFF72CFEAB6A20461B6B5B6826
S21400AC189847BDE838400248FFF7F0BE38BD00BF89
S21400AC287C39002013B50024A36A0190B3F5C04F01
S21400AC3813D21B6BB3F5C04F0FD20948FFF710FEAF
S21400AC48A36A01211B6B01A89B6998470446044820
S21400AC58FFF7D4FE204602B010BD4FF48174F9E722
S21400AC687C39002070B50026B36A0446B3F5C04F99
S21400AC780D4612D21B6BB3F5C04F0ED20848FFF72D
S21400AC88EFFDB36A20461B6B29469B699847044626
S21400AC980348FFF7B3FE204670BD4FF48174FAE709
S21400ACA87C39002070B50026B36A0446B3F5C04F59
S21400ACB80D4612D21B6BB3F5C04F0ED20848FFF7ED
S21400ACC8CFFDB36A20461B6B2946DB6998470446C6
S21400ACD80348FFF793FE204670BD4FF48174FAE7E9
S21400ACE87C390020F8B50027BB6A0446B3F5C04F88
S21400ACF80D46164611D21B6B7BB10948FFF7B0FD0F
S21400AD08BB6A20461B6B324629465B6A9847044650
S21400AD180348FFF773FE2046F8BD4FF40174FAE7C0
S21400AD287C39002070B50026B36A0446B3F5C04FD8
S21400AD380D4612D21B6BB3F5C04F0ED20848FFF76C
S21400AD488FFDB36A20461B6B29469B6A98470446C4
S21400AD580348FFF753FE204670BD4FF40174FAE728
S21400AD687C390020F0B50027BB6A0446B3F5C04F0F
S21400AD780D461646ADF5177D20D21B6BB3F5C04FB2
S21400AD881CD21048FFF76CFDBB6A20461B6B40F2CE
S21400AD9851225B6A01A99847044630B10948FFF773
S21400ADA82DFE20460DF5177DF0BD836A32461B6BD7
S21400ADB82946DB6A01A898470446EFE74FF4017472
S21400ADC8EFE700BF7C39002010B50024A36AB3F56E
S21400ADD8C04F10D21B6BB3F5C04F0CD20748FFF715
S21400ADE83FFDA36A1B6B1B6B984704460348FFF797
S21400ADF805FE204610BD0124FBE700BF7C39002075
S21400AE08F0B58FB0044601A80E461546FFF7EEFECD
S21400AE189DF80C30012B12D1B5F5002F27D8B4F5C4
S21400AE28002F24D86319B3F5002F20D821462A46C8
S21400AE38304613F06BFE002420460FB0F0BD002706
S21400AE48BB6AB3F5C04F15D21B6BB3F5C04F11D212
S21400AE580A48FFF705FDBB6A2A461B6B31462046A3
S21400AE685B6B984704460548FFF7C8FDE4E740F2E1
S21400AE780244E1E740F20114DEE700BF7C39002017
S21400AE88F0B58FB0044601A80E461546FFF7AEFE8D
S21400AE989DF80C30012B1FD1B5F5002F06D8B4F558
S21400AEA8002F03D86319B3F5002F13D940F20244D4
S21400AEB820460FB0F0BDE258013225D104339D423A
S21400AEC8F9D82A463146204600F082F80028EDD008
S21400AED80024EDE70023F2E70027BB6AB3F5C04F6E
S21400AEE815D21B6BB3F5C04F11D20A48FFF7B8FC52
S21400AEF8BB6A2A461B6B314620469B6B984704461E
S21400AF080448FFF77BFDD3E740F20344D0E740F25E
S21400AF180114CDE77C39002070B58EB0044601A830
S21400AF280D46FFF763FE9DF80C30012B22D144EA4C
S21400AF380503C3F30C03002B33D1B5F5002F04D952
S21400AF4840F2024420460EB070BDB4F5002FF7D884
S21400AF582544B5F5002FF3D8204604F5005400F034
S21400AF6829F8AC4202D00028F6D1E9E70028E7D055
S21400AF780024E7E70026B36AB3F5C04F14D21B6B6C
S21400AF88B3F5C04F10D20A48FFF76AFCB36A2946E1
S21400AF981B6B2046DB6B984704460548FFF72EFDDB
S21400AFA8D0E740F20444CDE740F20114CAE700BFF8
S21400AFB87C3900204FF4003208B5044B9A6637F007
S21400AFC8DFFEB0FA80F0400908BD00BF00900050D0
S21400AFD8134610B562B103439B070BD14FF40034F8
S21400AFE8054B9C6637F0C4FEB0FA80F0400910BDE9
S21400AFF80120FCE70020FAE700900050BFF34F8FCF
S21400B0080549064BCA6802F4E0621343CB60BFF3F7
S21400B0184F8F00BFFDE700BF00ED00E00400FA0513
S21400B02870B5D0B1C9B10E4E431E013913F8014FA1
S21400B0382046325D02F00302012A11F8012F08BFEC
S21400B04804F12000B55C05F00305012D08BF203289
S21400B058801A01D1002CE9D170BD0120FCE700BFA1
S21400B06891F104000348044A0449121A92102DF07C
S21400B078F9B900BF4061000018630000E46B0020C7
S21400B08808B5154B83F30A8800F030F8FFF7EAFF97
S21400B098124B13498B4212D30020124B12498B4293
S21400B0A818D3FBF73FFE186850F82240586840F857
S21400B0B82240013298688242F5D30C33EAE7002230
S21400B0C8F8E71C6844F8220001325C68A242F8D30C
S21400B0D80833E4E70022F8E708000020DC2D050026
S21400B0E8E82D0500E82D0500E82D05004FF4004181
S21400B0F8134B144A70B59A60D3F88820124D42F460
S21400B1087002C3F88820114A05F5005491664FF07E
S21400B118FF3222664FF6DF7262660222C3F8D0203C
S21400B128BFF34F8FBFF36F8F4FF44036032004F002
S21400B138A7F90320E66004F087F92E6170BD00BF0A
S21400B14800ED00E000600000008000440090005021
S21400B158054B1860054B1B6F03F00703032B01D143
S21400B16835F00CBC704700BFD86F00200080005038
S21400B1782DE9F04104464FF001080C250D4E0CB998
S21400B188BDE8F08194FAA4F0B0FA80F00F2808FA27
S21400B19800F2C8BF103824EA0204CABF05FB0062E2
S21400B1A805FB0062B4325768002FE8D09168C0B239
S21400B1B8B847E4E79C39002008B50C4837F059FB37
S21400B1C8192004F04FF928B1192004F059F919206C
S21400B1D804F03AF91A2004F045F928B11A2004F0C8
S21400B1E84FF91A2004F030F9002008BD78CC040086
S21400B1F82DE9F0410E461746054618B30F2923D801
S21400B2080378DBB1013BDBB2022B19D8104AD35CBA
S21400B2186A78D340DB0717D50E4BD3F81043ACB982
S21400B22837F006FB80463A462846314603F064F86F
S21400B238404637F0F8FA2046BDE8F0817F23E7E776
S21400B2480023E5E72224F6E72124F4E70224F2E7C0
S21400B258C8CA040000C0035010B5044610B30378EB
S21400B268E3B1013BDBB2022B1AD8104AD35C6278F2
S21400B278D340DB0718D537F0DBFA0122617823784C
S21400B2888A4030214B4341F2100103F1A04303F5F5
S21400B29870335A5037F0C7FA002010BD7F23E6E710
S21400B2A80023E4E72220F8E72120F6E7C8CA0400CE
S21400B2B810B5044610B30378E3B1013BDBB2022BAA
S21400B2C81AD8104AD35C6278D340DB0718D537F013
S21400B2D8AFFA0122617823788A4030214B4342F244
S21400B2E8100103F1A04303F570335A5037F09BFA68
S21400B2F8002010BD7F23E6E70023E4E72220F8E7D6
S21400B3082120F6E7C8CA040038B50D46044618B327
S21400B31811B30378E3B1013BDBB2022B1AD8104A0B
S21400B328D35C6278D340DB0718D537F081FA302231
S21400B3382378534303F1A04303F570335B696278BF
S21400B348D34003F001032B7037F06DFA002038BDA8
S21400B3587F23E6E70023E4E72220F8E72120F6E744
S21400B368C8CA04002DE9F0410D461646984604461C
S21400B37800284FD000294DD00178002940D04B1E18
S21400B388DBB2022B3ED8254AD25C6378DA40D20775
S21400B39801D4FF2940D1022E01D9042E3CD137F022
S21400B3A847FA23780746FF2B05D0324620462968F9
S21400B3B802F0E8FF28602B68013309D12378FF2BB9
S21400B3C806D1174B6078D3F824142DF01CFE28609D
S21400B3D829684B1C18D00C23124A03FB0122069B33
S21400B3E8C2F8048093602378FF2B04D001230E4A0A
S21400B3F88B40C2F82434384637F015FA002007E0A8
S21400B4087F22C2E70022C0E7384637F00CFA2D2024
S21400B418BDE8F0812220FBE72120F9E7C8CA04002E
S21400B42800C003509C39002000D0035008B502F035
S21400B43859FF054B00F0553020F05020C3F8200483
S21400B448BDE80840FFF794BE00E0035008B502F0D8
S21400B45849FF054B00F0AA3020F0A020C3F82004CE
S21400B468BDE80840FFF784BE00E003502DE9F04F22
S21400B478144605460E469B46C36B87B001225B6999
S21400B48802A960689847EB6B01225B6903A93046FE
S21400B498984702A82DF0E5FB074648B10023A37598
S21400B4A863754FF0FF33A360002007B0BDE8F08F48
S21400B4B803A82DF0E3FB0123A375237E04EBC30347
S21400B4C8DE611F846368B3420ED1206003A82DF0A6
S21400B4D8F7FB4FF0FF332075A360237D043B022B58
S21400B4E826D80023A375DFE723681A1A5342534168
S21400B4F8A37503A82DF0E4FB237D834218BFA77528
S21400B50803A82DF0BFFB074602A82DF0BBFB874219
S21400B51818BF002303A818BFA3752DF0BBFB07466A
S21400B52802A82DF0B7FB87421CBF0023A375D4E7FB
S21400B53803A82DF0A7FB80B1EB6B022230465B69AF
S21400B54804A9984704A82DF0ACFB0346207D0328E1
S21400B55839D8DFE800F03838040903A8F3E7CC2226
S21400B568237E04EBC3031A8401F06EFC109B18704C
S21400B57803A8277E2DF07AFB04EBC70787F822007E
S21400B588237E03A804EBC303B3F8209093F8227035
S21400B5982DF078FB804603A82DF07CFB8246B8F198
S21400B5A8000F15D0EB6B022230465B6904A998475A
S21400B5B804A82DF03BFB6075637D6BB90023A3756B
S21400B5C84FF0000838E0227E04EBC2021384CBE773
S21400B5D803A82DF016FBEEE794F81680B8F1000FD6
S21400B5E8EED0B9F1000F09D1DFB10123E375637E10
S21400B5F8002B4FD1012F42D1677614E06B6C06EB17
S21400B6080A015A4286EA010010421CBF0022A275AF
S21400B6185A1E0A409B1A9945D0D8A37D002BE3D121
S21400B628CEE7E37D43B94FF000084B465246314615
S21400B63828462DF061F8A060A27D12B123694B441C
S21400B64823611A49237E097899422AD90133237639
S21400B658BBF1000F27D032B3E37D23B3B8F1000F58
S21400B66821D1032F1FD0A1684B1C1CD0109B22464B
S21400B678009328460123FFF7F9FEA07513E095F816
S21400B688343063B9EB6A0133CFD1032FCDD1012310
S21400B698A376C8E7012FCFD0032FC4D1F7E7984683
S21400B6A8C3E70023A375A07DFFE600BFECCA04002D
S21400B6B82DE9F04F0E46984600238BB004464FF00F
S21400B6C8FF31104617468DF8133001F0A7FBB6F584
S21400B6D8801F20D2314605AA04F108002DF013FA7F
S21400B6E8451C014603D1237CBBB92D2010E0384603
S21400B6F801F094FB0122394620460DF113032DF084
S21400B7084DF80028EFD09DF8133088F80030002058
S21400B7180BB0BDE8F08FB01CE5D1E56A691C36D1E0
S21400B7282046616A2CF02EFF0546B31C18BF01237D
S21400B738DFF8CC900193636A626C0293236805A9CC
S21400B74802FB053AE36B05225B695046984705A855
S21400B7582DF022FB2DF045FB50462DF04DFB4FF00B
S21400B768000B824601464B1C05D0636C81EA0A0230
S21400B7785B42134211D0294620462CF003FF029B59
S21400B788AB422CD0BBF1000F2CD10546D3E723687B
S21400B798ED1A636CB5FBF3F5C7E7484601F03EFBC8
S21400B7A80DF1130349462046019A2CF0F7FF03468D
S21400B7B890B1B21C03D0D9F80020B2420CD19DF843
S21400B7C8132003930D4B88F8002049461A6838461C
S21400B7D813F09CF9039B9B46D9F80810C3E7BBF106
S21400B7E8000F82D0B6F5801F91D2314698F8003007
S21400B7F87A6804F1080001F03FFA88E7E8CA04000E
S21400B808784100202DE9F3410446174698460E462F
S21400B818184D816AE36A8B4201D04B1C02D102B0F4
S21400B828BDE8F081284601F0F9FA012229462046AB
S21400B8380DF107032CF0B2FF38B1434629462046DF
S21400B8489DF80720B8470028E9D0A9684A1C04D103
S21400B858696820462CF023FF0146012EDAD16B6872
S21400B86881EA0302636C5B421A4218BF4FF0FF314D
S21400B878D0E700BF4C4100202DE9F04F4FF0FF33D2
S21400B8884FF6FF720025044600F10806C0E90923B2
S21400B8988BB0C36205620563304688462DF004F90E
S21400B8A820462CF03FFE60BB204641462CF0BAFEF0
S21400B8B820462CF037FE60BB5E200BB0BDE8F08F4C
