S01B00006275696C642F72656C656173652F7A69676265652E73333714
S214006000081000203DB400005DFC0000894103003C
S2140060108941030065FC00006DFC00008941030017
S2140060208941030089410300894103008941030037
S21400603071FC000038850400894103008941030093
S2140060408941030089410300894103000DAF000028
S2140060508941030089410300894103008941030007
S21400606089410300894103008941030089410300F7
S214006070DD010100894103008941030089410300D5
S21400608089410300894103008941030089410300D7
S21400609089410300894103008941030089410300C7
S2140060A08941030009B80000E9B7000089410300F0
S2140060B0894103004D45020089410300B14F0200AB
S2140060C0A9990300A59903008D470200BF99030014
S2140060D0AD990300814F0200B1990300F14F020011
S2140060E05D560200593302005D50020089410300EC
S2140060F08941030089410300894103008941030067
S2140061008941030089410300894103008941030056
S2140061108941030089410300894103008941030046
S2140061208941030089410300894103008941030036
S2140061308941030089410300894103008941030026
S21400614082B030BF074BD3F8F030DB0704D500230E
S2140061500193019B052B01DD02B07047019B0133C3
S214006160F6E700BF00ED00E0F0B5114A114C124E04
S21400617000F00105E3695F0713D40DB9334213D16C
S21400618003EA00078F4207D10B4A1A40002A14BFC1
S2140061906FF001000020F0BD013AEBD16FF0020075
S2140061A0F9E74FF0FF30F6E76FF00100F3E700BFC6
S2140061B08096980000000350020001000B4B70B55B
S2140061C0D96911F480310DD101244FF48072084E44
S2140061D0084DF46020462C641A61FFF7C5FF34644E
S2140061E0EC6070BD6FF00100FBE700BF00000350DD
S2140061F000100350002003504FF4003238B50F4B08
S2140062000F4C9A6641F671330122E569E3630D4B44
S2140062100021DA60022360612120236105F48035C5
S214006220FFF7A2FF10B92120FFF79EFF0122064BC1
S214006230DA600DB10023E36338BD00BF0090005064
S21400624000000350001003500020035070B5134C9C
S2140062506061E3695B071ED40E4656F8043B8D1852
S214006260A361AE420BD10423002121202361FFF756
S2140062707BFF58B9BDE870402120FFF775BF0821A5
S2140062800846FFF771FF10B10423236170BD56F86E
S214006290043BA361E5E74FF0FF30F7E7000003504B
S2140062A02DE9F84315464FF40032184B89469A6696
S2140062B041F6713203F51C33DF69DA6301220646C4
S2140062C003F58053DFF84C8007F48037DA6055B961
S2140062D0284601220E4BDA601FB10022A3F50053B8
S2140062E0DA63BDE8F88306F5005404EA0804A41B44
S2140062F0AC4228BF2C46494622463046FFF7A6FF4A
S2140063000028E6D12644A1442D1BE0E7009000506B
S20C0063100020035000E0FFFF2F
S2140063182DE9F04F4FF0FD0BC9B09A460DF11B0959
S2140063289DF8503108AFCDF80C90CDF808B001971D
S214006338059303890446009383790E469046418860
S2140063488288407813F070FE054650B10090A38806
S214006358002062883A4914F0ABF9284649B0BDE8EF
S214006368F08F99F8000030F029FE38B12846A38847
S2140063786288344914F09CF98D25EEE75A4639466A
S21400638899F8000030F0C2FD8346002851D0529B91
S2140063981BB1BDF84C3198424BD8002399F80090B1
S2140063A80793A9F14102012A5FFA8BF123D83846F0
S2140063B80139254ADFF898C05FFA81FE734513DB7A
S2140063C8059B04210792C3B907AF18221F489FED03
S2140063D81A7B02FB060420460A460830394684ED36
S2140063E8027B18F0B9FF11E010F8011F0133514085
S2140063F80CFB01F2E2E7059B33B123464A463846D2
S214006408009611F093FDA8E70829DED9B8F1000F29
S21400641801D088F80090BAF1000F01D0AAF800B0B1
S214006428529B002B99D05A46184608A918F094FF94
S21400643893E7012591E700BF000000000000000078
S214006448042E0400392E0400C59D1C8180100020EF
S21400645893010001000000002DE9F04F93B0CDE94C
S2140064680A32DDE91C530E9353EC102BCDE90801D4
S214006478104619468DED060B1E9E18F0F7F980B1EA
S214006488DDE906014FF0FF32C54B18F017FA40B9A0
S214006498DDE906014FF0FF326FF4801318F0F0F9CB
S2140064A870B1DDE908019DED060B0E9B1E96CDE941
S2140064B81C53DDE90A3213B0BDE8F04F00F088B986
S2140064C80022DDE90601002318F0DAF9002800F0BA
S2140064D83381DDE906A303F1004BCBF30A5016F42B
S2140064E88063A0F2FF3008BF06250F9317F0ECFE76
S2140064F89BA3D3E9002317F051FF9BA3D3E90023FE
S21400650817F096FDCBF31304894644F07F51804676
S2140065180022A44B504641F4401117F087FD94A37F
S214006528D3E9002317F03AFF02460B464046494691
S21400653817F07EFD18F0CCF9044617F0C5FE8EA3BA
S214006548D3E900238046894617F028FF0022964B99
S21400655817F06EFD18F0BCF989A3D3E900230746A7
S2140065684946404617F01AFF80463846894617F0CF
S214006578ABFE85A3D3E9002317F010FF02460B46AF
S2140065884046494617F052FD02460B46CDE90C2315
S21400659817F004FFDDE90C238046894610461946A5
S2140065A817F046FD0022CDE91001804B40464946CB
S2140065B818F01EF800227E4B17F03AFD02460B46EE
S2140065C84046494618F014F800227A4B17F030FD7A
S2140065D802460B464046494618F00AF8DDE90C2301
S2140065E88046894600204FF0804117F01FFD02467E
S2140065F80B464046494617F01BFD02460B46DDE9AA
S214006608100117F0F5FF07F2FF3700226A4B17F064
S2140066180FFD00223B0517F0C1FE52465B4680463A
S214006628894618F04BF9002840F08980CDE90C8996
S21400663804F16303C62B8CBF0527042731051BD539
S21400664853A3D3E900235046594618F02DF90028DD
S2140066587FD051A3D3E900235046594618F010F9C5
S214006668002876D00027A542C6BF2C1B04F1FF35AC
S21400667800253C4646F480660E9B9F422CBF4FF092
S2140066880008A3EB070816F0020903D0002F18BF6E
S2140066984FF000083CB1DDE90C235046594617F088
S2140066A8A7FF82468B46DDE906010022002318F084
S2140066B8E7F810B10BF100439B46DDE9080126F424
S2140066C80063CDE90183DDE90A324BEC10AB009597
S2140066D800F07EF802465FB3DDE9091316F0200FD6
S2140066E800F10105089E0CBF65204520B047DDE98E
S2140066F808010523002205930A23002CCDE902325F
S21400670807F1FF374FEAD473B8BF64422A460193AD
S21400671804970A9B009432F081FB0246B9F1000FF9
S21400672806D00B9BC41A0B9B1A190E9BA34245D87E
S214006738104613B0BDE8F08FDDE906ABCDE60022C3
S214006748404649461A4B17F053FF013CCDE90C0169
S2140067586EE7002D90D00F9B002B8DD0013D8BE768
S214006768FB799F501344D33FB3C8608B288AC63F33
S21400677861436F63A787D23F71A379094F930A4095
S2140067881655B5BBB16B0240EF39FAFE422EE63F0E
S2140067982D431CEBE2361A3F0000000080842E4191
S2140067A8FFFFEF7F0000F83F0000E03F00002C40AE
S2140067B800002440000018400000F03F2020DDE9DB
S2140067C80913089DA8470134ADE700BF0000000084
S2140067D82DE9F04F5BEC10AB97B0CDE90501DDE98C
S2140067E82058CDE90723504652465B465946229F15
S2140067F818F03CF870B90323CDE902870193AA4B39
S2140068080093DDE90501DDE9072332F039FA17B010
S214006818BDE8F08F4FF0FF326FF4801350465946AC
S21400682818F02EF828B10423CDE9028701939F4B70
S214006838E6E74FF0FF32504659469D4B18F03EF8B3
S21400684868B19C4A07F00403002B08BF03229A4B42
S2140068581CBF13460422CDE902870192D0E75046B2
S2140068688DA3D3E90023594618F028F838B98CA325
S214006878D3E900235046594618F002F868B1DDE916
S2140068880723DDE905014BEC10ABCDE92187209500
S21400689817B0BDE8F04FFFF7DFBD002200235046D3
S2140068A8594617F0EDFF002800F091805B465246E7
S2140068B80020002117F0BAFB012382468B46099375
S2140068C817F4806400F08580092D40F28580002446
S2140068D830210EABA5F109020134202C03F8011B68
S2140068E8A5EB040901D09442F6D15946504617F054
S2140068F8EFFF724B054603EBC90393ED007B8DED66
S2140069080A7B17F0E1FC02460B465046594617F03C
S2140069188DFBDDE90A2317F041FD02460B46CDE95B
S2140069280C2317F0FDFF064617F0BEFC02460B4682
S214006938DDE90C0117F07AFB02460B46CDE90C237D
S21400694800225F4B17F0BAFF002848D001363046C1
S21400695817F0AAFC02460B46DDE90A0117F09AFF73
S21400696808B100260135B9F1000F45D1284617F0C1
S214006978ABFC02460B465046594617F057FB00221A
S2140069884F4B17F07DFF10B9E90700D501350A21EE
S2140069980EAB1A19202C0AD095FBF1F001FB105506
S2140069A8303502F8015B013405460028F2D107F0BD
S2140069B80302012A55D1B8F1000F52D0099A12B92C
S2140069C817F00C0F01D008F1FF38302240E009908C
S2140069D876E74FF0060988E7A946002485E70022EF
S2140069E8DDE90C01364B17F04BFF0028BBD10EB182
S2140069F8F007B8D50136B6E70A210EAB1A19202CCF
S214006A080DD0B6FBF1F001FB1063092E03F130033D
S214006A1809F1FF3904F1010402F8013B11D83021CD
S214006A28A1440EAA202CB2D04C4504F101030AD189
S214006A3804F158020DEB02042E2204F8202C1C4602
S214006A48A5E70646DBE7A1541C46EBE71A550134D2
S214006A58444506D2202CF9D1CDE9028701940EAB25
S214006A68CEE6202CF8D0099B3BB12D2204F1580322
S214006A786B4403F8202C0134EEE77A0704D504F1BA
S214006A8858032B226B44F4E73B07E5D504F158037B
S214006A9820226B44EDE700BF0000000065CDCD4125
S214006AA80000000065CDCDC1274B04002B4B040029
S214006AB8FFFFEF7F1E4B0400234B040030940400B6
S214006AC80000E03F0000000070B58EB02C220021C8
S214006AD803A818F0B1FA64234FF002320893CDE900
S214006AE805230B2301218DF834305B4B8DF81010ED
S214006AF81D880D4040F0A980084636F0FFF90A22A6
S214006B08564B574C1A704FF42873ADF812304FF0A6
S214006B18FF332360534B54491B8820460B82534B44
S214006B28534A1B68CD828B61524B0D621B884B8281
S214006B38514B1B68CB611EF059FB20B14FF41B71FB
S214006B484E4837F008FA0521206832F0CFFF20B10A
S214006B5840F27D21494837F0FEF9206817F022FAFE
S214006B68474B2068196832F03BFB0C2536F02EFEA2
S214006B786843099036F02AFE68430DEB0501079036
S214006B88206818F0F5FE20B140F295213B4837F012
S214006B98E2F9256820F054FF00220146284632F024
S214006BA897FB20B140F29721344837F0D4F940F2E9
S214006BB80353344D344E2B80052396F90000AB70F2
S214006BC87F2801D11EF0FAFD3378EB7036F0FEFD13
S214006BD800EB80008000A88036F0F8FD0023C00097
S214006BE84FF0FF31E880AB604FF0FF3018A3D3E9D1
S214006BF8002336F0D5FA2549206832F022FB2068B3
S214006C0802A933F01AF820B14FF434711B4837F054
S214006C18A2F9042220680DEB020132F0B6FA042825
S214006C2804D040F2D721154837F095F901A901207C
S214006C3831F077FE09F052F801201FF043FA2EF0E3
S214006C488DF81FF069FA1EF051FD0EB070BD00BF3A
S214006C580A0020FF420300009260002066680020B9
S214006C6838590020D0AD040034700020D8AD040098
S214006C782DCF0300CEAD0400D4AD0400F08304008D
S214006C88746D00202C59002008730020A1CF030043
S214006C980348044B834202D0034B03B1184770479E
S214006CA8347300203473002000000000064B0749A8
S214006CB8C91A891048BF0131491003D0044B0BB1DB
S214006CC801481847704700BF34730020347300200B
S214006CD80000000010B5064C237843B9FFF7D8FF2C
S214006CE8044B13B10448AFF300800123237010BD92
S214006CF8B815002000000000F0E8040008B5044BB2
S214006D081BB104490448AFF30080BDE80840CDE74E
S214006D1800000000BC150020F0E80400A3F5803A47
S214006D28704700BF154B002B08BF114B9D46FFF759
S214006D38F5FF00218B460F461148124A121A18F022
S214006D487BF90C4B002B00D098470B4B002B00D040
S214006D5898470020002104000D000B4818F0B2FCEC
S214006D6818F042F9200029002CF0B0FD18F098FC25
S214006D7800000800000000000000000008100020C6
S214006D8808100020BC68002035F70100032837B536
S214006D9804460D461FD1012B35D11378012B32D16D
S214006DA801F0D6FD012804460DD18DF800002648CE
S214006DB817F024F803F09AFD234601466A46022097
S214006DC803F0F0FD1FE0214817F018F803B0BDE8FF
S214006DD8304001F0E3BD202817D101F0B9FD421E6E
S214006DE85042504101236A468DF800002946204645
S214006DF803F0D8FD164B1A782AB901221A7003F048
S214006E0823FD02F049FD03B030BD25280BD101F063
S214006E189FFD431E584258418DF8000001236A46DC
S214006E2829462046CCE72428EDD10023CDE90033B7
S214006E3803F0D4FB10B100BACDE9000008236A4677
S214006E4829462420BCE700BF90E30300BDE3030007
S214006E587161002007B5012120200DF1070201F01D
S214006E68D9FB58B10223012120200DF107028DF825
S214006E78073001F0DFFB03B05DF804FB9DF8071050
S214006E880229F8D00222094816F0B8FF0223012189
S214006E980DF1070220208DF8073001F0CBFB2CF00F
S214006EA862FC4FF4FA6001F0FDF9E4E7F5E303004D
S214006EB808B501F0D3F900F021FB0F4B1B788BB116
S214006EC80E4803F05BFD03F0D9FC02F0D1FC0C4839
S214006ED803F0ECFD2CF0F9FC02F04CFDBDE8084090
S214006EE8FFF7B8BF03F080FC064B1B781843C0B208
S214006EF80028E5D1EEE700BF756100208C2600204B
S214006F08956D0000E961002038B502F0E3FE124BEB
S214006F181B78BBB103F0D0FD01F01AFD012805D09F
S214006F2801F016FD022801D001F038FD0B4D2B7834
S214006F383BB901F00DFD0128044602D12CF0A9FC4E
S214006F482C7038BD03F050FC054B1B781843C0B2B4
S214006F580028DFD1E0E700BF7561002070610020DF
S214006F68E961002070B590F860300446114E00F1D3
S214006F781C0533B1C0E907602846BDE8704001F03B
S214006F889FBB00882CF0C3FBA37884F84400834298
S214006F9808BF01232846C4E9076404BFE3702371C9
S214006FA801F08EFB224620880349BDE8704001F0B8
S214006FB8CBBA00BF33340300F733030070B5C37889
S214006FC804460D461646002B34D1D1B1214816F09A
S214006FD815FF0123E370E36CA6600BB1E06D9847DC
S214006FE8E368F61A63699E4221D2217E1A48013167
S214006FF8C9B2217616F002FFA36D13B1217EE06DAB
S2140070089847E5702CF0C2FB15B3237903BBA2683A
S214007018238A801A83421BD801231048237116F04E
S214007028EDFE236DA3B1E06DBDE87040184701235F
S2140070382376E6E70029E4D1094816F0DFFE636DFB
S214007048E660E5702571002BDBD0E06D9847D8E741
S21400705870BD00BF1DE403002EE403005CE40300DB
S21400706849E4030070B51E46838804460D46C18071
S21400707802810BB1868070BD817800882CF0F6F905
S2140070880123E370064BA680C4E903340C3420467B
S21400709801F016FB29462046BDE870402CF06DBB73
S2140070A87F34030010B501790446B1FA81F10088EF
S2140070B849092CF052FA21796088B1FA81F1490918
S2140070C82CF04BFA034B1A68A24204BF00221A603F
S2140070D810BD00BFD815002070B543790446A3B18B
S2140070E800880E4E04F10805336813B10C4B1B7864
S2140070F86BB121792CF031FA64210A4B3460A36015
S2140071082846BDE870402CF038BB4088E9E70648BA
S21400711816F074FE054B3221A360F1E7D81500205F
S21400712872610020AD70000072E40300E170000098
S21400713810B5044620B3134816F060FE012194F8F3
S2140071483800617150B1104B1B6803B19847236B28
S214007158B3B1606B0121BDE810401847A37923B985
S214007168217920882CF0F9F9F1E72046FFF79AFFF5
S21400717804F108002CF006FB2046FFF7ADFFE6E713
S21400718810BD00BFA8E40300D415002010B50446BF
S21400719838B3144816F032FE002194F838006171AE
S2140071A850B1114B1B6803B19847236BCBB1606B8A
S2140071B80021BDE810401847A3793BB921792088FB
S2140071C8B1FA81F149092CF0C8F9EEE72046FFF735
S2140071D869FF04F108002CF0D5FA2046FFF77CFF7B
S2140071E8E3E710BDB3E40300D415002010B5044649
S2140071F868B1074816F002FE637920461BB1BDE861
S2140072081040FFF7C3BFBDE81040FFF791BF10BDA1
S214007218BFE4030010B50E4C0E48214616F0EEFDEE
S21400722882210D4816F0EAFD82210220A21E01F0F6
S21400723801FA014630B134F8022C0848BDE810407F
S21400724816F0DCBD0648BDE8104016F0D7BD00BFF6
S214007258825B0020CEE40300E9E40300F4E40300C4
S21400726838E5030038B5114C82212246022001F089
S214007278D1F9A51C014688B122880D4816F0BEFD36
S2140072882A460C4B03F12C0153F8040B8B4242F8A8
S214007298040BF9D11B7813702C23238035F8021CB5
S2140072A8054A0648BDE8384016F0A8BD805B0020B1
S2140072B843E50300C3E50300825B0020A1E5030065
S2140072C810B50C4C0C48214616F098FD8221232058
S2140072D8A21E01F0AFF9014630B134F8022C074877
S2140072E8BDE8104016F08ABD0548BDE8104016F007
S2140072F885BD00BF005B0020F0E503000EE6030036
S21400730838E5030010B5094C82212246232001F0F7
S21400731881F910B10023A3702380054A054832F886
S214007328021CBDE8104016F069BD00BFFE5A0020DA
S214007338005B002049E6030010B50C4C0C482146BB
S21400734816F05CFD82212420A21E01F073F9014686
S21400735830B134F8022C0748BDE8104016F04EBD90
S2140073680548BDE8104016F049BD00BF7E5A00200B
S2140073786EE6030094E6030038E5030010B5094CF2
S21400738882212246242001F045F910B10023A3707B
S2140073982380054A054832F8021CBDE8104016F05E
S2140073A82DBD00BF7C5A00207E5A0020D7E6030079
S2140073B8114B70B51C88E4B1104E35887E2D19D84F
S2140073C8C5F17F05ADB2AC4205D92246611B0C4813
S2140073D816F014FD2C4633880A48224618440A49F3
S2140073E817F0BAFF33881C440023A4B2348026441E
S2140073F8B37070BD0025E8E77C5A0020805B00204B
S21400740804E70300825B00207E5A0020034B1B78AB
S2140074181BB18B4201D82CF0A6B97047B072002079
S21400742810B5044601460E4816F0E8FC012C11D1AA
S2140074380C4B0D481A884FF6FF739A421EBF00225F
S214007448094B5A742CF06FF802F0FCFDBDE81040AA
S21400745802F06CBC0448BDE810402CF066B800BFCB
S2140074683EE7030064720020006D002070B500241B
S2140074781A4D1B4E3378A3421BDC0024194D1A4EB6
S2140074883378A3421BDC0024184D194E3378A342E8
S2140074981BDC01F05DFA012816481CD12CF043F8D5
S2140074A802F0D0FD02F042FCBDE87040124801F040
S2140074B86FBA2846FFF756FD01346435DAE72846E2
S2140074C82CF017F801343435DAE728462CF04AF859
S2140074D801343C35DAE72CF028F8E5E79C2600204E
S2140074E8CF610020E82A0020D06100203424002044
S2140074F878610020006D0020297400002DE9F04F07
S2140075089FB0FFF7AFFEFFF7FDFEBB48BB4C30F859
S214007518021B02F0C3F8FFF731FFFFF749FFB84B2D
S21400752809A809932CF052F8054617F081FCC2B258
S2140075381F2A627004D9B34816F060FC00F0A6FE55
S2140075482946A01C17F008FF09A82CF03FF80546A6
S21400755817F06EFCC2B21F2A84F8212001D9AA4867
S214007568EAE7294604F1220017F0F6FE1022002169
S2140075780AA817F061FD102200210EA817F05CFD7E
S2140075881022002112A817F057FD1022002116A875
S21400759817F052FD102200211AA817F04DFD09A871
S2140075A82CF014F84FF0000904463225DFF8A482C0
S2140075B8CDF80C902378002B40F0C780DFF898A20F
S2140075C8924A9AF800700AAC0EAE12AD16A81AA91E
S2140075D89F4202F1880200F345858D4CFFF746FF6F
S2140075E823788C4F01933B78DFF870928A4E00938D
S2140075F89AF8003099F800203178884816F0FEFB93
S2140076080020337899F800209AF800109D180D4449
S2140076183978DFF84CB20D44217804460D445946B3
S214007628EDB2834200F33785DFF8F881012D38BFC5
S21400763801254246002347464FF482714FF6FF74F1
S214007648039503980133984213705180948002F191
S2140076580C02F6DC724B73496848BB6001F070FA9E
S214007668F879BB6800EB400003EB800001F01CF8DB
S214007678FB796D4D01336B496C48FB7102F0C6FF10
S2140076882A88A24203D06749694801F083FB4FF66F
S214007698FF732A886349D21A18BF0122654802F088
S2140076A885FA00255E4C3278AA4200F3FD844FF036
S2140076B800080C25604ADFF86CB199F800003178AC
S2140076C8404500F3058500EB01080C21002701FB67
S2140076D808B19AF800208823BA4200F31A850C21CC
S2140076E800274FF0940A96F8008099F80030494D24
S2140076F8984401FB08B12878504AB84200F3208520
S21400770837780C264FF000084FF0700A99F80030CA
S214007718DFF8FC901F44074406FB07B6DFF844B1C1
S21400772899F80030434500F3208503993D4801F059
S21400773849F8099B32491A468B4240F02C85404846
S2140077481FB0BDE8F04F16F059BB532B0AD163782B
S2140077584C2B40F01381A378502B17D10122394BBC
S2140077681A7013E0442B1AD16378A3F13002092A61
S21400777800F2E482601C2BF036FF334B334A19784C
S214007788002385B2994202F1640204DC09A82BF0B2
S2140077981DFF04460EE722F84A5C0133F2E7422B47
S2140077A862D16378542B08D1A01C00F01BFF1E4B37
S2140077B8188018462BF0F8FDE8E7601C00F012FF6A
S2140077C80646E01C2BF0B4FF0121024630462BF09B
S2140077D86BFF64211C481D4C037859436218665297
S2140077E84FF4FA6111824FF4487151611849013318
S2140077F8558311650370C9E7FE5A00203C6B0020CC
S214007808825B00205DE7030074E70300581D002034
S214007818736100207461002077610020A3E70300ED
S2140078284C170020D416002064720020A4160020EE
S21400783854160020DC150020781F00209C1B002012
S214007848FFE7030072610020CF6100209C2600201D
S214007858BF350300E82A0020756100207661002005
S214007868882100204C1A00204C2B26D1601C00F0E2
S214007878B9FE00223426074611462BF015FFC349E9
S214007888087806FB00F328F8037008EB0302E37891
S2140078981046693B18BF012393702BF02AFE00237D
S2140078A8BB48BA49436001230A78037402FB06867C
S2140078B81A4406600A70039368E7492B40F07C81F7
S2140078C86378A3F14102032A00F2DF80601C00F00F
S2140078D889FE0022114607462BF0E6FE3423AB4EFF
S2140078E8DFF8CCA2307803FB00F22AF802700AEB25
S2140078F80201E2780846693A18BF01228A702BF01E
S214007908F8FDA449002308460A6D3ABB582202FB34
S21400791803003423327802FB03A303659E49002341
S2140079280846D1F8A420FAB9A82202FB030034239B
S214007938327802FB03A3C0F8A430039B53B9944AD9
S214007948114652F8040BA8B93422307800FB02A27C
S21400795841F8232033780133337017E70133042BBB
S21400796801F15801D0D1D9E70133042B01F1A80160
S214007978D7D1E2E70133042BE3D1EBE7A3F14102C9
S214007988032A3CD8601C00F02DFE0646E01C2BF0AF
S214007998CFFE0121024630462BF086FE64227F4F3A
S2140079A87F483978DFF8F0C14A43831886524FF487
S2140079B848721A825A617B4A5D839A65E278A824DF
S2140079C8642A08BF0122784E08BF9A7033785C4351
S2140079D80CEB04020CF804304FF4007454800324B3
S2140079E814719471642401FB040090603220013302
S2140079F8DBB20131537182F8A0003970ACE7542B22
S214007A087FF4C4AE00260DF12301A01C8DF8236078
S214007A182BF00CFE00283FF4B9AE9DF82320002A70
S214007A283FF4B4AE4FF0640E4FF6FF77DFF86CC144
S214007A385B489CF80010DFF860A10EFB01F4031900
S214007A4883F860204FF448720753A8241A825A61B4
S214007A58554F544A01FB0E009A653B7801315C434A
S214007A680AEB04020AF8043040F2012490605480BD
S214007A78322003240133DBB216719471537182F8F5
S214007A88A0008CF800103B7080E6542B7FF47EAE86
S214007A9800230DF11F01A01C8DF81F302BF0C6FD2A
S214007AA800283FF473AE9DF81F0000283FF46EAE22
S214007AB8DFF800B19BF800600B2E3FF667AE23791F
S214007AC83A4FC6EBC601312B4FEAC60207EB010A4E
S214007AD8785401D0342B1ED10021601D8DF8231058
S214007AE80DF12301CDE904322BF0A0FD00283FF468
S214007AF84DAE049B059A312B14BF04230123921B19
S214007B0817447B700123BB709DF82330FB70013649
S214007B188BF800603AE6322B7FF438AE08A9601D71
S214007B282BF084FD00283FF431AE0DF12101E01D55
S214007B382BF07CFD00283FF429AE0DF1220104F15C
S214007B4809002BF073FD00283FF420AE0DF1230149
S214007B5804F10B002BF06AFD00283FF417AE022351
S214007B688AF8013004238AF802309DF820308AF813
S214007B7803309DF821308AF804309DF822308AF8C0
S214007B8805309DF823308AF80630C0E7D06100201B
S214007B98006D0020781F002088210020CF6100207B
S214007BA89C26002015740000776100207A6100206A
S214007BB8E82A002079610020522B50D16378542B94
S214007BC876D100230DF12201A01C8DF822302BF06F
S214007BD82DFD00283FF4DAAD9DF8220000283FF47A
S214007BE8D5ADB54B1F78052F03D8B44A1678052EA1
S214007BF804D92146B24816F001F9C7E53C214FF0F2
S214007C08FF3C7143DFF8C8A24AF801C001EB0A0B33
S214007C1801218BF8041000218BF838008BF8061029
S214007C288DF82310217959B10DF12301201D2BF071
S214007C38FDFCA14BA14A18B19DF823108BF839100A
S214007C48582179439F4844184754C6EB06110AEB57
S214007C58810101360137E16416701F7096E5502BD6
S214007C6812D16378542B40F0438100230DF1230191
S214007C78A01C8DF823302BF0D9FC00283FF486ADE5
S214007C889DF82320904B6BE5572B09D1601C00F01C
S214007C98A9FC8E4EB060E01C00F0A4FCF06075E510
S214007CA8592B78D1601C2BF09EFC884B18606DE52C
S214007CB8413B032B3FF66AADDFF8FCA19AF800308B
S214007CC8052B96D87D4E3378052B92D8601C00F08D
S214007CD889FC0022114683462BF0E6FC3C233278CA
S214007CE87B4F5A4327F802B04FF0010BB91881F8BA
S214007CF804B0E27872B1E01C00F074FC0022114671
S214007D0804462BF0D1FC3C23327803FB02777C80B8
S214007D1887F806B058229AF800306A485A438118FD
S214007D28835430786A4CC0EB001204EB8202CA64B3
S214007D380133421C32708AF8003027E54D2B7FF459
S214007D4825ADA01C2BF04FFC0021C0B2042828BF8C
S214007D5804200B464FF0880A8C465E4C5E4F267809
S214007D68DFF888B1F2189842D2B205DC00293FF451
S214007D780DAD3044207009E50AFB02FE07EB0E0144
S214007D8807F80E2081F802C0C1F854B081F858C030
S214007D9801330121E6E7582B6AD84C2B48D8432BE9
S214007DA87FF4F4AC601C00F01DFC0646E01C00F0F6
S214007DB819FC00220446114630462BF075FC0022BA
S214007DC8204611462BF070FC3C203C4F404A3B783E
S214007DD800FB03FC02EB0C0122F80C604FF0010CD0
S214007DE8002681F804C08E7103EB0C01C9B2484323
S214007DF81452702402EB000E8EF80660374E981C5C
S214007E0838703078364F4443C3EB0313C1EB011187
S214007E1802EB83038EF804C002EB810207EB040C26
S214007E2838550130CCF80430CCF808203070ADE472
S214007E384D3B0B2B3FF6AAAC01A252F823F000BF2D
S214007E488D7E00009577000095770000F97E00008B
S214007E5895770000957700009577000095770000E5
S214007E68A97E00009577000095770000CF7F000078
S214007E78692B7FF48BAC601C2BF0B5FB80B22BF023
S214007E886EFC83E4174B012019780023164A9942A2
S214007E9802F1A8027FF77AAC02F8A60C0133F6E7DF
S214007EA80DF12301601C2BF0C1FB00283FF46EACDB
S214007EB89DF823906AE400BF766100207861002070
S214007EC884E70300781F0020CE6100208C2600205F
S214007ED83424002075610020581D0020736100209E
S214007EE84C1A0020776100208821002000016400D9
S214007EF80DF12201601C2BF099FB00283FF446ACDC
S214007F089DF822600F2E3FF641AC03342378002BF1
S214007F183FF43CAC4C3B671C0C2B16D8DFE803F050
S214007F281735150715151526151515154400384661
S214007F380DF123012BF07AFB38B19DF8232006F1CA
S214007F4878036B4403F8502CE71C3C46DEE73846BB
S214007F580DF123012BF06AFB0028F6D09DF82320AC
S214007F6806F178036B4403F8402CEDE738460DF12C
S214007F7823012BF05BFB0028E7D09DF8232006F1B1
S214007F8878036B4403F8302CDEE738460DF12301FE
S214007F982BF04CFB0028D8D09DF8232006F1780358
S214007FA86B4403F8202CCFE738460DF123012BF05D
S214007FB83DFB0028C9D09DF8232006F178036B44C2
S214007FC803F8102CC0E7601C00F00CFB0746E01C0A
S214007FD800F008FB0646601D2BF0AAFB0446024686
S214007FE8012138462BF060FB2246304601212BF053
S214007FF85BFB6421DFF8C4C16C4B9CF80020DFF8FB
S214008008C0E101FB02F41F534FF4487718190782A2
S2140080184761C0F858E04583501CC0B201FB00FA1F
S21400802823F80A60942603EB0A0427826761604FE8
S214008038C4F858E06583941C8CF800403C7802FB32
S2140080480132664300FB0133DFF878C10CEB060EFD
S2140080580CF806400134CEF80420CEF808303C7000
S214008068FFF794BB14F801CB02F8809C02F885CC85
S21400807816F801CB013302F884CC15F801CB02F8C8
S21400808883CC10F801CB02F882CC11F801CB02F8A9
S21400809881CCFFF79DBA4F790130974284BF0C71A7
S2140080A84C71A831FFF7BDBA3DB118F8052C02EBA4
S2140080B8420204EB8204C8F808404146584602F0DB
S2140080C8ABF901350BF1A80B08F10C08FFF7EBBA72
S2140080D818EB01010AD0481E05FB00B0C07900EB7A
S2140080E8400004EB800405FB01B08460104605FBE5
S2140080F80171049201F022FF31782E48414405FBB5
S214008108017101F03DFC049A08F101085832FFF7A6
S214008118D4BA17EB080F18BF11F8052C04911CBF2A
S21400812802EB420204EB8204234A18BF8C6003FB6E
S214008138072001F087F9049901370C31FFF7C9BA0F
S21400814817EB080F18BF11F8050C04911EBF00EBBB
S214008158400004EB80048C600AFB072000F0DEFF7A
S214008168049901370C31FFF7C6BA18EB070F18BF8A
S21400817816F8053C31461CBF03EB430304EB8304A7
S2140081880AFB08B018BFB46000F09EFE08F10108AC
S2140081980C36FFF7C5BA13F8011D00297FF4CAAAE2
S2140081A83B2102F8011CFFF7C5BA00BF9C26002039
S2140081B87461002028240020581D0020CF6100206C
S2140081C8157400009C1B002007B5012121200DF125
S2140081D8070200F01FFA18B99DF80720024B1A701C
S2140081E803B05DF804FB00BFB072002007B5064B6D
S2140081F88DF80700187001210DF10702212000F004
S21400820819FA03B05DF804FBB072002007B5022126
S21400821801200DF1060200F0FDF938B9044815F002
S214008228EDFDBDF8060003B05DF804FB0020FAE794
S2140082381CE8030007B50221ADF806000DF106029A
S214008248012000F0F7F9014610B1034815F0D6FDF5
S21400825803B05DF804FB00BF3DE8030010B5FFF768
S214008268D5FF04460146074815F0C8FD0121064813
S21400827815F0C4FD24B9BDE810400120FFF7DABFA9
S21400828810BD00BF6DE803007FE8030008B504488A
S21400829815F0B4FD00F0DEF92BF065FA2BF060FA65
S2140082A895E8030038B50446084D094B28462B6068
S2140082B800F006FA002C18BF21462846BDE83840CC
S2140082C808BF4FF496712BF058BA00BFEC2B00206D
S2140082D8673603002DE9F043394D93B008AC0746DE
S2140082E8894690460FCD0FC40FCD00260FC495E8DB
S2140082F803000323012584E80300324C3248CDE905
S2140083080366CDE905668DF80E300796029535F0BA
S214008318BCFD2E4835F0B9FD32462D4920468DF86D
S214008328176005F03DFF334632462A498DF8190096
S214008338009020468DF82390CDF82C808DF821608B
S21400834805F048FF0A9020468DF8097005F0A8FE4B
S214008358204608AA05A905F063FF02AA204603A935
S2140083682CF07AFC4FF400721B4B5A62194BE560EE
S214008378626A920510D46BB94FF40072164B114816
S2140083885A6205F08DFE114835F082FD002013B0C4
S214008398BDE8F083013BEBE7002BEDD0094908A8C0
S2140083A82CF08DFC4FF400720B4B06485A6205F011
S2140083B877FE064835F06CFDBDF82000E7E700BFFD
S2140083C8E88404000040005A388704003487040014
S2140083D880841E0040420F000060005A0122034BB2
S2140083E81870034B1980034B1A707047D26100202F
S2140083F86C720020D1610020F8B5454B1B780BB98C
S2140084080020F8BD434B1B78012B03D1BDE8F8408C
S2140084182BF028B9404B1C884FF6FF739C42EFD0D0
S2140084283E4835F032FD0023260AE4B21A462146B5
S214008438304605F0F5FD012E354604F0010335D02B
S21400844815D9B51E012DDBD8002B0BBF4FF4807550
S2140084584FF080754FF470614FF070610BBF0127C5
S2140084684FF480370F204FF470202D4B11E0002B6F
S2140084780BBF4FF480754FF080754FF470614FF066
S21400848870610BBF01274FF480370F204FF4702020
S214008498244B1A6802401CD0BA421AD01A680A40FE
S2140084A832D11A6822EA01022A4316E0002B0BBFD3
S2140084B84FF480754FF080754FF470614FF070611F
S2140084C80BBF01274FF480370F204FF47020164B50
S2140084D8DFE71A6822EA00023A431A602BF0C2F86D
S2140084E8054600288CD0083644EA06102A4603219A
S2140084F8C0B2FFF7EFFE40F6FF73684300F2FF7066
S214008508B0FBF3F080B27CE795427FF479AFC8E71A
S214008518D1610020D26100206C72002038870400E8
S21400852828C3035020C3035024C3035010B5044C7B
S214008538237823B9034835F0A8FC0123237010BD1F
S214008548D4610020388704002DE9F0431F4C85B01D
S214008558074688469146FFF7E9FF23781BB903F0DC
S21400856805F8012323707BBAADF80C3030220023BF
S214008578174E02FB03F4315DA51901BB01233355E1
S2140085884FF0FF3304F1100012493044AB606F809F
S214008598C5F80480C5F80C900AF0E0FA04F1080162
S2140085A8042231440C4B009503A803F0B5F8A968DB
S2140085B802460A4815F022FC05B0BDE8F0830133F0
S2140085C8102BD6D1064815F019FCF5E7D361002024
S2140085D8142C002091360300A3360300A2E80300FB
S2140085E8D0E8030080B10278A2F14103032B0BD830
S2140085F840783038C0B2082806D8054B134413F81C
S214008608413C40EA032070474FF6FF70704700BFB2
S2140086181085040008B50B4642B1014604480068B8
S21400862804F0C2F9BDE808402BF093B8022008BD54
S2140086386C6D002008B50B4642B101460448006838
S21400864804F03AFBBDE808402BF083B8022008BDCA
S2140086586C6D0020F0B50026124F8DB0FF230093F6
S2140086680A223346386802A92CF09BF8C0B102AB40
S2140086781D4603EB800404E055F8043BB34228BFCC
S2140086885E1CAC423868E9D9296804F09BFC0028CF
S214008698F2D02D28F0D00DB0BDE8F0402BF059B838
S2140086A80DB0F0BD6C6D002028B1034B0360034B82
S2140086B8436000238360704719000003146D002090
S2140086C8FF2307B50021044A009308300AF0CAF9C8
S2140086D803B05DF804FB00BF7D3703000B46044972
S2140086E8024608680349097808B12BF077B870473E
S2140086F8202F0020D6610020F7B50C4618B1292196
S214008708194835F028FC246823685E795F88304667
S2140087183946FFF7E3FFF0B18568E5B1A089227D09
S2140087283946904291BF0020801AA36880B294BF51
S21400873803469B18E27C00903046A8470138032879
S21400874803D8DFE800F0080F0B0D002420462FF0B2
S2140087589DF9204600E0812003B0F0BD8024F5E7AF
S2140087689324F3E78724F1E7F8E80300F8B51546FD
S2140087780D4A044610680D4A0B46117850B1224639
S2140087882BF02CF8034628B100210C27C678B142F6
S21400879801DB0020F8BD07FB01F45A681019125BCC
S2140087A8AA42F7D00131F2E7202F0020D661002038
S2140087B808B5034B1B6803B19847002008BD00BFE7
S2140087C81C2F00202DE9F74F04460D460026454B82
S2140087D8454F1860454B197033010021F85C013687
S2140087E811F010FA0C2EF7D10C2D28BF0C254FF0DF
S2140087F8000901953C4EDFF800A13D4DDFF8FC80EE
S214008808019B4B4502DC03B0BDE8F08F23784FF0A0
S214008818000B337063887380A388B380A379C6F887
S2140088280880B371E379C8F8005088F804304FF030
S2140088380003A768A8F80630E3795B450ADC01213F
S21400884816F8100B11F0DEF908F1080809F101090D
S2140088580C34D5E74FF0000338886B812880FB7806
S2140088684FF0000C2B81BA78C5F804A0002A0092B5
S2140088780CBF802240222A7379680AF10C026345ED
S21400888813DC03EB43030AEB830ABB6843B1009A85
S2140088984FF6FF71B2FA82F2164B52092FF086F89D
S2140088A814350BF1010B0C37C6E7B1F800E00CF1F4
S2140088B8010C22F80CEC91F802E00C3202F816ECE7
S2140088C891F804E00C3102F815EC11F809ECBEF149
S2140088D8010F14BF4FF0100E4FF0110E02F814ECF3
S2140088E8CDE700BF202F0020E4460020D6610020F8
S2140088F82435002001870000242F0020A4370020FC
S214008908014B1860704700BF182F0020014B1860F5
S214008918704700BF1C2F002070B5128805460E460B
S214008928FFF724FF044670B102790499806816F0B0
S214008938D5FB064B1B680BB9002070BD3146284690
S21400894822889847F8E78620F7E700BF182F002008
S21400895808B510F0F3F9022806D0012806D0044B13
S21400896818784000C0B208BD0120FCE70220FAE7EC
S214008978D5610020054B10B51C682CB1FFF7E8FF41
S2140089882346BDE81040184710BD00BF142F00202E
S214008998014B1860704700BF142F0020034B1A784D
S2140089A81AB901221A700CF029BA7047D56100204E
S2140089B80022024B1A70FFF7DDBF00BFD56100200A
S2140089C837B50446002836D010F0B8F9022834D156
S2140089D860892FF0BDFBE079237A003818BF0120A4
S2140089E8012B637A08BF40F008000BB140F0100076
S2140089F863890BB140F00400257CA188A2790DB1EB
S214008A08E36893B90F4B11F0D9FC2178084611F0AA
S214008A1851FD2EF0C6FE044611F00AFD7CB1002872
S214008A280CBF0020032003B030BDCDE90035064B4F
S214008A3811F0C4FCE9E70220F5E70120F3E7204639
S214008A48F1E700BF513A04001A0A040008B50EF010
S214008A5833FB014630B1044815F0D0F9BDE80840AC
S214008A680EF0CEBE08BD00BF6AE90300034B044AF9
S214008A785B7C012103201370FFF7DCBD006D00202E
S214008A88D761002038B50446FFF7F0FFB4F57F4FEE
S214008A980AD100251B4B1A8813449D70FEF7BAFBB3
S214008AA82846FFF7FFFB06E04FF601739C4207D106
S214008AB815482AF020FD2046BDE8384000F0A0BE44
S214008AC84FF602739C4204D1104B1878FFF78EFBC2
S214008AD8F1E74FF611739C4207D100250C4B1A8814
S214008AE813449D70FEF7ECFBDAE74FF616739C42CC
S214008AF8E1D10025074B1A8813449D70FEF71CFC2D
S214008B08CEE700BF805B0020006D0020B07200201A
S214008B18FE5A00207C5A002010B5074C0121224638
S214008B280320FFF777FD28B92378044A003B18BFCF
S214008B380123537410BD00BFD7610020006D0020CC
S214008B48F8B5664B32251A884FF6FF739A4218BF57
S214008B5803234FF008020C46614918BF0B70614B9F
S214008B681A7030225D70DD7036259A705A71DA7187
S214008B7834221D7139251A724FF400129D715A4D10
S214008B884264C564594D01220565594D86188565A8
S214008B98584DC667C565584D584E4566584D80F8B9
S214008BA848208566574D80F854200567564D80F84E
S214008BB860204567202580F8785080F8845000F1BA
S214008BC82105C0F88850514D80F86C20C0F88C50AC
S214008BD8C0F8806080F89020C0F89410C0F8B830CC
S214008BE84B4B4C49C0F8BC300223C0F898104A4991
S214008BF880F8C030C0F8A4100F21484B80F8A810A1
S214008C08C0F8C430464B4749C0F8C8308223C0F87D
S214008C18AC10454980F8CC30C0F8B0100921434B59
S214008C28434DC0F8D030434B80F89C20C0F8D43071
S214008C38414BC0F8A000C0F8DC302B7C80F8B4109C
S214008C4880F8D820002B45D00E213C4B80F8E42035
S214008C58C0F8E03005F11103C0F8E8300C2303FB38
S214008C680102374E01FB033356648226354F82F8DD
S214008C784860D764344A03445A64344A83F84860E0
S214008C8800F144078E1CDA643146384600F08CFD45
S214008C984FF0000EE279A16802EB42034FEA830C1C
S214008CA821F80CE001EB8303012130440A44D87014
S214008CB85F609970E271FFF787FAFFF72DFFFFF7FD
S214008CC847FE012808D12B7C33B1BDE8F840184888
S214008CD82AF011BC0D21C1E7F8BD00BF6472002060
S214008CE8B1720020D8610020298504000100200008
S214008CF8288504000200200027850400050042009D
S214008D080300200026850400040042000700300007
S214008D18FDFF2100120010010040420024850400D7
S214008D2800FF44011485040006004200805B002012
S214008D38006D002002FF2001B072002001FF100124
S214008D4811FF4401FE5A002016FF44017C5A0020F9
S214008D5813B504460D482AF032FB6422C0F30F43CD
S214008D68637083B2B3FBF2F3A0782370202201214C
S214008D782AF056FDA078212201212AF051FD044947
S214008D88201D02B0BDE810402AF0F7BC647200202F
S214008D98E09304000B7870B583704CF61E030380CE
S214008DA84FF02013C362012380F8303080F83C303F
S214008DB8C3180364124B044643640223114A80F81E
S214008DC84830114B8263C3644063CA798D6802EBEE
S214008DD8420305EB830004F12C0646600B4E45F86B
S214008DE8236000238360531CCB71094B201DC4E904
S214008DF80134FFF765FC2046BDE87040FFF7A8BFC2
S214008E08FDFF2100210020002A850400010001033F
S214008E18598D0000437B044A0121137000781230F4
S214008E28C0B2FFF707BC00BFE261002038B50446B1
S214008E380078054D12302A460121C0B2FFF7EAFB3A
S214008E4808B92B78637338BDE2610020024B53F8EB
S214008E5820002AF0C0BD00BF04380020012908B54C
S214008E6806D0022907D049B92AF0ACFD002008BD73
S214008E782AF0ABFDFAE72AF0ABFDF7E7024814F054
S214008E88BDFF0120F3E700BF97E9030010B4054CC7
S214008E98114654F820001A46BDF804305DF8044B15
S214008EA8FFF7DCBF04380020002310B50446838192
S214008EB80364A0F844304830FFF702FC014BC4E9CD
S214008EC8123410BDC539030038B504460B781A4A63
S214008ED843700D4642F82300FFF7E6FF2046FFF7EB
S214008EE8A5FF4FF4401323610123144A2375A2619A
S214008EF8134A84F82030E261124A84F82C30626201
S214008F08114A84F83830A26204F10C0222630F4A30
S214008F1804F10D036263E363EA79A86802EB42038F
S214008F2800EB830110344C60094C40F82340094B91
S214008F388B60531CEB7138BD04380020E1610020BB
S214008F4808002000B272002000FF300001FF100168
S214008F5802010104958E000010B47024427B0D486F
S214008F68013A012904FB020006D0022908D059B9A3
S214008F785DF8044B2AF026BD5DF8044B2AF025BDA3
S214008F885DF8044B2AF024BD03485DF8044B14F042
S214008F9835BF00BF4C1A0020B3E90300B0F85C30B8
S214008FA82DE9F0418B4204460E4638D0437B077CB9
S214008FB88BB31C4A12789A422DD370251A4A013B65
S214008FC805FB032390F80F801B7B42462AF011FD11
S214008FD8B845054601D1FF281FD13A4631462046F6
S214008FE894F890302AF005FD2F46054655221221A2
S214008FF86078A4F85C602AF013FCFF2F03D039468B
S2140090082046FFF7A9FFFF2D09D029462046BDE8D0
S214009018F0412AF02EBDFF25DFE70746E6E7BDE864
S214009028F08100BF736100204C1A002041688268F6
S214009038C978D27849B112B10321FFF7AFBF837B55
S214009048002B0CBF01210221F7E72AB1837B002BF6
S2140090580CBF02210121F0E7014814F0CFBE00BF83
S214009068C4E90300037BD3B14368DA7812B1826897
S214009078D278A2B91B7933B1837B002B0CBF0421AD
S2140090880521FFF78BBF83681B792BB1837B002BE9
S2140090980CBF05210421F4E7014814F0AFBE704761
S2140090A8F6E90300084A437B05211370837B537057
S2140090B8C37B9370037CD370037B137100780F30E7
S2140090C8C0B2FFF7B7BA00BFE361002038B5044660
S2140090D800780C4D0F302A460521C0B2FFF79AFAE1
S2140090E820B1BDE83840084814F088BE2B78637372
S2140090F86B78A373AB78E373EB7823742B792373BD
S21400910838BD00BFE361002032EA0300024B53F883
S21400911820002AF0F8BC00BF2C380020F8B504461A
S2140091280B78424A43700D4642F82300404E2AF018
S21400913808FDFFF7CBFF6268A3683E483E49D66441
S2140091481165D4655065C3E91410DE64DC654FF01C
S214009158987302266361012304F10C01E161374923
S2140091681032216204F10D01A16235492376E162CD
S21400917804F10E016163334984F82430A16304F1D5
S2140091880F012164304984F83030616404F110011D
S214009198E1642E4984F83C3084F84830216584F828
S2140091A85460A265E879A96800EB400201EB8207E3
S2140091B804F1140CC7F804C04FF4817C244F41F81E
S2140091C82270C218D2B202EB420241F822C001EB6A
S2140091D8820700227A601F4A84F8703022661E4A88
S2140091E884F88830A2661D4A1D4BE2661D4AC4F8FC
S2140091F88C3062671C4A8319A26704F15C02C4F8C3
S2140092088020DBB2194A03EB4303C4F8842084F8B1
S214009218646084F87C6001EB830260345460144A0E
S214009228033041F82320E871F8BD00BF2C38002031
S21400923835900000D13A03006D900000010020012F
S214009248020010010300300104003001050021016E
S21400925801FC01064A0021002C850400510010007C
S2140092682E8504002F850400550021006F00180085
S214009278120001042DE9F84F06460F469046994617
S214009288244D05F1280A55F804BBBBF1000F16D08B
S214009298012F18D158462AF0CDFCB0420FD1B9F1AB
S2140092A8000F0CD098F800300022003B18BF0123AE
S2140092B806218BF858309BF801002AF0B1FA55457C
S2140092C8E1D1BDE8F88F022FF9D158462AF050FCB4
S2140092D8B042F4D100231C4606E0042B07D018F849
S2140092E80320013342EA04249AB29145F5D8B4F52E
S2140092F87A7F4FF0FE0328BF4FF47A745C434FF42E
S2140093087A7304F5FA74B4FBF3F4002208218BF898
S2140093185440D0E75438002073B516463349052E16
S214009328BDF8182051F8204030D0072E51D0042E12
S21400933857D1002B57D0002A55D01D7820462A1E14
S21400934818BF012284F8545084F858202AF072FC7A
S21400935801238DF80420194601AA01F071FB204666
S2140093682AF006FC4FF47A730446FE205D437F35E8
S21400937801A9B5FBF0F02AF0F4FB0A4633460221B1
S214009388204601F05DFB002002B070BD5BB3012AE9
S21400939829D91B780125B3FA83F2520984F8842068
S2140093A894F8582084F8855013430BD120462AF0A9
S2140093B841FC29462B4601AA8DF8045001F040FBD3
S2140093C884F858504FF4967104F15C002AF0D5F9E9
S2140093D8D9E7002304F15C0084F885302AF0D2F936
S2140093E8D1E70120D0E70320CEE700BF543800209D
S2140093F8134B022A07B553F8200018D002D82AB90A
S214009408002204E0402AFBD0412A16D1012280F827
S21400941858202AF00FFC01238DF8072019460DF175
S214009428070201F00DFB002003B05DF804FB90F87E
S2140094385820B2FA82F25209E9E70120F4E700BFA1
S21400944854380020F7B504460B78544A437042F85F
S2140094582300534B0D46C0E917305C30FFF730F950
S21400946804F1580262614F4A4FF48013A261A21CAD
S21400947822624FF40012626204F15402E2624A4A1F
S214009488E360226304F15502A263484A0123E263BB
S21400949804F15602626400204FF098722374237712
S2140094A884F8283084F8343084F8403084F84C3017
S2140094B804F1570384F88500A2642365E979AB684C
S2140094C801EB410203EB820604F10C077760384F84
S2140094D843F82270374A04F12407B2604A1CD2B215
S2140094E802EB420203EB82067760334F43F82270A2
S2140094F8324A04F13007B2608A1CD2B202EB42024A
S21400950803EB820677602E4F43F82270CA1CD2B24D
S21400951802EB4202B06004F1480703EB820677606C
S214009528284F043143F82270B060E971264801F0EC
S214009538B1FAA5798DB14FF47A72FE2094F85530B9
S21400954801A953437F33B3FBF0F02AF00AFB0A461F
S21400955804230221284601F073FAE5798DB14FF409
S2140095687A72FE2094F8563001A953437F33B3FB32
S214009578F0F02AF0F6FA0A4604230221284601F0FB
S2140095885FFA607940B194F8573004218DF80430BA
S21400959801AA012301F054FA03B0F0BD54380020A4
S2140095A8913B030003403001100020011100200108
S2140095B806000102F993000008000101219300004B
S2140095C801030102070001017D920000024B53F8D7
S2140095D820002AF038BB00BF54380020F0B51E4CD7
S2140095E8002527780A24DFF880C0EEB2B74207D9EC
S2140095F805FB044E1CF80EE06E1C864507D142B9E2
S214009608164C246834B3A446BDE8F0406047354697
S214009618EBE7134804FB05014C79012C0DD1CBB1BF
S21400962813788B710A2303FB0500BDE8F0400D4B49
S2140096384288002118782AF0F3B8042C0AD1032BA4
S21400964808D9D3788B719378CB7153780B721378CB
S2140096584B72E7E7F0BD00BFE961002080380020C4
S214009668025C0020D4160020F85B002010B5094CD8
S214009678237853B12AF08AF8074B1B68C01A40F6BD
S214009688B733984203D900232370002010BD012069
S214009698FCE700BFE86100207C3800202DE9F04F89
S2140096A80024DFF800818946064685B088F8004021
S2140096B800286ED0A346A7B2B94502D0F35D3B2B6F
S2140096C84DD15F4548D998F800500B2D44D8002353
S2140096D88DF80E308DF80F30A4EB0B03DBB2052B9C
S2140096E852D106EB0B0A50460DF10E012AF004FB88
S2140096F8002849D09DF80E200192002A44D00DF18A
S2140097080F010AF103002AF0F7FA00283CD00A21D4
S2140097186943214B019A58185A549DF80F2062F055
S214009728FF0242809AF80220452A24D0562A26D0DC
S214009738422A29D101224FF0100C01204FF00A0EC0
S2140097480EFB05314A700022013581F804C04871C5
S214009758C1F8062088F8005001371FFA87FB013445
S214009768A3B29945A7D298F800100C4805B0BDE8F2
S214009778F04F14F043BB04224FF0300CDDE7022212
S2140097884FF0230C0420D9E75946054814F036FB59
S214009798E2E705B0BDE8F08F025C00207CEA030033
S2140097A861EA0300E961002070B500240126124B27
S2140097B801EB41011D78114B00EB8101E0B28542B7
S2140097C803F10A0201F10C0101D8284670BD32F8EF
S2140097D8080C063321F80C0C12F8060C01F8096C74
S2140097E801F80A0C12F8050C013441F8043C01F89B
S2140097F8080C1346E2E700BFE9610020025C00207F
S21400980873B5194B00221D78184B1C46D1B28D42F1
S21400981802D8002002B070BD5E88511CB04203F129
S2140098280A0313D10A2101FB02414B798879012BDF
S2140098380ED18DF804000A2101FB02F021184978A0
S214009848205C01AA01F0FCF80120E3E70A46DDE700
S2140098584D7A8DF807008DF804500D7AC9798DF881
S21400986805508DF80610E6E7E9610020025C002046
S21400987808B5064B1B7843B101F012F9044B186083
S2140098880448BDE8084001F005B908BDE9610020B4
S21400989880380020E595000010B50A4B1B7883B188
S2140098A80122094B1A7029F071FF084B186001F065
S2140098B81DF8BDE81040002301461A46282001F08E
S2140098C871B810BDE9610020E86100207C380020EE
S2140098D870B50E461346054614460A460146244801
S2140098E814F08CFA202E3DD00BD80A2E14D80A2E47
S2140098F812D8DFE806F012111111111127171111ED
S2140099082C0040F201339E4210D04FF601439E428F
S21400991812D0B6F5817F1FD070BD2046BDE87040D6
S214009928FFF7B0B82146284600F03AFD21462846FB
S214009938BDE87040FFF74ABE21462846BDE870409D
S214009948FFF7E4BB2146284600F0B2FAEEE72046C9
S214009958BDE8704000F020BE21462846BDE87040AD
S214009968FFF774BA2046BDE8704000F0EBB800BFB9
S2140099789EEA03000148FEF7C3BF00BFD99800005F
S2140099884FF4C01330B5036001230371074B8C688E
S2140099988360CA7902EB420304EB830568600448D7
S2140099A844F82300531CCB7130BD00BF308504003B
S2140099B8040001010368064A0C21136043685360DB
S2140099C803891381438922205381FEF733BE00BFE3
S2140099D88438002010B50368044686B0FBB11148E9
S2140099E814F00CFAA37B104A8DF804304FF48273F7
S2140099F8ADF806300123CDE90223002301A804931D
S214009A088DF81430FEF7DCFF204661892AF087F9C6
S214009A182046FA2150F8143B594329F0AEFE06B00A
S214009A2810BD00BFD1EA03002000000110B5064CA7
S214009A38236843B1054814F0E1F92068BDE81040F2
S214009A4841892AF06CB910BD90380020F2EA03006C
S214009A5870B5364910460C68BDF81020002C5ED04C
S214009A6803285CD8DFE800F0021E2745002B5AD0F2
S214009A78022A58D91D78B3F80160291E18BF01219B
S214009A8832462B4814F0BAF92DB1314620462AF052
S214009A9846F9002070BDE573FA206368584329F03C
S214009AA800FFF6E7234814F0A9F9E37B002B38D02B
S214009AB80023E373F0E7002B35D0032A33D91D685B
S214009AC81D48294614F09AF91C4B2A1F9A4201D9B8
S214009AD80220DFE723680BB19D42F9D823899D420F
S214009AE8F6D3E37B6560B3B9FA20684329F0D9FE5C
S214009AF811E0002BCED0012ACCD91D881048294663
S214009B0814F07CF9002DE3D063689D42E0D8E37B2F
S214009B182581002BE8D12046FFF74CFFB9E7012046
S214009B28B8E70420B6E70320B4E700BF9038002063
S214009B3815EB03004CEB03006BEB0300FCFF6D001A
S214009B4896EB030038B5154B1C6834B3F0B921689A
S214009B58134814F053F923683BB16268934204D261
S214009B68104814F04BF96368236004F1140528467E
S214009B7829F008FE236823B1FA212846594329F01C
S214009B88FCFD2046BDE83840FFF714BF032804D183
S214009B986189054814F032F9F3E738BD903800209B
S214009BA8C1EB0300EFEB030024EC030070B53E4B5B
S214009BB80D46044609781860002A6FD101231A4614
S214009BC8A1730021E1730121A1814FF46151C4E919
S214009BD800132823354E22810C2132462220638129
S214009BE8FEF718FD60B9D6E900230AB19A4207D3F2
S214009BF8318999429FBFC4E9002373892181638113
S214009C082B4B2C4AE363042384F8403084F84C300A
S214009C18E3182365284BA2646365022304F108024F
S214009C28E265264A84F85830226604F10A02A266DB
S214009C38234A84F8643084F8703004F10C03E26632
S214009C4863676464EA79A86802EB420300EB830161
S214009C5804F13C064E601B4E40F82360FA261A4B69
S214009C681A488B60531CEB71FEF750FE208904F1EE
S214009C781405704329F015FE618920462AF04FF82E
S214009C88134B2846C4E90534FEF71AFD216849B186
S214009C9828467143BDE8704029F06FBD4FF4F07355
S214009CA802228DE770BD00BF90380020843800205F
S214009CB80000230101002300020021000300210107
S214009CC8FDFF210020000105599A0000359A000082
S214009CD8DD990000134B10B51C680CB3E37BEBB1A1
S214009CE829F054FD2369C01A002809DB0E4814F031
S214009CF885F80023FA20E3736368584329F0D1FDFA
S214009D08E37B5BB12489FA235C4329F0D5FDA042A6
S214009D1806D02046BDE8104029F0C3BD6468F2E7C7
S214009D2810BD00BF9038002051EC030038B5002461
S214009D38044D55F8040B08B12AF004F801340A2C2F
S214009D48F7D138BD94380020042908B50AD172B175
S214009D586BB113781BB92AF020F8002008BD2AF04A
S214009D6812F8FAE7034814F049F80120F6E703204A
S214009D78F4E700BF8BEC030010B4054C114654F80A
S214009D8820001A46BDF804305DF8044BFFF7DCBF28
S214009D98943800200229024608B50ED004D839B9EE
S214009DA8104629F0FAFF06E04029F9D0412907D1E4
S214009DB8104629F0E8FF002008BD29F0F8FFFAE76A
S214009DC8024814F01BF80120F6E700BFABEC0300CE
S214009DD810B4054C114654F820001A46BDF8043055
S214009DE85DF8044BFFF7D6BF94380020C26C094BC9
S214009DF852791A7082785A70C2789A70026D12B1C7
S214009E0890F85420DA70007804210930014AC0B26C
S214009E18FEF710BCEA61002037B50D460446002858
S214009E2841D04FF60273994201D129F08BFFE36CBB
S214009E38ABB193F8382092B144F2030295421AD196
S214009E481A4B187858B1A37813B1012B18BF022300
S214009E588DF804300421012301AA00F0F1FDE3780F
S214009E68022B02D0204629F06DFF204603B0BDE83D
S214009E783040FFF7BBBF44F201029542EFD193F89A
S214009E8839000028EBD00A22B4F856300221B3FB7A
S214009E98F2F35BBA0022ADF806300423ADF80420CE
S214009EA80DEB0302D9E703B030BD00BFCE6100203A
S214009EB8024B53F82000FFF7AFBF00BF94380020CE
S214009EC838B504460078084D09302A460421C0B241
S214009ED8FEF7A0FB30B96B78A370AB78E370EB782D
S214009EE884F8543038BD00BFEA61002038B504460F
S214009EF80078114D09302A460421C0B2FEF78AFBC5
S214009F08C8B9A3782A78022B0CD004D863B920469F
S214009F1829F043FF01E0FF2B0AD02046BDE8384071
S214009F2829F010BF002AF2D1204629F02CFFF4E7CA
S214009F38002AF9D1EBE738BDEA610020F8B50446F7
S214009F480B78324A0D4642F823004370FFF7B8FFF5
S214009F58E36C2F4A5C631A632046FFF7C7FF204668
S214009F6829F0F0FE4FF4801363600123E26C23723D
S214009F78511DE160274923752161A11CA161216D4E
S214009F88002941D084F8203084F82C3004F154039A
S214009F98236304232049E161E11C61621F49A16231
S214009FA892B192F839207AB11D4903EB430204EBCB
S214009FB882025160022111720C2202FB034204F154
S214009FC856010133D160DBB20627E979A86801EBB0
S214009FD8410200EB820620F82270F3700123B3706A
S214009FE8104B0434B3604B1C7460DBB20E4C03EBAE
S214009FF8430340F8234000EB8302002353600B4BD7
S21400A00802319360E971F8BD0223C9E7943800204D
S21400A018CB3D03000340300101FF300102FF100171
S21400A02801402101D99D000008000100819D000023
S21400A03828B1034B1B78834234BF002001207047A9
S21400A0487661002070B500250A4C0B4E3378AB427B
S21400A05800DC70BDD4F8A42042B123791BB1607926
S21400A068FFF7E6FF10B9104629F036FA0135A8348E
S21400A078ECE700BF882100207761002008B5427908
S21400A08801461046FFF7D4FFB0B1CB7858210B48ED
S21400A098013A042B01FB02000ED8012B08D81BB985
S21400A0A8BDE8084029F06FBEBDE8084029F075BE37
S21400A0B8BDE8084029F07BBE08BD00BF781F002019
S21400A0C808B5427901461046FFF7B2FFB0B1CB7823
S21400A0D858210B48013A042B01FB02000ED8012B2D
S21400A0E808D81BB9BDE8084029F057BEBDE80840A7
S21400A0F829F049BEBDE8084029F059BE08BD00BF92
S21400A108781F002010B586B00446FEF721FC01280B
S21400A11831D1E17804292ED8DFE801F0143335036D
S21400A128030062791046FFF783FF60B35820174B89
S21400A138013A00FB0233DB6C032958791DD100383D
S21400A14818BF012063784FF480728DF804304FF4FE
S21400A1588273ADF806300623ADF8083001238DF873
S21400A1680B3000238DF80A0001A8CDE903238DF8EB
S21400A1781430FEF725FC06B010BDB0FA80F0400992
S21400A188E0E70020DEE70220DCE700BF781F0020BB
S21400A19810B586B00446FEF7DBFB012831D1E2781D
S21400A1A8042A2ED8DFE802F014143303030061797A
S21400A1B80846FFF73DFF50B35820164B013900FB01
S21400A1C80133DB6C032A5B791DD11A1E18BF0122E6
S21400A1D863788DF80A208DF804304FF48273ADF852
S21400A1E806300623ADF8083001234FF480728DF848
S21400A1F80B30002301A8CDE903238DF81430FEF7B1
S21400A208DFFB06B010BDB3FA83F25209E0E702227C
S21400A218DEE700BF781F002010B586B00446FEF7BC
S21400A22897FB012812D16378094A8DF804304FF459
S21400A2388273ADF806304FF48073CDE9022300230D
S21400A24801A804938DF81430FEF7BAFB06B010BDCB
S21400A2580800070110B586B00446FEF779FB01280A
S21400A26820D16278104B8DF804204FF4827294F84F
S21400A278A01094F8A10059701870ADF80620049341
S21400A2884FF480720223094901A88DF81430CDE9ED
S21400A2980212FEF795FB94F8A130013B18BF012384
S21400A2A884F8A13006B010BDEE6100200800050154
S21400A2B810B5837804460BB30379022B0BD1427989
S21400A2C81046FFF7B5FE30B158200D4B013A00FB9B
S21400A2D8023029F06CFDA379022B02D12046FFF745
S21400A2E811FF2046FFF7B6FF02236078A4F86C300B
S21400A2F85522BDE81040122129F092BA10BD00BFC1
S21400A308781F00204388094A0821138083885380D1
S21400A31883681B8A938090F8A03093718379D371F1
S21400A32800780430C0B2FEF785B900BF7A5C00201A
S21400A33838B50D46044650B1836843B193F860308B
S21400A3482BB14FF60173994204BF0023037121789D
S21400A358114813F053FD4FF602739D420ED10F4B72
S21400A3681B782BB963712046BDE83840FFF7CABF93
S21400A37862790AB19342F6D20123F3E7B5F57F4F27
S21400A388F1D1204629F099FDA378022B0CBF0122B3
S21400A3980022A3689A70E6E7C7EC030076610020FF
S21400A3A8024B53F82000FFF7C3BF00BFBC3800209D
S21400A3B838B504460078144D04302A460821C0B241
S21400A3C8FEF728F920B1BDE83840104813F016BD4E
S21400A3D82B8863806B88E978A380AA88A3681A828A
S21400A3E8AB7984F8A030EB79A371094B1B780BB9CD
S21400A3F8637138BD09B19942FBD9064813F0FEFCD3
S21400A40823780133F4E700BF7A5C0020E1EC030010
S21400A418766100200AED0300F8B504460B784A4A30
S21400A4280D4642F823004370FFF7C2FFA26822B128
S21400A43892F860300BB100232371444BD465D36483
S21400A448434B02265365434BA11C13654FF4401338
S21400A458E36001236161E1623F49103221632265AE
S21400A468211D3E4AA1633E483E49626504F1A002AA
S21400A478A061E163E265E01C611D3B4A20626164FD
S21400A4883A483B492266A21D2374237784F828306D
S21400A49884F8343084F84030A16484F84C6084F83A
S21400A4A8583084F864306062A266E879AA6800EBDF
S21400A4B8400102EB810704F10C0CC7F804C04FF00A
S21400A4C8060C2C4F42F82170C118C9B201EB4101A5
S21400A4D842F821C002EB810700217960264F84F8F4
S21400A4E880302767254F84F89830A767244F254B78
S21400A4F8E767254F84F8746084F88C60C4F89C304D
S21400A50804F16C06831CC4F88470C4F890601F4F6E
S21400A5181F4EDBB203EB4303C4F89460C4F888709C
S21400A52802EB83067034746008261A4C42F82340FF
S21400A538C31CDBB203EB430302EB8304043042F88C
S21400A54823606160E871F8BDBC380020193E03003E
S21400A558633E0300B9A2000001FF300104FF20019A
S21400A5681000300102FF200105FF300100FF300116
S21400A57803FF2101070001084A0021003285040074
S21400A588510010003485040035850400550021006C
S21400A5986F0018001200010410B508B1072811D181
S21400A5A8094C236873B1094A136029F0EFF80222B0
S21400A5B8074B21681860074B07481A70BDE810401B
S21400A5C813F01CBC10BD00BFF0380020E83800208F
S21400A5D8E4380020F06100203FED030010B5084C79
S21400A5E8206860B129F0D2F8064B22681B68C01AAA
S21400A5F84FF47A73B0FBF3F0034B1344184410BDC2
S21400A608E8380020E438002080436D384FF0F173B6
S21400A61830B503600423114A037103778260104B38
S21400A628104A0362C260104B01224362022302747E
S21400A6380E4A80F8283042610D4B0E4AC36282618A
S21400A648CA798C6802EB420304EB830568600A4803
S21400A65844F82300531CCB7130BD00BFF0380020EF
S21400A668EC38002001001800FDFF2100F0610020F2
S21400A67836850400070023010A00010401292DE994
S21400A688F0470546894616461F460AD14AB1002BAA
S21400A6983ED0324B324A1C7810460023D9B28C4240
S21400A6A802D84FF000080CE092F8381069B3A942B7
S21400A6B82BD13C22317802FB030028F06FFF4FF0C5
S21400A6C8010800F021F990B9FEF7D0FF044670B9EA
S21400A6D829F05CF8234A244912F8013B9D4219D117
S21400A6E851F82430984215D2002341F82430B8F1A6
S21400A6F8000F31D11D4B1C6874B33B4632464946A1
S21400A7082846A446BDE8F047604701333C32C5E713
S21400A7189846D6E70134042CDED1154B0024197868
S21400A728144B9A46E2B29142E1D993F8602082B17E
S21400A738AA420ED1642505FB04A2D36C0BB1D06DDA
S21400A748984705FB04A56B6D33B1E86DBDE8F04787
S21400A758184701346433E5E7BDE8F08778610020E0
S21400A76834240020F1610020F43800200439002049
S21400A778CF6100209C2600202DE9F341003918BF40
S21400A788012104468DF8071029F000F80022144D20
S21400A798144980461346AE460E4615F8017B5FFA06
S21400A7A882FCBC4219D051F8047B56F823000132CB
S21400A7B8874238BF6346042AEFD108F52F7046F85B
S21400A7C823000EF803400123204619460DF1070220
S21400A7D800F036F902B0BDE8F0816346EDE700BF49
S21400A7E8F1610020F438002010B5124B124A1C788C
S21400A7F800231846D9B28C420BD8104B104A1C7846
S21400A8080023D9B28C420CD80E4B1B781844C0B221
S21400A81810BD92F8381009B10130C0B201333C328D
S21400A828E8E792F8601009B10130C0B2013364322B
S21400A838E7E700BF7861002034240020CF610020BD
S21400A8489C2600207961002070B50024094E0A4D28
S21400A8583378E0B2834200D870BDC0EBC000291838
S21400A868C21C8B78285C49782A4400F0E9F8013441
S21400A878EEE700BF796100207A61002008B5FFF78F
S21400A888B3FF58B1064B074A1A6000F009F9064BA1
S21400A89818600648BDE8084000F0FCB808BD00BFD0
S21400A8A8D415002081A700000439002085A60000E2
S21400A8B838B505460A4C10B10023237038BD2378F6
S21400A8C80133DBB2022B2370F8D9064813F096FA48
S21400A8D8257028F063FFBDE83840034828F05DBFC0
S21400A8E83662002060ED0300103900204FF6EF7343
S21400A8F8044A108898428EBF0023431C9BB21380DC
S21400A908704700BF845C0020014B1878704700BF72
S21400A918356200202DE9F04188B080460F4616467D
S21400A928002115220DF109001D4614F085FB4FF68F
S21400A938EF72114B31461C8803A89442ADF80440C8
S21400A9488EBF00240134A4B21C8004232A468DF846
S21400A95806308DF807808DF80870ADF80A5014F0A8
S21400A968FBFC109BBDF83C200E9901A829F0BDFA07
S21400A97808B0BDE8F08100BF845C002038B5044606
S21400A98818B10FC8054D85E80F00204628F005FFCA
S21400A9980122034B00201A7038BD00BF1039002072
S21400A9A83762002070B51C46244B0D461B781146AE
S21400A9B88CB0002B3FD0202C3DD84AF65523ADF856
S21400A9C8003002238DF804508DF802302B0A00253B
S21400A9D822468DF8050002A88DF803308DF807404A
S21400A9E88DF8065014F0B8FC04F1080004F10901CB
S21400A9F82B466C462A4686B289B214F8015B0132A9
S21400AA0892B22B449642DBB2F7D800F130020DEB37
S21400AA18020000F8303C0022684628F0C2FE0446D1
S21400AA28B0FA80F04009FFF743FF201E18BF012048
S21400AA3840420CB070BD4FF0FF30FAE73762002096
S21400AA4810B5134C96B02478F4B10024ADF816402F
S21400AA580DF1160402944024019406AC0094FFF706
S21400AA6859FF78B90246BDF81610204628F099FE18
S21400AA780446B0FA80F04009FFF71AFF201E18BFF8
S21400AA880120404216B010BD4FF0FF30FAE700BF75
S21400AA9837620020014B1860704700BF0C39002051
S21400AAA8014B1868704700BF0C390020014B18602E
S21400AAB8704700BF083900202DE9F0433E4B89B0A7
S21400AAC81B78002B75D03D4E3D4C33883F2B02D863
S21400AAD828F065FED8B93A4F07F101083488012CEA
S21400AAE867D93B78552B27D17B78AA2B24D1072CFE
S21400AAF85FD9FD886DBA0935ADB2402D24D93149E4
S21400AB08023C2246881E14F0E9FA3480E6E7002361
S21400AB18308801AAC0F1400189B22044ADF804305B
S21400AB2828F043FE0028D6D1BDF804303288002B22
S21400AB38D1D013443380C8E7621E92B241462048FB
S21400AB48328014F0CBFAC9E7AC4232D3294601AAC0
S21400AB58384629F028FA8146641B22463846791971
S21400AB6814F0BCFA3480B9F1000FB7D19DF806008E
S21400AB78431F012B12D8431F58425841124B134CFF
S21400AB881D6820703DB1BDF80A309DF808109DF884
S21400AB98070003AAA847002323709FE70C4B1C68EE
S21400ABA8002C9BD0BDF80A30BDF8041003AAA047B5
S21400ABB894E709B0BDE8F08337620020825C002085
S21400ABC8F5610020F76100200C390020356200206E
S21400ABD80839002000239B6AB3F5C04F03D21968D2
S21400ABE8064A914203D0002303708360704701220F
S21400ABF802709A689B694260F7E700BF07B0CD5EAF
S21400AC08024B034A1A602AF06ABC00BF0000002004
S21400AC1802020FF073B5534B04461A781AB1022293
S21400AC281A7002B070BDCDE900220028F9D00126BE
S21400AC381E7033F009F94C4D4C4B186017F0E0FACB
S21400AC482B785BB902F062FA40B949480823494AAA
S21400AC584949006801F0A8FE00B92E70474B5A6EA5
S21400AC6862619B6E464AA3614FF40043936603F104
S21400AC7888435968E16143499960196E2160596EA5
S21400AC886160D3F87011A160196CE160596C21619C
S21400AC983D49086C1864496C5964012151664FF4A3
S21400ACA8005191661A6E560436D53849CA68D407D4
S21400ACB8FCD45B6E5A0434D5354AD36B13F0430F75
S21400ACC8FBD1344B1A68531C31D04FF40013934011
S21400ACD8314A13660423304C684623664FF4806373
S21400ACE82366102323664FF4005323664FF08043F1
S21400ACF823664FF4804301A9636629F0B8F9009BE0
S21400AD082366019B63662B78002B8AD0194B1A683A
S21400AD1822665B68636684E72049CA68D007FCD465
S21400AD28C7E71F4AD36B13F0430FFBD1C9E71D4B88
S21400AD381B78002BCED14FF48072114B5A661A4AF4
S21400AD4852681AB94FF40011134A11664FF400728C
S21400AD585A66164B5B68002BBCD14FF480020E4B2C
S21400AD681A66B7E7396200203A62002040390020A8
S21400AD786C6D0020443900200071080000800050E7
S21400AD880090005055CEAC0000C0005400000440AF
S21400AD980000024C386D002000900044000004506B
S21400ADA80000025C3862002000C005500000065013
S21400ADB870B52C4D04462E78012E02D001232B7038
S21400ADC870BD0028FCD029F077F901300BD029F0A7
S21400ADD873F940F20113984205D0234B234A5E6666
S21400ADE8D368DE07FCD4224B22491B6E13F0040FEF
S21400ADF84FF4005314BF1C4A1F4A9366CA6B12F0DE
S21400AE084302FBD121681A4B196661685966A16826
S21400AE18C3F87011E168196421695964E169C807C3
S21400AE2848BF9A60154B1A6801320DD1144A127839
S21400AE3852B914494968C90748BF1A60124A526885
S21400AE48D20744BF01221A606269104B5A66A2698B
S21400AE589A6617F0DDF90E4B186832F0F0FF0023FB
S21400AE68ADE700BF396200200090004000000440B3
S21400AE78008000440000024C00900050386D00200E
S21400AE883862002000C005500000065000800050C0
S21400AE984039002070B50024A36AB3F5C04F23D20A
S21400AEA81A68134B9A421FD1124E337813F0FD05D9
S21400AEB818D14FF480341048FFF7ACFE032004F096
S21400AEC8B9FC0E4B0320DC6004F098FC0C4B1C61AC
S21400AED8AB6ADB69984704460748FFF769FF0CB971
S21400AEE801233370204670BD4FF48174FAE700BF23
S21400AEF807B0CD5E386200202039002000A000444C
S21400AF080090004413B5204B1B7803B9FEE70023D6
S21400AF181E4CCDE900336A4608231D49206801F017
S21400AF2843FDF8B91B4AD2F84031D2F840211F2B0E
S21400AF384FF0010311D9203A9340019A1A4301921F
S21400AF4808236A461249206801F0B6FE124B134AD7
S21400AF581A602AF0C4FA02B010BD9340009A1A4349
S21400AF680092EDE72D28F1D10A4AD2F84031D2F8FE
S21400AF7840211F2B4FF0010385BF203A9340934092
S21400AF88019398BF0093DBE7396200206C6D0020C0
S21400AF980071080000800044000000200B020FF03B
S21400AFA838B50025AB6A0446B3F5C04F10D21B6B04
S21400AFB8B3F5C04F0CD20748FFF72CFEAB6A204605
S21400AFC81B6B5B689847BDE838400248FFF7F0BE41
S21400AFD838BD00BF4C39002013B50024A36A019081
S21400AFE8B3F5C04F13D21B6BB3F5C04F0FD2094849
S21400AFF8FFF710FEA36A01211B6B01A89B699847FF
S21400B00804460448FFF7D4FE204602B010BD4FF4AD
S21400B0188174F9E74C39002070B50026B36A0446F7
S21400B028B3F5C04F0D4612D21B6BB3F5C04F0ED208
S21400B0380848FFF7EFFDB36A20461B6B29469B6955
S21400B048984704460348FFF7B3FE204670BD4FF402
S21400B0588174FAE74C39002070B50026B36A0446B6
S21400B068B3F5C04F0D4612D21B6BB3F5C04F0ED2C8
S21400B0780848FFF7CFFDB36A20461B6B2946DB69F5
S21400B088984704460348FFF793FE204670BD4FF4E2
S21400B0988174FAE74C390020F8B50027BB6A0446E5
S21400B0A8B3F5C04F0D46164611D21B6B7BB1094847
S21400B0B8FFF7B0FDBB6A20461B6B324629465B6A23
S21400B0C8984704460348FFF773FE2046F8BD4FF43A
S21400B0D80174FAE74C39002070B50026B36A0446B6
S21400B0E8B3F5C04F0D4612D21B6BB3F5C04F0ED248
S21400B0F80848FFF78FFDB36A20461B6B29469B6AF4
S21400B108984704460348FFF753FE204670BD4FF4A1
S21400B1180174FAE74C390020F0B50027BB6A0446EC
S21400B128B3F5C04F0D461646ADF5177D20D21B6BFE
S21400B138B3F5C04F1CD21048FFF76CFDBB6A20461B
S21400B1481B6B40F251225B6A01A99847044630B14E
S21400B1580948FFF72DFE20460DF5177DF0BD836ADA
S21400B16832461B6B2946DB6A01A898470446EFE778
S21400B1784FF40174EFE700BF4C39002010B50024E7
S21400B188A36AB3F5C04F10D21B6BB3F5C04F0CD2F1
S21400B1980748FFF73FFDA36A1B6B1B6B98470446DF
S21400B1A80348FFF705FE204610BD0124FBE700BF55
S21400B1B84C390020F0B58FB0044601A80E46154657
S21400B1C8FFF7EEFE9DF80C30012B12D1B5F5002FD7
S21400B1D827D8B4F5002F24D86319B3F5002F20D844
S21400B1E821462A46304614F0B7F8002420460FB009
S21400B1F8F0BD0027BB6AB3F5C04F15D21B6BB3F57D
S21400B208C04F11D20A48FFF705FDBB6A2A461B6BDA
S21400B218314620465B6B984704460548FFF7C8FD4D
S21400B228E4E740F20244E1E740F20114DEE700BF3B
S21400B2384C390020F0B58FB0044601A80E461546D6
S21400B248FFF7AEFE9DF80C30012B1FD1B5F5002F89
S21400B25806D8B4F5002F03D86319B3F5002F13D911
S21400B26840F2024420460FB0F0BDE258013225D124
S21400B27804339D42F9D82A463146204600F082F823
S21400B2880028EDD00024EDE70023F2E70027BB6A8C
S21400B298B3F5C04F15D21B6BB3F5C04F11D20A4891
S21400B2A8FFF7B8FCBB6A2A461B6B314620469B6BE9
S21400B2B8984704460448FFF77BFDD3E740F203446B
S21400B2C8D0E740F20114CDE74C39002070B58EB0B7
S21400B2D8044601A80D46FFF763FE9DF80C30012BC7
S21400B2E822D144EA0503C3F30C03002B33D1B5F58A
S21400B2F8002F04D940F2024420460EB070BDB4F5C3
S21400B308002FF7D82544B5F5002FF3D8204604F5C6
S21400B318005400F029F8AC4202D00028F6D1E9E73C
S21400B3280028E7D00024E7E70026B36AB3F5C04F45
S21400B33814D21B6BB3F5C04F10D20A48FFF76AFC4D
S21400B348B36A29461B6B2046DB6B984704460548BC
S21400B358FFF72EFDD0E740F20444CDE740F2011493
S21400B368CAE700BF4C3900204FF4003208B5044B3A
S21400B3789A6632F0FDFFB0FA80F0400908BD00BFBB
S21400B38800900050134610B562B103439B070BD1DB
S21400B3984FF40034054B9C6632F0EEFFB0FA80F0AE
S21400B3A8400910BD0120FCE70020FAE70090005095
S21400B3B8BFF34F8F0549064BCA6802F4E062134391
S21400B3C8CB60BFF34F8F00BFFDE700BF00ED00E086
S21400B3D80400FA0570B5D0B1C9B10E4E431E013946
S21400B3E813F8014F2046325D02F00302012A11F8D5
S21400B3F8012F08BF04F12000B55C05F00305012DF8
S21400B40808BF2032801A01D1002CE9D170BD012076
S21400B418FCE700BFCDAC04000348044A0449121AEE
S21400B428921028F0AEBE00BF40610000186300000E
S21400B4385869002008B5154B83F30A8800F030F8E1
S21400B448FFF7EAFF124B13498B4212D30020124B28
S21400B45812498B4218D3FBF765FC186850F822404F
S21400B468586840F82240013298688242F5D30C3377
S21400B478EAE70022F8E71C6844F8220001325C6814
S21400B488A242F8D30833E4E70022F8E708000020D1
S21400B498F8E8040004E9040004E9040004E90400E8
S21400B4A84FF40041134B144A70B59A60D3F88820BD
S21400B4B8124D42F47002C3F88820114A05F500546C
S21400B4C891664FF0FF3222664FF6DF7262660222FE
S21400B4D8C3F8D020BFF34F8FBFF36F8F4FF44036BB
S21400B4E8032004F0A7F90320E66004F087F92E612C
S21400B4F870BD00BF00ED00E0006000000080004462
S21400B50800900050054B1860054B1B6F03F00703AF
S21400B518032B01D130F0E4BD704700BF486D002012
S21400B528008000502DE9F04104464FF001080C2534
S21400B5380D4E0CB9BDE8F08194FAA4F0B0FA80F08C
S21400B5480F2808FA00F2C8BF103824EA0204CABF57
S21400B55805FB006205FB0062B4325768002FE8D08E
S21400B5689168C0B2B847E4E76C39002008B50C48C3
S21400B57832F08BFC192004F04FF928B1192004F09A
S21400B58859F9192004F03AF91A2004F045F928B1B7
S21400B5981A2004F04FF91A2004F030F9002008BDEC
S21400B5A8388704002DE9F0410E461746054618B3BD
S21400B5B80F2923D80378DBB1013BDBB2022B19D85D
S21400B5C8104AD35C6A78D340DB0717D50E4BD3F8FE
S21400B5D81043ACB932F038FC80463A462846314625
S21400B5E803F064F8404632F02AFC2046BDE8F081B5
S21400B5F87F23E7E70023E5E72224F6E72124F4E79C
S21400B6080224F2E78885040000C0035010B50446FB
S21400B61810B30378E3B1013BDBB2022B1AD8104A09
S21400B628D35C6278D340DB0718D532F00DFC0122D4
S21400B638617823788A4030214B4341F2100103F1A8
S21400B648A04303F570335A5032F0F9FB002010BDC2
S21400B6587F23E6E70023E4E72220F8E72120F6E741
S21400B6688885040010B5044610B30378E3B1013B9F
S21400B678DBB2022B1AD8104AD35C6278D340DB07B9
S21400B68818D532F0E1FB0122617823788A40302110
S21400B6984B4342F2100103F1A04303F570335A50AE
S21400B6A832F0CDFB002010BD7F23E6E70023E4E759
S21400B6B82220F8E72120F6E78885040038B50D46ED
S21400B6C8044618B311B30378E3B1013BDBB2022B8F
S21400B6D81AD8104AD35C6278D340DB0718D532F004
S21400B6E8B3FB30222378534303F1A04303F57033AA
S21400B6F85B696278D34003F001032B7032F09FFB3E
S21400B708002038BD7F23E6E70023E4E72220F8E799
S21400B7182120F6E7888504002DE9F0410D461646F7
S21400B7289846044600284FD000294DD001780029B5
S21400B73840D04B1EDBB2022B3ED8254AD25C63783B
S21400B748DA40D20701D4FF2940D1022E01D9042EAF
S21400B7583CD132F079FB23780746FF2B05D03246DA
S21400B7682046296802F0E8FF28602B68013309D1D3
S21400B7782378FF2B06D1174B6078D3F8241429F0CA
S21400B788D1FA286029684B1C18D00C23124A03FBF0
S21400B7980122069BC2F8048093602378FF2B04D00E
S21400B7A801230E4A8B40C2F82434384632F047FB51
S21400B7B8002007E07F22C2E70022C0E7384632F0C2
S21400B7C83EFB2D20BDE8F0812220FBE72120F9E78B
S21400B7D88885040000C003506C39002000D0035050
S21400B7E808B502F059FF054B00F0553020F0502000
S21400B7F8C3F82004BDE80840FFF794BE00E00350F5
S21400B80808B502F049FF054B00F0AA3020F0A0204A
S21400B818C3F82004BDE80840FFF784BE00E00350E4
S21400B8282DE9F04F144605460E469B46C36B87B077
S21400B83801225B6902A960689847EB6B01225B6985
S21400B84803A93046984702A829F09AF8074648B14F
S21400B8580023A37563754FF0FF33A360002007B07D
S21400B868BDE8F08F03A829F098F80123A375237E76
S21400B87804EBC303DE611F846368B3420ED1206005
S21400B88803A829F0ACF84FF0FF332075A360237D9A
S21400B898043B022B26D80023A375DFE723681A1A71
S21400B8A853425341A37503A829F099F8237D834290
S21400B8B818BFA77503A829F074F8074602A829F048
